:020000040800F2
:1000000000900020EDA000085D6D00085F6D000805
:1000100000000000000000000000000000000000E0
:10002000000000000000000000000000616D0008FA
:100030000000000000000000636D0008656D00080E
:100040003DA10008000000003DA100086D6D000802
:10005000756D00083DA100083DA100083DA1000804
:10006000000000003DA100083DA100083DA10008DE
:10007000796D0008896D0008996D00080000000086
:10008000A96D0008B96D00083DA100083DA1000858
:10009000C96D00083DA100083DA100083DA1000870
:1000A0003DA100083DA100083DA10008D96D000850
:0800B000E96D0008F96D00087C
:1000B80010B5064C2378002B07D1054B002B02D036
:1000C800044800E000BF0123237010BD7400002025
:1000D80000000000C4B40008044B10B5002B03D086
:1000E8000349044800E000BF10BDC04600000000FE
:1000F80078000020C4B400080023C25C0133002A41
:10010800FBD1581E7047000003B4714649084000EF
:100118004900095E49008E4403BC70470022430829
:100128008B4274D303098B425FD3030A8B4244D3B7
:10013800030B8B4228D3030C8B420DD3FF220902F9
:1001480012BA030C8B4202D31212090265D0030BB8
:100158008B4219D300E0090AC30B8B4201D3CB03AE
:10016800C01A5241830B8B4201D38B03C01A5241F0
:10017800430B8B4201D34B03C01A5241030B8B42F2
:1001880001D30B03C01A5241C30A8B4201D3CB02DD
:10019800C01A5241830A8B4201D38B02C01A5241C2
:1001A800430A8B4201D34B02C01A5241030A8B42C5
:1001B80001D30B02C01A5241CDD2C3098B4201D3DD
:1001C800CB01C01A524183098B4201D38B01C01A5B
:1001D800524143098B4201D34B01C01A52410309D2
:1001E8008B4201D30B01C01A5241C3088B4201D381
:1001F800CB00C01A524183088B4201D38B00C01A2E
:10020800524143088B4201D34B00C01A5241411A54
:1002180000D20146524110467047FFE701B5002061
:1002280000F0F0F802BDC0460029F7D076E7704725
:1002380003460B437FD4002243088B4274D303093F
:100248008B425FD3030A8B4244D3030B8B4228D3E0
:10025800030C8B420DD3FF22090212BA030C8B4206
:1002680002D31212090265D0030B8B4219D300E0A6
:10027800090AC30B8B4201D3CB03C01A5241830B2B
:100288008B4201D38B03C01A5241430B8B4201D3DB
:100298004B03C01A5241030B8B4201D30B03C01A04
:1002A8005241C30A8B4201D3CB02C01A5241830A7E
:1002B8008B4201D38B02C01A5241430A8B4201D3AD
:1002C8004B02C01A5241030A8B4201D30B02C01AD7
:1002D8005241CDD2C3098B4201D3CB01C01A52413E
:1002E80083098B4201D38B01C01A524143098B42C7
:1002F80001D34B01C01A524103098B4201D30B01B0
:10030800C01A5241C3088B4201D3CB00C01A5241D4
:1003180083088B4201D38B00C01A524143088B4299
:1003280001D34B00C01A5241411A00D20146524132
:10033800104670475DE0CA0F00D04942031000D351
:100348004042534000229C4603098B422DD3030AA6
:100358008B4212D3FC22890112BA030A8B420CD3B6
:10036800890192118B4208D3890192118B4204D3DF
:1003780089013AD0921100E08909C3098B4201D35F
:10038800CB01C01A524183098B4201D38B01C01A99
:10039800524143098B4201D34B01C01A5241030910
:1003A8008B4201D30B01C01A5241C3088B4201D3BF
:1003B800CB00C01A524183088B4201D38B00C01A6C
:1003C8005241D9D243088B4201D34B00C01A524143
:1003D800411A00D20146634652415B10104601D3D0
:1003E8004042002B00D54942704763465B1000D35A
:1003F800404201B5002000F005F802BD0029F8D000
:1004080016E770477047C0469E2110B5C905041C01
:1004180001F08AFF002803D1201C00F097FD10BDD1
:100428009E21201CC90500F0E3FB00F08FFD80230E
:100438001B069C466044F2E7F0B5C64643025B0AD9
:100448004E0245004F00DA00C40F9C46700A9046E1
:1004580000B52D0E3F0EC90FB6098C424BD0EA1BD2
:10046800002A36DD002F61D0FF2D00D1ADE08023BA
:10047800DB041E431B2A00DCD3E001204346181A84
:10048800430100D48CE080018709380001F056FF51
:1004980005388740854200DCB6E02D1AB34838405D
:1004A800430704D00F230340042B00D0043043013A
:1004B80000D478E06A1CFE2D65D08001430A9C4672
:1004C800D2B26346D0051843E407204380BCB8463F
:1004D800F0BD002A35D07A1B002D00D0AFE043468E
:1004E800002B00D1A7E0531E012A00D12FE1FF2ADB
:1004F80069D01A00AAE0E91B002970DD002F37D067
:10050800FF2D62D08023DB041E431B2900DCB0E0F2
:1005180001204044430143D50135FF2D33D0012349
:10052800934A0340400810401843B9E7002E00D111
:1005380083E0511E012A00D1D8E0FF2A45D00A00E5
:1005480098E7FE276A1C174200D086E0002D00D0ED
:10055800B7E04346002B00D1F3E00022002EB0D0D4
:10056800981B430100D4FAE043460C00F01A97E7C1
:10057800002E00D1C8E04A1E012900D1AEE0FF29B3
:1005880023D01100C1E70023FF229C4699E7FE21F2
:100598006A1C114277D0FF2AF5D01500464470082E
:1005A800430700D07EE7C308FF2D0ED05B025B0A2D
:1005B8009C46EAB285E7002E07D08022D203134278
:1005C80003D0104201D10C000300002BDBD08020A7
:1005D800C00318434002430A9C46FF2271E70029E2
:1005E800D5D07A1B002D60D14346002B24D0531E52
:1005F800012A73D0FF2AE7D01A001B2A00DC85E005
:1006080001203D00801985E720233A00451B38006A
:100618000135EA405D1BA840431E98410025104360
:100628003EE7202330009B1A31009840D140431EFA
:100638009841084322E70C0003001500B4E7FF2F98
:10064800C1D080234046DB04184380461B2A51DD75
:1006580001200C003D00301A12E743469F1B7B0126
:100668002BD4002F00D010E70023002400229C4642
:1006780027E7202332003000CA40591A8840431E19
:100688009841104345E7002D4AD14346002B63D0DB
:100698000022002E00D114E730004044430100D46A
:1006A8007EE7324B013518407AE7FF2F8CD0802344
:1006B8004146DB04194388469FE743460C00F71A76
:1006C800E3E64246002A00D075E7002E00D07AE71C
:1006D8008023DB0300249C46FF22F2E630004044DE
:1006E8000125430100D45BE7022518E743460125AD
:1006F800981BC5E6202344464046D4409A1A9040A9
:10070800431E98412043A4E70D004DE720234146AE
:100718004046D1409A1A9040431E9841084370E7DA
:100728004246002A00D14FE7002E00D14DE7802233
:10073800D203134200D148E7104200D045E7030036
:1007480043E7002E90D00C0084460022B9E64346C9
:100758000C00F01A013593E684460022B1E6002821
:1007680000D01DE7002300249C46AAE6FFFFFFFBFC
:10077800FFFFFF7DF0B54F464646D6464502C0B559
:1007880047000C1C6D0A3F0EC60F002F00D170E009
:10079800FF2F00D175E0EB008025ED041D430023F9
:1007A80099469A467F3F6002430A984663001B0EAB
:1007B800E40F002B4ED0FF2B46D04246D0008022BB
:1007C800D2040243904600227F3B3100FF1A4B4679
:1007D8006140C9B213430F2B00D9B5E06E489B00A6
:1007E800C3589F46002398462600454692465346DE
:1007F800022B00D189E0032B00D19EE0012B18D0F9
:100808003B007F33002B69DD6A0704D00F222A40A2
:10081800042A00D004352A0103D5604B1D403B0053
:100828008033FE2B00DD70E0AD016D0AD8B202E026
:100838000E0000200025C0052843F6073043E0BC21
:10084800BA46B146A846F0BD4346002B3FD1022226
:10085800FF3F03E04346002B2DD1012231004B46D8
:100868006140C9B213430F2B34D84D489B00C3587D
:100878009F46002D13D104239946033B00279A462F
:1008880091E7002D05D108239946063BFF279A4694
:1008980089E70C239946093BFF279A4683E72800F6
:1008A80001F04CFD7627431F9D4000237F42994667
:1008B8009A463F1A77E7404601F040FD4246431FFB
:1008C8009A4076235B4290461B1A00227DE7FF235D
:1008D80003227AE70E00FF200025ACE70120C01AAA
:1008E8001B28A6DC9E372A00BD40C2406B1E9D41D6
:1008F80015436B0704D00F232B40042B00D004357D
:100908006B0144D50120002595E7FF20002592E7DB
:1009180080250026FF20ED038DE7002398468020E0
:10092800C003054209D04346034206D14546054364
:100938006D022600FF206D0A7DE78020C003054375
:100948006D02FF206D0A76E742466B015001834233
:1009580019D21B220025013F01261C006D005B00F7
:10096800002C01DB984201D81B1A3543013A002AB2
:10097800F3D15A1E93411D433B007F330E00002BD9
:1009880000DD41E7AAE71A2201251B1AE4E7AD01B9
:1009980000206D0A4FE7C04614B50008FFFFFFF7B7
:1009A80054B50008F0B54F464646D64644024500C1
:1009B800C0B5640A0F1C2D0EC60F002D00D18DE0A6
:1009C800FF2D00D192E00023802099469A46E4004A
:1009D800C00404437F3D7802430A98467B001B0EFF
:1009E800FF0F002B00D170E0FF2B00D186E04246BC
:1009F800D00080227F3BED180023D20402439046AA
:100A08009C4631004B467940681C0F2B1CD8764A0F
:100A18009B00D3589F4639004446E2465346022B72
:100A28000FD0032B00D1D7E0012B37D100200024B1
:100A3800C0052043C9070843E0BCBA46B146A846EA
:100A4800F0BDFF200024F3E7260C2404220C4446C2
:100A58002404240C434627001B0C574374435A4371
:100A68005E4312193B0C9B189C4203D98022520208
:100A7800944666443F041A043F0CD2199401671E39
:100A8800BC411B0C920E9B1914439B011C431B0178
:100A980000D49BE0012362081C40144302007F320B
:100AA800002A64DD630704D00F232340042B00D001
:100AB8000434230103D502004C4B80321C40FE2A2B
:100AC800BFDCA401640AD0B2B2E74346002B3DD193
:100AD8004A4601331A4391469C4692E7002C29D195
:100AE80004239946033B00259A4674E7002C1BD142
:100AF80008239946063BFF259A466CE74346FF358F
:100B0800002B0BD102234A461A4391469C4678E7AC
:100B180053463100022B00D083E792E703234A466D
:100B28001A4391469C466CE70C239946093BFF25DE
:100B38009A4650E7200001F001FC7625431F9C40AF
:100B480000236D4299469A462D1A44E7404601F023
:100B5800F5FB4246431F9A4000232D1A90469C46B7
:100B6800763D4EE780240021FF20E40360E701235F
:100B78009B1A1B2B00DD59E722009E30DA40844087
:100B88001300621E94411C43630704D00F232340C3
:100B9800042B00D0043463011AD50120002447E750
:100BA8008020C003044209D04346034206D144468C
:100BB800044364023900FF20640A39E78020C00337
:100BC800044364023100FF20640A31E7280065E726
:100BD800A4010020640A2BE78020C00304436402B8
:100BE800FF20640A24E7C04694B50008FFFFFFF71A
:100BF800F8B5CE46474643025B0A4E02DA009446F1
:100C0800720A914645004A0080B52D0E1F00C40F98
:100C1800120EC90FB609FF2A5BD0012041408C4251
:100C280039D0A81A00285ADD002A6AD0FF2D00D131
:100C3800D9E08022D20416431B2800DCE9E0012019
:100C48006346181A430100D4B4E0800187093800CC
:100C580001F074FB05388740854200DCCCE02D1A92
:100C6800B5483840430704D00F230340042B00D075
:100C78000430430100D4A0E06A1CFE2D00D18DE0B1
:100C88008001470AD2B2D0053843E4072043C0BCEC
:100C9800B946B046F8BDA81A8046002845DD002AA6
:100CA80070D0FF2D00D19EE08023DB041E43434615
:100CB8001B2B00DCD2E00120604443017AD50135CA
:100CC800FF2D6BD001239D4A034040081040184374
:100CD800C8E7002E20D08C4223D02800FF380028F7
:100CE80039D0571B002D00D09DE06346002B00D162
:100CF800DBE07B1E012F00D10DE1FF2F71D01F001B
:100D080098E0002E00D1A7E0421E012800D1E6E0BD
:100D1800FF2868D010008FE701204140A14200D091
:100D28007FE7FF2040428046A8444046002838D04C
:100D3800511B002D00D1AEE0FF2A00D1DFE0802357
:100D48006046DB04184384461B2900DCD9E00120F7
:100D580015008019B1E7FE206A1C104271D1002DE0
:100D680000D0A6E06346002B00D1D9E00022002E77
:100D780000D188E7981B430100D4E1E063460C00EA
:100D8800F01A6FE7002E00D1B7E00200013A0128FF
:100D980000D19CE0FF2826D0904688E7FF22002754
:100DA80071E7FE206A1C104264D0FF2AF6D01500B5
:100DB80066447008430700D056E7C308FF2D12D0D9
:100DC8005B025F0AEAB25EE76246002A00D196E05B
:100DD800002E08D08022D203134204D04846104285
:100DE80001D10C004B46002BD8D08027FF031F43AE
:100DF8007F02FF227F0A46E720233A00451B38007E
:100E08000135EA405D1BA840431E98410025104368
:100E180028E720231B1A32009E40C2403000431EA0
:100E2800984110430CE7FF2ADBD080236046DB049F
:100E3800184384461B2F56DD01200C001500301A7C
:100E480000E763469F1B7B013DD4002F00D0FEE6E0
:100E580000240022002716E70500AFE732004346CA
:100E68004146DA4020235B1A9E403000431E9841D9
:100E7800104321E7002DA7D16346002B59D000224B
:100E8800002E00D1FFE630006044430192D52A4B82
:100E9800013518408EE76346002B47D04B1E0129C9
:100EA80015D0FF292BD019004EE70C004B463D000A
:100EB80084E76246002A8BD1002E92D18027002435
:100EC800FF22FF03DFE663460C00F71ABFE6300097
:100ED80060440125430100D46CE70225F2E663462D
:100EE8000125981BAEE6202364466046FC40DF1BC4
:100EF800B840431E984120439FE705005EE74B46F4
:100F080071E7202365466046CD40591A8840431E44
:100F1800984128431CE763460C000125F01A91E626
:100F2800002E95D00C004F460022ACE64B460D0033
:100F380044E74F460022A6E6FFFFFFFBFFFFFF7DC9
:100F4800002800D036E7002400279CE64102420032
:100F5800C30F490A0020120E7E2A03DD9D2A02DDF6
:100F6800094A98187047802000040143952A07DC35
:100F78009620821AD1404842002BF3D10800F1E7AD
:100F8800963A9140F7E7C046FFFFFF7FF0B54F461E
:100F98004646D6460D000400C0B51F0011002803C0
:100FA800620F400A10437A00520DE3003C03914659
:100FB800640AFA0F4F0F6E0027439246B846760D23
:100FC800ED0FC900954200D199E04C46341BA44668
:100FD800002C00DC7CE04A46002A00D1B8E0C54A73
:100FE800964200D11CE180223C0012041443A04622
:100FF8006246382A00DD61E11F2A00DDCCE1644643
:101008002022121B444694400F00A146644691409A
:10101800E7404C464A1E91413C43424621436446C0
:10102800E240801A5C1AA3429B415F42C71B3B0205
:1010380000D4D0E07F027F0A002F00D1FFE0380003
:1010480001F07CF901000839202322005B1A8F4047
:10105800DA408C401743B14200DAFFE0891B4B1C91
:101068001F2B00DDA8E020223900D21A200094406E
:101078009140D840621E9441DF40002601430C4352
:10108800630709D00F232340042B05D0231DA34257
:10109800A44164423F191C003B0200D49EE0954BDA
:1010A80001369E4200D1B7E0934AE40817407B0717
:1010B80071057F0223433F0B4A0D12053A43ED07A2
:1010C8002A4318001100E0BCBA46B146A846F0BD54
:1010D800002C4BD04C46A41BA446002E00D023E184
:1010E80004001C4300D1AFE16246541E012A00D11E
:1010F80015E2804DAC4500D1C8E1A4461BE14A4643
:10110800B21A9446002A00DCACE04A46002A43D0D2
:10111800784A964200D1AFE180223C001204144381
:10112800A0466246382A67DC1F2A00DC5FE1474692
:10113800203AD7406246202A05D064464022121B36
:101148004446944021434A1E91410C003C4357E0D9
:101158003A000A4300D105E12200013A012C00D1EE
:1011680082E1644CA4455BD0944641E7634C771C0C
:10117800274200D0C4E004001C43002E00D069E1DF
:10118800002C00D1BFE144460C4300D0D0E1420717
:10119800DB081343C00829E03A000A4300D170E194
:1011A80062466446013A012C00D1E0E0514CA44566
:1011B80000D161E19446B4E73A001F39CA401100F2
:1011C800202B03D04022D31A9F403C43631E9C41EE
:1011D800002700260C43630700D053E7B446E40811
:1011E8007B072343F808434A94451DD0624607030A
:1011F80052053F0B520D60E744460C43621E944172
:10120800E4189C429B415F423F183B02E3D5394BAF
:1012180001369E4200D0B5E03200002700234CE79B
:101228004207DB081343C0081A00024300D1E1E17A
:1012380080273F0307433F032E4A3F0B3DE720002B
:1012480001F07CF8010018311F2900DCFCE60838A1
:10125800844027000024B14200DBFFE6264A761AC4
:1012680017400DE7002A2FD04A46921B9446002EBD
:1012780000D1ADE01F4A914500D10FE18022120450
:1012880010436246382A00DD0FE11F2A00DD80E1A5
:10129800644620221E00121B6746040093409440B7
:1012A800FE405A1E9341F84034431C43804464185E
:1012B8008C42BF417F424E464744A6E742460A4316
:1012C80011004A1E9141ADE60C4C721C224200D01E
:1012D800A1E002001A43002E00D0FAE0002A00D153
:1012E80045E13A000A4300D046E14207DB081343D0
:1012F800C0087BE7FF070000FFFF7FFFFE07000035
:1013080047465C1AC21BA342BF417F42B946170039
:101318004A46BF1A3A0200D58DE023003B4300D06D
:101328008AE60020002561E7B44CA14500D1ADE074
:101338008024240420436446382C3DDC62461F2C5C
:1013480000DDB7E020251E002D1B0400AB40AC409B
:10135800D640D04042465D1EAB413443121A9046F7
:1013680023432CE04207DB081343C0083BE75C1823
:101378009C429B4140445B42C71801263B0200D473
:1013880029E702269E4A63081740012214401C439D
:10139800FB071C437F0873E64446203AD440624664
:1013A800202A05D067464022D21B4746974039433A
:1013B8004A1E9141214335E60343581E8341CC1A06
:1013C800A142BF4143467F4255464E46DF1B2EE6AB
:1013D80002001A4300D1BDE062466446013A012C7E
:1013E80000D1E5E0854CA44558D0944649E76446C9
:1013F8002022121B444694400F00A14664469140A7
:10140800E7404C464A1E91413C4342460C436146E4
:10141800CA408018F4E6794CA24200D1FDE659187A
:1014280099429B4140445F42C719FC07490816008E
:101438000C437F08CFE6CC1AA142BF4143467F4206
:10144800181A5546C71BF7E5C9087B0755460B43CD
:10145800F808C8E6002C00D081E043460B4315D1BC
:10146800802000250003E3E65C1AA3429B41C71BCA
:101478005B420126FF1ADAE54207DB081343C0087E
:10148800D2E64207DB081343C008ACE643464246AF
:10149800C9085B0755460B43D008C5E64346424694
:1014A8005B07C9080B43D008BEE603431C00631E54
:1014B8009C41FCE60200203CE24014006246202ADF
:1014C80003D04025AD1AA8400343581E8341234347
:1014D80075E7002AE2D03A000A43CDD04207DB087C
:1014E80013438022C0081203104206D0FC0814429D
:1014F80003D12000CB087A0713435A0FDB005207A9
:10150800DB08134390E643460B4300D109E7434603
:101518004246C9085B0755460B43D00866E6CC1A15
:10152800A14289413F1A4942554601267F1A7EE564
:1015380042465C1A871AA34292415242BF1A3A02A3
:101548003DD5CC1AA1428941434649421F1A554606
:101558007F1A95E57B07C9080B43F80843E644461C
:10156800DB080C4330D142071343C0085CE67B0715
:10157800C9080B43F80839E65C189C429B41404473
:101588005B42C7183B0200D425E61D4B01261F40CD
:1015980021E60400203AD4406246202A04D04022A2
:1015A8006646921B904003435A1E93411C437EE6B5
:1015B8005C188C428941404449424718DDE62300C3
:1015C8003B4300D1ADE606E6440723438024C00828
:1015D8002403204208D04246D608264204D1554664
:1015E8003000CB0851070B435A0FDB00DB085207CA
:1015F800134319E60023014A1F005EE5FF070000B8
:10160800FFFF7FFFF0B557464E464546DE46E0B53C
:10161800814605000C03480092461F0085B0240B44
:10162800400DCE0F002800D156E1D44B984200D18E
:1016380072E16B0FE4001C4380231B04234398468C
:10164800CF4BED009B4600239946834400933C030F
:101658007B005046240B5B0DFF0F002B00D11FE1D0
:10166800C64A934200D162E1C549420F8C46E40064
:1016780059461443802263441204CB1A14439B46F0
:10168800C200002033007B409A464B460F2B27D8D8
:10169800BC499B00CB589F46B246009B022B16D0F4
:1016A800032B00D18EE2012B00D0D9E000230024C7
:1016B800002552461B052343D2071343280019006F
:1016C80005B0F0BCBB46B246A946A046F0BD002412
:1016D8000025AA4BEDE7BA46A04615000090DCE7C6
:1016E800444500D2C7E100D1C2E101235B429C46D8
:1016F8002E0040460025E3442302140E1C431B0C15
:10170800994623041F0C1202494600920197FEF7DE
:101718008BFD02007A430B04310C804619438A4240
:1017280007D901235B429C460919E0448C4200D842
:1017380007E2881A4946FEF777FD09048C4631040A
:101748006646019A090C4243030031438A4204D990
:101758000919013B8C4200D8EDE1881A424612046F
:101768001A4390464146009B0E041B0C1F0002932F
:10177800009B360C1B04190C0B007343120C7E43A0
:10178800039151437A431F0CBC4676186644B14214
:1017980003D9802149028C466244310C8A183104ED
:1017A8001E04360C8E19904202D312D1B54210D2C3
:1017B8004346591E009B9C4665441F009D429B4121
:1017C8005B421B19C018844200D2A0E100D19BE102
:1017D8008846AE1BB542AD41801A6D42401B84421B
:1017E80000D1D5E14946FEF71FFD019A0B0442439B
:1017F800310C050019438A4200D96CE1881A494620
:10180800FEF712FD019A360442430904360C030020
:101818000E43B24200D953E10398B61A02002D04D0
:101828001D43029F2B041B0C5A437B439C46290CE7
:101838004843130C844463447943984203D9802075
:10184800400284466144180C12041B04120C41180F
:101858009B188E4200D2FFE000D1FAE001231D431D
:10186800494A5A44002A00DCAAE06B0700D03DE14F
:10187800ED084346DB0106D54246444B1A409046E4
:101888008022D2005A44424B9A4200DD1FE7434669
:101898005B071D43434652055C02240B530D08E7C2
:1018A8005246224300D17BE0002C00D1FAE0200010
:1018B80000F044FD02000B3A1D2301009B1A52461A
:1018C8000839DA408C40144352468A40314B584418
:1018D8009B4683440020D5E64B462343984644D094
:1018E800002C00D1CEE0200000F028FD010002000D
:1018F8000B391D235B1A49461000D940083884402B
:101908000B004D462343984685402348831A9B463F
:101918000023994600939AE64B46234398461DD1E7
:1019280008239946063B0025834600938FE65246D6
:10193800224309D1022349461943184B89469C463C
:1019480000240220E3449DE603234A461A43134B2E
:1019580091469C4652460320E34493E60C2399465D
:10196800093BA0468346009371E604239946002369
:101978009B4601330025009369E6C046FF07000037
:1019880001FCFFFFD4B50008FF030000FFFFFFFEC6
:10199800FE070000F30300000DFCFFFF01F8FFFF46
:1019A8004946012319438946002401206AE6002399
:1019B80080249A4600258A4B24037AE601256D4245
:1019C80001239B1A382B00DD70E61F2B00DCBFE0DB
:1019D8001F2149428A1A4146D1400A00202B04D0CF
:1019E8004146804B5B4499400D436B1E9D41072344
:1019F8002A431D0000241540134200D1D4E00F21D2
:101A080000231140042900D1CBE0111D91429241DD
:101A180052429B180A00190200D4C2E00123002494
:101A2800002546E6802341461B03194208D01C4284
:101A380006D11C432403BA461500694B240B38E62B
:101A48008024434624031C432403B246644B240BDE
:101A58002FE6002B00D103E7A619681EA64200D284
:101A68008DE08E4200D2A3E000D1B3E00500F5E698
:101A7800AA4200D939E64346DE0758086B081E43D8
:101A8800ED0739E6484600F059FC0100020015311F
:101A980020321C2900DC2CE74B46083883400025FF
:101AA800984632E700F04AFC03001A00153220304D
:101AB8001C2A00DC00E75446083B00229C4005E74E
:101AC8003619013BB44200D9A6E6B24200D8A3E6D3
:101AD800831E3619A0E60919013D8C4200D98DE60E
:101AE8008A4200D88AE6851E091987E60F232B400B
:101AF800042B00D1BCE605235B42AB429B41043575
:101B08005B42ED089844B4E6AF4200D960E68242F1
:101B180004D800D05CE6AE4200D859E602235B4206
:101B28009C46009BE0449C4665449D429B415B4229
:101B38001B19C0184DE68A4200D80EE6831E091903
:101B48000BE68A4200D8F4E5831E98460919F0E5A9
:101B58002549280059448D4042468A40691E8D41D6
:101B68004146D840D94002432A430B00510700D1CF
:101B780051E70F211140042900D046E74BE7050043
:101B88008E4200D06AE6009A934200D066E667E685
:101B9800164A5A44002A00DC10E70123002598441D
:101BA80067E65D075B021C0BD2080023154380E53E
:101BB8000098023D42008242BF417F423C193619DB
:101BC8000092DDE78024434624031C432403044B8E
:101BD800240B6EE5009A9A42EAD30500D3E7C04683
:101BE800FF0700003E0400001E040000FF03000081
:101BF800F0B557464E464546DE46E0B598460C03D6
:101C08004B000600924687B0240B5B0DCF0F002BCC
:101C180000D15CE1D94A934200D175E1420FE4005A
:101C28001443802212041443D54AC50094466344E1
:101C38000093002399469B46434642461E03D20F13
:101C48005B0050469046360B5B0D00D120E1CB4A35
:101C5800934200D162E1CA49420F8C46009963441D
:101C6800F6008C46164380229C44120463461643B1
:101C7800C200002000930099434601318C46494632
:101C88007B4001930F2926D8BE4B890059588F46AF
:101C9800434601933400150083465B46022B16D059
:101CA800032B00D103E2012B00D0CDE00022002459
:101CB8000025019B12052243DB071A432800110067
:101CC80007B0F0BCBB46B246A946A046F0BD00240A
:101CD8000025AA4AEDE7280C2D042D0C2B00110C29
:101CE8001204120C5343984613002F00434399469D
:101CF8004F434F44BB4647460B003F0CBA4643434D
:101D0800DA440293D14504D980277F02B9464B446F
:101D1800029353461B0C9B4653461F0443461B0421
:101D28001B0C98463B0043440493330C3604360C92
:101D38009846330043439946434643432F009A4607
:101D4800434677435D43380C4D444519A94503D9AB
:101D580080235B029946CA443F04280C3F0C2D049B
:101D6800ED19270C2404240C0300200050437A4367
:101D780091463A0053440593030C9A464A436143FB
:101D880049445144AB44894503D980235B029946B1
:101D98004A4400040B0C000C090409182000994659
:101DA800434670435C437E435F43030C9846A41943
:101DB80044444A440397A64204D980235B029846C8
:101DC800474403972304029E9A46059B5E4498461F
:101DD800AE42AD4176188E4289410004000C504451
:101DE80040446D424719B846934649428946C34420
:101DF800D94498428041A845AD41934592418945CF
:101E080089416D4240422843240C524249420A43C8
:101E1800039B00198018C7184B46DC0D049B7502FC
:101E28001D436A1E95414B46F60D7F0235435A0203
:101E38003C431543FB0100D41CE101216A080D4015
:101E48001543E207154364084F496144002900DC43
:101E5800B0E06B0709D00F222A40042A05D02A1DBA
:101E6800AA42AD416D4264191500E30104D58021F1
:101E7800464AC90014406144454A914200DD26E7BC
:101E88006207ED08640249051543240B4A0D10E763
:101E98005246324300D17FE0002E00D1DCE0300012
:101EA80000F04CFA02000B3A1D2301009B1A52461F
:101EB8000839DA408E40164352468A40009B35491D
:101EC800181A03008C46634400200093D3E62500CB
:101ED80005434AD0002C00D1B0E0200000F02EFAD3
:101EE800010002000B391D2310005B1A3100350078
:101EF80008388440D94085400C432648831A00930B
:101F0800002399469B4697E60500254326D10822DB
:101F180000930223002491469B468DE65246009B7F
:101F2800324310D1154900268C4663444946009334
:101F380002231943894602209DE65B460197022B3E
:101F480000D0ADE6C3E60D4A0320944663444A46F2
:101F5800009303231A43914652468CE60C220093C1
:101F68000323050091469B4666E604239946002311
:101F78000093013300249B465EE6C046FF0700003D
:101F880001FCFFFF14B60008FF030000FFFFFFFE7F
:101F9800FE0700000DFCFFFF49460123194389464F
:101FA8000026012067E6002380240025434A019388
:101FB80024037EE60120401A382800DD76E61F2833
:101FC8005BDD1F2223005242511ACB401900202802
:101FD80003D03B4A6244944025436A1E95412A0037
:101FE8000A4307210D000024154011425BD00F2140
:101FF80000241140042953D0111D914292415242AC
:10200800A4180A0023024BD501220024002550E61B
:1020180080231B031C4209D01E4207D133431C03F3
:1020280043461500240B254A019342E680221203F9
:1020380014432403214A240B01973AE600F07EF961
:1020480001000200153120321C2900DC4BE7340066
:1020580008380025844050E700F070F903001A00A2
:10206800153220301C2A00DC1EE75646083B0022A9
:102078009E4023E7009B9C46E6E612492200614405
:102088002E008D408A40C640691E8D4132432A4346
:10209800C4405307B6D00F2111400429ACD1B1E791
:1020A80065076402240BD2081543002201E680224A
:1020B800120314432403014A240BFAE5FF07000026
:1020C8003E0400001E04000070B5002816D0C31797
:1020D800C5185D40C40F280000F030F9114A121AE3
:1020E8000A2816DC03002E0015339E400B23181A0D
:1020F800C54052052D032D0B530D03E0002400238A
:10210800002500261B052B43E40723433000190054
:1021180070BD0B38854052052D0300262D0B530D3D
:10212800F0E7C0461E04000070B543004602C40F25
:10213800FE201B0E591C750A08420CD0E0229200A2
:1021480094466D07360B63441B053343E40723436A
:102158002800190070BD002B14D1002D1BD02800B9
:1021680000F0ECF80A281CDC0B232E001B1ADE40BA
:10217800030015339D400E4A3603121A5205360BDA
:10218800530DE1E7002D09D08022360B1203094BCD
:102198006D071643D8E700230026D5E70026054B30
:1021A800D2E703000B3B9D402E000025E3E7C04625
:1021B80089030000FF07000002004B00F0B55B0D2B
:1021C8000C033D4E640A400F5F1CC90F0443D50041
:1021D80037420AD039481E18FE2E16DDFF2000248B
:1021E800C0052043C9070843F0BD002B06D12C4386
:1021F80026D005229201540AD8B2F1E72543EDD042
:102208008020C0030443FF20EAE7002E1BDD920173
:10221800531E9A41E4006D0F22432A43530748D0C6
:102228000F231340042B00D004328023DB04134017
:102238003FD0701CFE2ED1D09201540AC0B2CFE715
:1022480000200024CCE73200173222DB8020000473
:1022580020431E24A41B1F2C1DDD02225242961B64
:102268000200F2401600202C04D0154A944663441C
:10227800984005432A00531E9A41324300265307CB
:10228800CED180241300E404012023402242D3D17C
:10229800B0E70023ADE70B4A94462A00E240140059
:1022A8002A0063449A409840551EAA41024322439B
:1022B800E4E733009EE7C046FE07000080FCFFFF0E
:1022C800A2FCFFFF82FCFFFF844608006146FFE78F
:1022D8001FB500F0BDF8002801D40021C8421FBD79
:1022E80010B500F049F84042013010BD10B500F0BB
:1022F800AFF8002801DB002010BD012010BDC0464A
:1023080010B500F0A5F8002801DD002010BD01205F
:1023180010BDC04610B500F055F8002801DC0020BB
:1023280010BD012010BDC04610B500F04BF80028C4
:1023380001DA002010BD012010BDC0461C21012378
:102348001B04984201D3000C10391B0A984201D390
:10235800000A08391B09984201D30009043902A26E
:10236800105C40187047C0460403020201010101D5
:10237800000000000000000070B5420045024E0257
:102388004C00C30F6D0A0120120E760A240EC90FE5
:10239800FF2A06D0FF2C03D0A24201D1B54206D0B5
:1023A80070BD002DFCD1FF2CFAD1002EF8D18B4244
:1023B80006D00120002AF3D12800431E9841EFE7F8
:1023C8000020EDE770B5420045024E024C00C30FF5
:1023D8006D0A120E760A240EC80FFF2A1BD0FF2C96
:1023E8000ED0002A1BD1002C01D1002E1CD0002DAC
:1023F8000CD083421CD00221581E0840013870BD01
:10240800002E22D1002AF4D1002DF2D10028F6D1D5
:1024180001204042F3E7002D17D1FF2CF0D0002C0B
:10242800E7D1002EE5D1E6E70020002DE7D0E2E76E
:10243800A24205DCEADBB54202D8E7D30020DEE79A
:102448004342584140000138D9E702204042D6E7CC
:1024580070B5420045024E024C00C30F6D0A120EC1
:10246800760A240EC80FFF2A0BD0FF2C0DD0002AA5
:102478001FD1002C16D1002E14D10020002D10D011
:1024880009E0002D0CD1FF2C13D1002E08D1002A11
:1024980008D0834212D00221581E0840013800E0BB
:1024A800022070BD002DF4D10028FAD1012040424D
:1024B800F7E7002CEDD1002EEBD1ECE7A24205DCCA
:1024C800F2DBB54202D8EFD30020EAE74342584195
:1024D80040000138E5E7C046F0B5DE4657464E46AF
:1024E8004546E0B589B01422002103A807F057FE3D
:1024F800434B596B042211435963596B0A400092AC
:10250800009A5A6B012422435A635A6B2240019263
:10251800019A5A6B022632435A635B6B334002932B
:10252800029B8027BF01374B9846002239001800CC
:1025380005F061FCA023DB059946002280211800E4
:1025480005F059FCF8239B019B462F4D00221900EA
:10255800280005F050FC01228021280005F04BFCE2
:102568000397049405960027069703A9404605F0AB
:102578007FFB102303930497059603A9484605F0AB
:1025880077FB80239A460393049405967D3B9846EF
:10259800069303A9484605F06BFB5B460393049436
:1025A80005964346069303A9280005F061FB84239A
:1025B8005B0003930497059403A9280005F058FBD2
:1025C800202303930497059703A9280005F050FBDF
:1025D80053460393049405944346069303A928009D
:1025E80005F046FB094A116880239B020B431360E0
:1025F80009B0F0BCBB46B246A946A046F0BDC046ED
:102608000010024000080050000400500000014083
:1026180070B50400354B02689A4208D0344B2268E2
:102628009A4221D02268334B9A423AD070BD324840
:1026380006F032FE314D01222900314806F028FD0E
:1026480030490A88531C9BB20B8028782E4988543D
:10265800FA225200934202D32A4B00221A80264BB8
:102668001B6800225A62D9E7284806F015FE284D53
:1026780001222900274806F00BFD27490A88531C28
:102688009BB20B80287825498854FA22520093423D
:1026980002D3214B00221A801C4B1B6800225A626D
:1026A800C0E71A4806F0F8FD1D4C012221001D481C
:1026B80006F0EEFC2378002B02D1194B40221A7049
:1026C80019490A88531C9BB20B8015490878174989
:1026D8008854FA225200934202D3134B00221A80E4
:1026E8000A4B1B6800225A62A0E7C0460038014026
:1026F800004400400048004020170020EA04002061
:1027080004180020E8040020F4020020B817002074
:10271800D611002098180020D4110020D8110020CC
:10272800D21300202C190020D0130020D41300202D
:1027380030B5A3B00400464B02689A4205D022681F
:10274800444B9A423CD023B030BD434A13780133FE
:10275800DBB21370414A1268934205D9404B0122FB
:102768001A703D4B00221A70802149003D4805F03F
:102778003BFB002806D13C4A13780133DBB21370C7
:10278800032B0DD0394A13780133DBB21370F02BC9
:10279800D5D1374B01221A70344B00221A70CEE77C
:1027A800344D290010318422684607F0EFFC286870
:1027B8006968AA68EB6803F081FC05F011FCE1E7A1
:1027C8002D4A13780133DBB213702C4A12789342E6
:1027D8001ED02B4B1B782B4A1278934204D0284BDF
:1027E8001A70294B0021197027490B780133DBB285
:1027F8000B709A42A7D1002A1BD0052A20D080212D
:102808004901184805F0FDFA1F4B00221A709AE793
:10281800002A08D180210901124805F0ECFA164B6C
:1028280000221A70D5E7802109010E4805F0E9FA5F
:10283800F5E78021013249010A4805F0DCFAE3E7AF
:10284800802100224901074805F0D5FADCE7C04697
:1028580000040040002C0140F0020020C0190020B4
:10286800F1020020000400509F000020000A002010
:10287800010A00202C190020CD130020CE130020BF
:10288800EB040020A0000020CC13002030B5002469
:1028980028E205196D78442D00D02AE2092088E243
:1028A80085186D784F2D00D026E28518AD78532D08
:1028B80000D021E28518ED78542D00D01CE20720C5
:1028C80077E285186D784F2D00D018E28518AD781D
:1028D800522D00D013E28518ED78542D00D00EE269
:1028E800082066E285186D78522D00D00AE2851816
:1028F800AD78452D00D005E28518ED78412D00D042
:1029080000E285182D794B2D00D0FBE1022050E222
:1029180085186D78532D00D0F7E18518AD78342DE2
:1029280000D0F2E18518ED78382D00D0EDE185185A
:102938002D79352D00D0E8E103203AE285186D782D
:10294800492D00D0E4E18518AD784D2D00D0DFE1A8
:102958008518ED78452D00D0DAE185182D79432DBD
:1029680000D0D5E185186D79322D00D0D0E18518D9
:10297800AD79432D00D0CBE106201AE285186D7899
:10298800452D00D0C7E18518AD78532D00D0C2E1A0
:102998008518ED78542D00D0BDE185182D79412D8D
:1029A80000D0B8E185186D79522D00D0B3E18518B3
:1029B800AD79542D00D0AEE10120FAE185186D788B
:1029C8004E2D00D0AAE18518AD78542D00D0A5E190
:1029D8008518ED78452D00D0A0E185182D79522D68
:1029E80000D09BE185186D79562D00D096E18518A9
:1029F800AD79412D00D091E18518ED794C2D00D0AD
:102A08008CE10420D5E185186D78412D00D088E14E
:102A18008518AD78552D00D083E18518ED78442DC3
:102A280000D07EE185182D79522D00D079E18518E6
:102A38006D79412D00D074E18518AD79542D00D001
:102A48006FE18518ED79452D00D06AE10520B0E1E8
:102A580085186D78532D00D066E18518AD78452D21
:102A680000D061E18518ED78522D00D05CE1851821
:102A78002D794E2D00D057E185186D79412D00D064
:102A880052E18518AD794D2D00D04DE18518ED79CD
:102A9800452D00D048E10A208BE185186D78412D3D
:102AA80000D044E18518AD78532D00D03FE185185A
:102AB800ED78532D00D03AE185182D79572D00D0A7
:102AC80035E185186D794F2D00D030E18518AD7945
:102AD800522D00D02BE18518ED79442D00D026E148
:102AE8000B2066E185186D784F2D00D022E18518FE
:102AF800AD78502D00D01DE18518ED78492D00D016
:102B080018E185182D79432D00D013E185186D79CA
:102B1800532D00D00EE18518AD79552D00D009E16F
:102B28008518ED79422D00D004E10C2041E185188B
:102B38006D784F2D00D000E18518AD78502D00D06C
:102B4800FBE08518ED78492D00D0F6E085182D7941
:102B5800432D00D0F1E085186D79502D00D0ECE0C0
:102B68008518AD79552D00D0E7E08518ED79422D0F
:102B780000D0E2E00D201CE185186D78462D00D0CC
:102B8800DEE08518AD78472D00D0D9E08518ED78BE
:102B98005F2D00D0D4E085182D79522D00D0CFE0DC
:102BA80085186D79532D00D0CAE08518AD79342D7C
:102BB80000D0C5E08518ED79382D00D0C0E0851823
:102BC8002D7A352D00D0BBE00E20F2E085186D7807
:102BD800462D00D0B7E08518AD78472D00D0B2E07B
:102BE8008518ED785F2D00D0ADE085182D79422D40
:102BF80000D0A8E085186D79522D00D0A3E0851883
:102C0800AD794F2D00D09EE08518ED794B2D00D081
:102C180099E085182D7A452D00D094E085186D7AB5
:102C2800522D00D08FE01220C3E085186D78462D14
:102C380000D08BE08518AD78472D00D086E0851848
:102C4800ED785F2D00D081E085182D79542D7DD148
:102C580085186D79492D79D18518AD794D2D75D1A6
:102C68008518ED79452D71D185182D7A432D6DD1B3
:102C780085186D7A322D69D18518AD7A432D65D1C5
:102C8800112096E085186D78462D61D18518AD78AC
:102C9800472D5DD18518ED785F2D59D185182D798F
:102CA800492D55D185186D794E2D51D18518AD799D
:102CB800542D4DD18518ED79452D49D185182D7A9A
:102CC800522D45D185186D7A562D41D18518AD7A8A
:102CD800412D3DD18518ED7A4C2D39D10F2068E072
:102CE8000134A4B28C4263D22200035D492B00D187
:102CF800CFE5482B00D1D3E5502B00D1E1E5422B9D
:102D080000D1EFE5522B00D102E6542B00D115E695
:102D1800522B00D132E6492B00D14FE6422B00D18D
:102D280071E6552B00D193E6502B00D1B5E6542B14
:102D380000D1D7E6542B00D1F9E6432B00D11BE78D
:102D4800432B00D142E7432B00D16EE7432B99D0A8
:102D5800432BC5D183185B78462BC1D183189B7848
:102D6800472BBDD18318DB785F2BB9D183181B792A
:102D7800422BB5D183185B79412BB1D183189B794C
:102D8800552BADD18318DB79442BA9D183181B7A35
:102D9800522BA5D183185B7A412BA1D183189B7A3A
:102DA800542B9DD18218D37A452B99D1102000E05D
:102DB800002030BD30B50022F4E085186D784D2D27
:102DC80000D0F6E08518AD78442D00D0F1E08518E4
:102DD800ED783F2D00D0ECE0032014E105196D7863
:102DE800492D00D0E8E00519AD784E2D00D0E3E07C
:102DF8000519ED78472D00D0DEE0022003E1051922
:102E08006D78532D00D0DAE00519AD78342D00D057
:102E1800D5E00519ED78382D00D0D0E005192D79C9
:102E2800352D00D0CBE00120EDE005196D78452D5A
:102E380000D0C7E00519AD78532D00D0C2E00519C0
:102E4800ED78542D00D0BDE005192D79412D00D025
:102E5800B8E005196D79522D00D0B3E00519AD79A8
:102E6800542D00D0AEE00420CDE005196D78452D35
:102E780000D0AAE00519AD784C2D00D0A5E00519C1
:102E8800ED78412D00D0A0E005192D79592D00D0FD
:102E98009BE005196D792D2D00D096E00519AD79C7
:102EA800312D00D091E00620ADE005196D78452D53
:102EB80000D08DE00519AD784C2D00D088E00519BB
:102EC800ED78412D00D083E005192D79592D7FD15A
:102ED80005196D792D2D7BD10519AD79302D77D157
:102EE800052090E005196D784F2D73D10519AD783F
:102EF8004E2D6FD10519ED78462D6BD105192D7919
:102F0800492D67D105196D79522D63D10519AD7910
:102F18004D2D5FD1072076E005196D78492D5BD1DD
:102F28000519AD784D2D57D10519ED785F2D53D181
:102F380005192D79522D4FD105196D79532D4BD186
:102F48000519AD79532D47D10519ED79492D43D18F
:102F580005192D7A3F2D3FD1082054E005196D78C9
:102F6800492D3BD10519AD78522D37D10519ED788A
:102F7800452D33D105192D794C2D2FD105196D7992
:102F8800452D2BD10519AD79532D27D10519ED798B
:102F9800532D23D105192D7A3F2D1FD1092032E059
:102FA800013292B28A422DD21400835C432B00D1A5
:102FB80003E7502B00D111E7522B00D11FE7522B0A
:102FC80000D132E7522B00D14FE7522B00D16CE7EA
:102FD800432B87D0532B9FD0572BBFD0562BDFD1F5
:102FE80003195B78422BDBD103199B78412BD7D18E
:102FF8000319DB78542BD3D1041923793F2BCFD174
:103008000A2000E0002030BDF0B5DE4657464E46A7
:103018004546E0B59DB0050088460023039360222D
:10302800002104A807F0BBF800241DE17B784E2B93
:1030380000D021E1BB78542B00D01DE1FB78452B53
:1030480000D019E13B79522B00D015E17B79562B42
:1030580000D011E1BB79412B00D00DE1FB794C2B5D
:1030680000D009E13B7A3D2B00D035E1A549280085
:1030780007F028F909239B468344A34B1B789946FC
:10308800022B2BD0002B00D0F6E09A465346632B38
:1030980000D9F1E05B4652469B5C0D2B00D1EBE07A
:1030A8000A2B00D1E8E02B2B00D1E5E003AA51461A
:1030B80053544B46019303A8FDF71EF8019B834226
:1030C80022D203AB019A9B5C303BDBB2092B00D9BF
:1030D800FAE013000133DBB20193ECE700239946D1
:1030E8005846FDF709F80238814500D3C4E05B462D
:1030F8004A469B5C303BDBB2092B00D9EFE04B46DC
:103108000133DBB29946EBE753460133DBB29A460B
:10311800BCE7AB195B78412B00D0B1E0AB199B78C9
:10312800552B00D0ACE0AB19DB78442B00D0A7E0DE
:10313800AB191B79522B00D0A2E0AB195B79412B5C
:1031480000D09DE0AB199B79542B00D098E0AB19C7
:10315800DB79452B00D093E0AB191B7A3D2B00D0CF
:10316800C0E06A49280007F0ADF809239A4682446E
:10317800002399465046FCF7BFFF023881457FD2AD
:1031880053464A469B5C303BDBB2092B00D9ACE086
:103198004B460133DBB29946ECE7AB195B784D2B14
:1031A80070D1AB199B78442B6CD1AB19DB78532BBE
:1031B80068D1AB191B79452B64D1AB195B794E2BC0
:1031C80060D1AB199B79442B5CD1AB19DB793D2BD2
:1031D80000D08DE04E49280007F074F808239A467D
:1031E80082440023994603E04B460133DBB29946FB
:1031F8005046FCF781FF0238814543D253464A4680
:103208009B5C303BDBB2092BEED9002399465BE08F
:10321800AB195B784F2B37D1AB199B78522B33D135
:10322800AB19DB78542B2FD1AB191B793A2B2BD147
:103238003849280007F046F8431D9A460023994666
:103248005046FCF759FF023881451DD253464A467D
:103258009B5C303BDBB2092B4DD84B460133DBB2CC
:103268009946EDE70134A4B244452BD226002F1924
:103278002B5D492B00D1D9E63F78422F00D148E792
:10328800432F8AD0502FC3D0492FEBD1AB195B788D
:10329800442BE7D1AE19B3783A2BE3D11E49280065
:1032A80007F010F8C71C00263800FCF725FF023885
:1032B8008642D7D2BB5D303BDBB2092B1ED8013624
:1032C800F6B2F1E70123994648461DB0F0BCBB466B
:1032D800B246A946A046F0BD00239946F4E700236C
:1032E8009946F1E700239946EEE700239946EBE774
:1032F80000239946E8E700239946E5E70023994625
:10330800E2E7C04654B60008C419002060B60008B9
:103318006CB6000874B600087CB6000830B5A3B0D7
:103328000500114B0A221A70104C210010317A3214
:10333800684606F02BFF20686168A268E36803F01E
:103348003FF80B490B4806F0BDFF002809D1FA30B9
:10335800C00004F0C1FE013DADB2002DE1D1002056
:1033680000E0012023B030BDCE13002098180020C3
:1033780080B60008D811002010B50F4B984207D02E
:103388000E4B984208D00E4B984209D0002310E00B
:103398000C4B00221A80F9E70B4B00221A80F5E744
:1033A8000A4B00221A80F1E7C21800241470013376
:1033B8009BB28B42F8D310BDD8110020D413002043
:1033C800F4020020D4110020D0130020E8040020CB
:1033D80030B5A3B00500214B96221A70204C21006D
:1033E8001031123A684606F0D1FE20686168A2687A
:1033F800E36802F04DFE1B491B4806F063FF0028F6
:1034080013D1FA20C00004F067FE013DADB2002DD3
:10341800E1D1642004F060FE144A1549124802F014
:1034280037FD002814D100200AE0642004F054FE7F
:103438000E4A0F490C4802F02BFD002802D101204A
:1034480023B030BDFA2149000748FFF795FFF6E79A
:10345800FA2149000448FFF78FFFE4E7CE13002064
:103468002C19002088B60008D4130020102700006B
:1034780090B6000810B50821034804F0B5FC0128EF
:1034880000D0002010BDC0460004005010B501282F
:1034980018D002282AD0002800D010BD00211D48CD
:1034A80003F0FAF9002802D004F09AFDF5E73A3063
:1034B80003F096FAFA239B0001220021154803F035
:1034C80071FAF1E70021134803F0E6F9012802D068
:1034D80004F086FDE1E7393003F082FAFA239B0015
:1034E800022200210B4803F05DFAF1E700210948A8
:1034F80003F0D2F9022802D004F072FDCDE738308B
:1035080003F06EFAFA239B0000220021014803F021
:1035180049FAF1E700D0010810B5154B1B78022BCA
:1035280002D0002B12D010BD124A0100124802F03E
:10353800AFFC002804D10E4B1878FFF7A7FFF2E77D
:10354800FA2149000C48FFF717FFECE7094A010088
:103558000A4802F083FE002804D1054B1878FFF7CB
:1035680095FFE0E7FA2149000448FFF705FFDAE78D
:10357800C419002010270000D4130020D8110020FF
:1035880070B5A4B005001E4B1B78022B03D0002B8E
:1035980014D024B070BD1B4C23901B4B22931B4BA3
:1035A8002193210010318422684606F0EFFD20683F
:1035B8006168A268E36802F00DFEEAE7144C260091
:1035C800103684223100684606F0E0FD2068616804
:1035D800A268E36802F0F4FE0E48FFF79DFF23950A
:1035E800094B22930C4B219384223100684606F044
:1035F800CDFD20686168A268E36803F07DF8C8E73C
:10360800C41900202C19002051160020D4130020C2
:103618009818002080B60008D811002010B504487A
:10362800FFF7AEFF0348FFF777FF04F0D9FC10BDA2
:1036380094B6000890B6000870B506000D00140096
:1036480006E0012004F048FD013CA4B2002C1CD087
:10365800144B1B685A6A052AF3D900225A6211488A
:1036680005F04EFE29003000FFF710F90E280ED0A5
:103678000F280ED010280ED011280ED012280ED0E8
:103688000128DED1FFF7CAFFDBE7062070BD012065
:10369800FCE70320FAE70420F8E70220F6E7052014
:1036A800F4E7C046B817002030B5A5B01C4B1B780E
:1036B800022B03D0002B11D025B030BD194C1A4B6A
:1036C8002193210010318422684606F05FFD2068AE
:1036D8006168A268E36802F05FFDEDE7134C25001E
:1036E800103584222900684606F050FD206861687C
:1036F800A268E36802F064FE0D48FFF70DFF0A4B6D
:1037080022930C4B219384222900684606F03EFD43
:1037180020686168A268E36802F072FFCCE7C046DF
:10372800C41900202C1900203316002098180020F6
:1037380080B60008D8110020F0B5C64600B5A6B07E
:1037480004000D000021E14803F0A6F8431C33D122
:10375800012C00D1A8E0022C00D1D2E0002C00D02E
:1037680088E0DB4CDB4B220043CB43C243CB43C254
:103778001B881380D84BE383200039300622D749B1
:1037880006F004FD200052300922D54906F0FEFC5F
:1037980022002032D34B196821621B791371200053
:1037A8006B301022D04906F0F1FC2000893011223C
:1037B800CE4906F0EBFC5DE0CD4F0021380003F068
:1037C8006BF80200CB4CCC49200006F045FDCB4EEF
:1037D80019239846019323001933009302233200DA
:1037E8000021C74803F018F902213000FFF7C4FD93
:1037F800C44E434601932300323300930223320020
:103808000021C14803F008F902213000FFF7B4FD98
:10381800BE4B98461E260196203C0094072342463C
:103828000021BB4803F0F8F807214046FFF7A4FD44
:103838000821380003F030F8E083B64F01962300E2
:103848008933009305233A000021B34803F0E4F8D4
:1038580005213800FFF790FDB04F01966B340094B6
:1038680004233A000021AE4803F0D6F804213800BA
:10387800FFF782FD022D00D16CE0002D00D1ABE0F6
:10388800A848FFF77DFEA84C2000FFF745FEFA2068
:10389800400004F021FCFFF707FF2000FFF73CFE83
:1038A80026B080BCB846F0BD894CA04B220043CB63
:1038B80043C203CB03C2198811809B7893709C4B39
:1038C800E3832000393007229A4906F05FFC200084
:1038D80052300C22984906F059FC22002032814BC4
:1038E800196821621B79137120006B3010227E4900
:1038F80006F04CFC2000893011227C4906F046FC79
:10390800B8E7734C8D4B220043CB43C21B7813702E
:10391800874BE383200039300D22894906F036FCB5
:10392800200052300D22874906F030FC2200203258
:103938006C4B196821621B79137120006B301022BF
:10394800694906F023FC200089301122674906F0F6
:103958001DFC8FE77C4C2600103684223100684617
:1039680006F014FC20686168A268E36802F0FEFBB8
:103978007648FFF7D1FD764D23952B00193B22930E
:103988002B00323B219384223100684606F0FEFB6F
:1039980020686168A268E36802F0A6FB624F3800FD
:1039A800FFF7BAFD642004F097FB523DEB8B22939E
:1039B800219584223100684606F0E8FB206861689A
:1039C800A268E36802F0B2FB3800FFF7A5FDFA2011
:1039D800400004F081FB53E75E4C5F4B22930126C5
:1039E80021962500103584222900684606F0CEFB72
:1039F80020686168A268E36802F032FD4A4F380027
:103A0800FFF78AFD2296219684222900684606F04F
:103A1800BDFB20686168A268E36802F041FD3800D8
:103A2800FFF77AFD84222900684606F0AFFB20687C
:103A38006168A268E36802F0C3FD444E3000FFF7F6
:103A48006BFD84222900684606F0A0FB20686168A7
:103A5800A268E36802F05CFD3000FFF75DFD842298
:103A68002900684606F092FB20686168A268E3684E
:103A780002F038FD3948FFF74FFD1E4E219684228B
:103A88002900684606F082FB20686168A268E3683E
:103A980002F054FD3800FFF73FFD33003233249322
:103AA800330019332393203EF38B229321968422EB
:103AB8002900684606F06AFB20686168A268E36826
:103AC80002F05AFD2648FFF727FDD9E600D801087D
:103AD800C8150020A8B600085C070000C4B6000896
:103AE800CCB60008D8B60008E0B60008F0B6000862
:103AF80040D80108E81500200CBF0008F400002099
:103B080050D80108C800002060D80108AC00002087
:103B180010D80108D000002080D80108E400002057
:103B280070D801088CB7000890B6000804B70008E0
:103B38005B0700001CB7000824B7000830B700086E
:103B480040B7000850B700082C19002060B70008DB
:103B58001A1600209818002068B700086CB70008EB
:103B68007CB7000830B583B0364C200006F016FA52
:103B78006421200005F01AFF002824D0314806F0FF
:103B88008BFAFFF777FC00283BD02F4D2F4B186896
:103B9800290003F077F82E4B1868FCF735FC83B240
:103BA8002C4C2A002C49200006F056FB2000FFF779
:103BB800E7FC2A48FFF7B0FCFA21C9002000FFF70C
:103BC800DBFB03B030BD1F4805F050FF80B2244B2B
:103BD8001880FEF779FA234A234BFEF709F80022EA
:103BE800224BFDF70FFDFEF7E7FA184B1860204B44
:103BF800009300231F4A204903F090F8144B1860E3
:103C0800BCE7FFF737FC0028DBD10F4D0F4B1868D6
:103C1800290003F037F80E4B1868FCF7F5FB83B260
:103C28000C4C2A000C49200006F016FB2000FFF778
:103C3800A7FC0A48FFF770FCFA21C9002000FFF72B
:103C48009BFBBEE7701600209C0000209800002017
:103C580094000020040A0020A8B7000890B60008C5
:103C6800900000206666666666660A4000FEAF4001
:103C78000000C842333353409A99394070B5A2B016
:103C8800424C210010318422684606F07FFA2068F1
:103C98006168A268E36802F02DF9FA2292003C49B3
:103CA8003C4802F0F5F8002829D0FA2149003948A3
:103CB800FFF762FB354C002321932600103684223F
:103CC8003100684606F062FA20686168A268E36815
:103CD80002F026F9304D2800FFF71EFC012321933E
:103CE80084223100684606F051FA20686168A268AB
:103CF800E36802F03DF92800FFF70EFC39E0FA22EC
:103D080092002649234802F0C3F8002805D0FA217A
:103D180049002048FFF730FBCCE7214B1878FFF724
:103D2800B5FBC7E71F4B0A221A70642004F0D4F9C8
:103D3800164C032321932500103584222900684658
:103D480006F024FA20686168A268E36802F054F972
:103D58001548FFF7E1FB84222900684606F016FAA9
:103D680020686168A268E36802F07CF90A48FFF7F6
:103D7800D3FB0520FFF72CFB0028D3D0094B0022EA
:103D88001A70642004F0A8F922B070BD2C19002024
:103D9800D0B70008D413002090B60008D8B70008A0
:103DA800C4190020CE130020E4B7000830B5A3B032
:103DB8001B4C2500103584222900684606F0E6F9D8
:103DC80020686168A268E36802F010FB154804F0F7
:103DD80083F90023219384222900684606F0D6F946
:103DE80020686168A268E36802F016FB0E48FFF7D6
:103DF80093FB0520FFF792FA00280BD10B4B18789C
:103E0800FFF744FB0A4B00221A70642004F064F99F
:103E180023B030BDFA2149000648FFF7ADFAF1E7B3
:103E280098180020204E000090B60008C419002001
:103E3800CE130020D811002072B6FEE700B589B075
:103E48001022002104A806F0AAF90C22002101A8DA
:103E580006F0A5F91648174B0360FA235B01436087
:103E6800002383600922C260036143618033836158
:103E780005F0BAFB002814D180235B01049304A940
:103E88000B4805F0EDFB00280DD1002301930293A8
:103E9800039301A9064803F045F9002805D109B0A4
:103EA80000BDFFF7C9FFFFF7C7FFFFF7C5FFC04613
:103EB800D4160020002C014000B589B01022002142
:103EC80004A806F06CF90C22002101A806F067F995
:103ED8001548164B0360FA239B0143600023836057
:103EE800134AC26003618033836105F07DFB0028BB
:103EF80013D180235B01049304A90B4805F0B0FBA0
:103F080000280CD100230193039301A9064803F06C
:103F180009F9002805D109B000BDFFF78DFFFFF7AB
:103F28008BFFFFF789FFC0466C1700200004004094
:103F3800E703000010B51748174B036096239B0151
:103F4800436000238360C36003610C224261836184
:103F5800C36103624362836204F0B0FF002811D199
:103F680000210C4805F012F900280DD1002109485C
:103F780005F032F9002809D1064805F0E7F80028CD
:103F880006D110BDFFF758FFFFF756FFFFF754FFA4
:103F9800FFF752FF041800200038014010B51748F9
:103FA800174B0360E1235B02436000238360C36017
:103FB80003610C2242618361C361036243628362CD
:103FC80004F07CFF002811D100210C4805F0DEF830
:103FD80000280DD10021094805F0FEF8002809D174
:103FE800064805F0B3F8002806D110BDFFF724FFF6
:103FF800FFF722FFFFF720FFFFF71EFF98180020AA
:104008000044004010B50C480C4B0360E1235B02F0
:10401800436000238360C36003610C2242618361B3
:10402800C36103624362836204F048FF002800D141
:1040380010BDFFF701FFC0462C19002000480040C2
:1040480000B589B01022002104A806F0A8F80C22B7
:10405800002101A806F0A3F81548164B0360FA23BF
:104068009B014360002383600922C26003614361AE
:104078008033836105F0B8FA002813D180235B01EF
:10408800049304A90A4805F0EBFA00280CD1002390
:104098000193039301A9064803F044F8002805D1C9
:1040A80009B000BDFFF7C8FEFFF7C6FEFFF7C4FE64
:1040B800201700200040014000B585B00C220021E7
:1040C80001A806F06CF80F480F4B0360FA239B0118
:1040D8004360002383600933C3607733836105F04D
:1040E80083FA00280AD100230193039301A9054804
:1040F80003F018F8002803D105B000BDFFF79CFEB7
:10410800FFF79AFEB81700200010004000B585B0F0
:104118000C22002101A806F042F81848184B036049
:10412800002343608360C360036104224261037615
:1041380043768376033AC2611F32835443628362B3
:104148000C3283540363253A4263826335328354C5
:10415800C36405F009FB00280CD10A4B0193002326
:104168000293039301A9054805F032FD002803D105
:1041780005B000BDFFF760FEFFF75EFE7016002079
:10418800002401400200000400B593B0342200214D
:1041980005A806F004F81022002101A805F0FFFF89
:1041A8008020800003F0B6FE02230593FE330893B7
:1041B8000023099340220A920C9305A802F0F2FF0B
:1041C80000280DD10723019300230293039304933E
:1041D800002101A803F094FA002803D113B000BD10
:1041E800FFF72AFEFFF728FEF0B5DE4657464E4693
:1041F8004546E0B5C1B003F049FFFFF7C5FF002110
:10420800D34802F049FB431C46D10021D14802F0B3
:1042180043FB431C47D0FEF75FF9FFF70FFEFFF79C
:104228004BFEFFF787FEFFF7B9FEFFF7EBFEFFF740
:1042380007FFFFF741FFFFF769FF0122C649C7489B
:1042480004F026FF0122C649C64804F021FF0122D6
:10425800C549C64804F01CFFC54805F067F8C548BD
:1042680005F064F8642003F037FF0021B94802F034
:1042780013FB002822D1C04B00221A70FFF796FDCD
:10428800BD4B19780020FFF757FA80210022C9009A
:10429800BA4803F0B0FD4BE00021AD4802F0FCFA4B
:1042A800B74B1860B1E73B3002F09AFBFA239B004A
:1042B80000221100A74802F075FBACE70021A548D1
:1042C80002F0EAFA01280BD00021A24802F0E4FA31
:1042D8000228D5D1A84B02221A70FFF7CFFCCFE7EE
:1042E800A54B1870FFF7D2F8CAE7FA256D00A54C60
:1042F80029002000FFF740F8FA2252012900200087
:10430800FFF79AF9052829D0032801D100F053FCBA
:10431800022801D100F0D1FD042801D100F01BFFD3
:10432800012801D101F066F8062801D101F046FA0A
:10433800914B1B78002BD8D0022B01D00020E3E74B
:10434800FA256D00904C29002000FFF715F8FA2295
:10435800520129002000FFF76FF9D3E7363002F049
:104368003FFB8A4C8A4B220023CB23C223CB23C298
:104378001B8813802000FFF703F98648FFF7CCF865
:10438800FA2149002000FEF7F7FF642003F0A4FE9D
:10439800794B1B78002B06D0022B0AD0002426006C
:1043A80025001E2771E0FA2149007648FEF7E4FF50
:1043B800F4E7FA2149007448FEF7DEFFEEE7022B26
:1043C80070D1FA2149007048FEF760FA040069E0EC
:1043D800694B1F78002F11D16F496A4805F072FFA9
:1043E800451D0023EA5C0D2A10D00A2A0ED0002AA7
:1043F8000CD06649CA540133DBB2F3E7022FF0D17F
:104408006549614805F05EFF451DEAE7002F5BD06E
:10441800022F5FD0FA21614FC9003800FEF7ACFFC8
:104428005F4B98465F491800FEF7A6FF414657487C
:1044380002F0A0FB3900404602F0B4FBFA229200D9
:104448003900594802F02DFA012849D05748FFF79A
:1044580097F85048FFF760F8FA2149004B48FEF7F3
:104468008BFFFA27FF0039004C48FEF785FF39001B
:104478004B48FEF781FF1E27FA20800003F02CFE30
:10448800013FFFB2002F00D14AE3494B05221A70C1
:10449800394B1B78002B92D1FA2149003948FEF795
:1044A800F5F90400002C09D0424B1B685A6A052A0A
:1044B800F8D900225A623F4804F022FF0D2CDBD8BD
:1044C800A3003D4AD3589F46FA2149002D48FEF7DC
:1044D80053FF9FE7FA2149002B48FEF74DFF99E764
:1044E8003648FFF74DF82B48FFF716F8B4E7224B8C
:1044F8001F78002F1DD0022F22D0012E75D1002F3A
:1045080064D12F491F4805F0DDFE451D280005F040
:1045180012FE0200FA239B0008212A4802F042FA00
:1045280001285BD02848FFF72BF81A48FEF7F4FF5C
:1045380061E0FA2149001348FEF766FD0600DCE752
:10454800FA2149001048FEF75FFD0600D5E7C0468E
:1045580000E8010800D00108EA040020041800203F
:10456800D611002098180020D21300202C19002002
:10457800D41600206C170020C41900200004005035
:1045880000000020D8110020D4130020FC000020D7
:1045980000B8000890B600081CB80008040A0020FB
:1045A800EC0400201405000010D8010840B80008E9
:1045B800A0000020B817002004C0000824B8000894
:1045C80074B6000840D8010878B80008022F9DD1B9
:1045D800BB49BC4805F076FE451D97E7BA48FEF78B
:1045E800CFFFBA48FEF798FF05E0B948FEF7C8FFC5
:1045F800B648FEF791FFB74B1B78002B03D0022B70
:1046080008D01E2738E7FA214900B348FEF7B4FE60
:104618001E2731E7FA214900AA48FEF7ADFE1E27FA
:104628002AE7AC4B1F78002F1DD0022F22D0012E75
:1046380036D1002F25D1A949A74805F043FEC51C4E
:10464800280005F078FD0200FA239B000021A44809
:1046580002F0A8F901281CD0A248FEF791FF9B4858
:10466800FEF75AFF22E0FA2149009B48FEF7CCFCEE
:104678000600DCE7FA2149009248FEF7C5FC06006F
:10468800D5E7022FDCD195498E4805F01BFEC51CE5
:10469800D6E79548FEF774FF8C48FEF73DFF05E026
:1046A8009248FEF76DFF8948FEF736FF894B1B7865
:1046B800002B03D0022B08D01E27DDE6FA21490083
:1046C8008548FEF759FE1E27D6E6FA2149007D489F
:1046D800FEF752FE1E27CFE67E4B1F78002F12D121
:1046E80083497D4805F0EEFD093005000023EA5CAA
:1046F8000D2A11D00A2A0FD0002A0DD07D49CA549C
:104708000133DBB2F3E7022FF0D179496D4805F0A8
:10471800D9FD09300500E9E7002F34D0022F38D041
:10472800FA21754FC9003800FEF726FE734B9846EC
:1047380073491800FEF720FE41466E4802F01AFA47
:104748003900404602F02EFAFA22920039006D48EC
:1047580002F0A7F8012822D06B48FEF711FF5B484A
:10476800FEF7DAFEFA2149006248FEF705FEFA274D
:10477800FF0039006048FEF7FFFD39005F48FEF78B
:10478800FBFD1E2778E6FA2149005348FEF7F4FDA1
:10479800C6E7FA2149004B48FEF7EEFDC0E75B4843
:1047A800FEF7EEFE4948FEF7B7FEDBE7494B1F78F8
:1047B800002F12D15649484805F084FD09300500FC
:1047C8000023EA5C0D2A11D00A2A0FD0002A0DD046
:1047D8004849CA540133DBB2F3E7022FF0D14C4900
:1047E800384805F06FFD09300500E9E7002F34D09F
:1047F800022F38D0FA21404FC9003800FEF7BCFD1F
:104808003E4B98463E491800FEF7B6FD41463948EA
:1048180002F0B0F93900404602F0C4F9FA229200D9
:1048280039003C4802F03DF8012822D03A48FEF70A
:10483800A7FE2648FEF770FEFA2149002D48FEF72C
:104848009BFDFA27FF0039002B48FEF795FD39003C
:104858002A48FEF791FD1E270EE6FA2149001E4858
:10486800FEF78AFDC6E7FA2149001648FEF784FDDF
:10487800C0E72A48FEF784FE1448FEF74DFEDBE742
:10488800144B1F78002F12D12549134805F01AFD43
:10489800093005000023EA5C0D2A43D00A2A41D0DA
:1048A800002A3FD01349CA540133DBB2F3E7022F81
:1048B800F0D11B49034805F005FD09300500E9E77B
:1048C80074B60008D41300205CB8000890B600083D
:1048D80094B80008C4190020D81100207CB600083C
:1048E80040D80108CCB80008B4B80008E8B80008F7
:1048F80008B90008FC000020040A0020EC0400208D
:104908001405000050D8010834B9000814B900088B
:1049180054B9000860D8010880B9000860B90008D7
:10492800A0B90008002F34D0022F38D0FA21BE4F8A
:10493800C9003800FEF720FDBC4B9846BC4918005A
:10494800FEF71AFD4146BB4802F014F9390040460B
:1049580002F028F9FA2292003900B74801F0A1FFC5
:10496800012822D0B548FEF70BFEB548FEF7D4FD66
:10497800FA214900AF48FEF7FFFCFA27FF0039008B
:10498800A948FEF7F9FC3900A848FEF7F5FC1E27F0
:1049980072E5FA214900AB48FEF7EEFCC6E7FA21BA
:1049A8004900A948FEF7E8FCC0E7A848FEF7E8FD7B
:1049B800A348FEF7B1FDDBE7A54B1F78002F12D106
:1049C800A449A04805F07EFC093005000023EA5CF4
:1049D8000D2A11D00A2A0FD0002A0DD09549CA54A1
:1049E8000133DBB2F3E7022FF0D19A49964805F07C
:1049F80069FC09300500E9E7002F34D0022F38D0D0
:104A0800FA21894FC9003800FEF7B6FC874B984653
:104A180087491800FEF7B0FC4146864802F0AAF81C
:104A28003900404602F0BEF8FA22920039008A485E
:104A380001F037FF012822D08848FEF7A1FD804801
:104A4800FEF76AFDFA2149007A48FEF795FCFA2735
:104A5800FF0039007448FEF78FFC39007348FEF7F1
:104A68008BFC1E2708E5FA2149007648FEF784FCEE
:104A7800C6E7FA2149007448FEF77EFCC0E778488B
:104A8800FEF77EFD6E48FEF747FDDBE7002175481F
:104A980001F002FF431C05D00821734801F0FCFE19
:104AA800431C08D17148FEF76BFD6548FEF734FDDD
:104AB80003F096FAE0E400216B4801F0EDFE431C98
:104AC800F0D000216A4801F0E7FE431CEAD000213B
:104AD800684801F0E1FE431CE4D000215E4801F083
:104AE800DBFE431CDED00021534801F0D5FE431CF9
:104AF800D8D0FA239B00002211005F4801F052FF32
:104B0800012806D05D48FEF73BFD4D48FEF704FD41
:104B1800CEE75B48FEF734FD4948FEF7FDFCC7E7E2
:104B28000021504801F0B8FE431C05D008214E482A
:104B380001F0B2FE431C07D14C48FEF721FD404866
:104B4800FEF7EAFC00F0C8FD0021474801F0A4FE8A
:104B5800431CF1D00021464801F09EFE431CEBD0D7
:104B68000021444801F098FE431CE5D000213A4852
:104B780001F092FE431CDFD000212F4801F08CFE8B
:104B8800431CD9D0FA239B00002211003A4801F0B7
:104B980009FF012807D03948FEF7F2FC2848FEF73C
:104BA800BBFC00F099FD3748FEF7EAFC2448FEF705
:104BB800B3FC00F091FD1F4C334B220023CB23C2E2
:104BC80023CB23C21B6813602000FEF7D9FC1C48C6
:104BD800FEF7A2FCFA2149002000FEF7CDFB642075
:104BE80003F07AFA1A4B1B78002B07D0022B0BD054
:104BF8000024A04624941E27260057E0FA214900E5
:104C08001048FEF7B9FBF3E7FA2149000E48FEF712
:104C1800B3FBEDE7022B56D1FA2149000A48FDF70C
:104C280035FE04004FE0C046040A0020EC040020D2
:104C380014050000FC00002070D80108D0B9000855
:104C480090B60008D8110020D4130020ACB9000891
:104C5800C4190020F8B9000880D8010828BA00084B
:104C680004BA000810D8010840D8010888BA00081A
:104C780050D8010860D8010800D8010878BA00089F
:104C880050BA0008ACBA0008D4BA0008042C3ED0C8
:104C980026D9062C29D8052C2CD2FA20800003F01E
:104CA8001BFA013FFFB2002F00D1CDE0BD4B05221A
:104CB8001A70BD4B1B78002BACD1FA214900BB48B8
:104CC800FDF7E4FD0400002CE0D0B94B1B685A6ADC
:104CD800052AF8D900225A62B54804F011FBD5E735
:104CE800631EDBB2022BD8D804E023000E3BDBB2F4
:104CF800032BD2D8AC4B1B78002B00D19EE0022BA3
:104D0800CBD1FA214900AB48FEF736FBC5E7A64BE5
:104D18001D78002D1AD0022D1FD0249B012B74D191
:104D2800002D21D1A449A14805F0CCFA093006008C
:104D3800022D22D0002D25D04346092B35D99623A4
:104D48005B00984533D93C23984630E0FA21490066
:104D58009648FEF759F92490DFE7FA21490095486B
:104D6800FEF752F92490D8E7022DE1D192499148F3
:104D780005F0A8FA09300600DAE7300005F0DBF99B
:104D88008046D9E7632D0BD8735D0D2B08D00A2B0D
:104D980006D02B2B04D027AA53550135EDB2F1E7E5
:104DA80027A805F0C8F98046C6E70A2398460021D7
:104DB800824801F071FD431C05D000217F4801F0B5
:104DC8006BFD431C27D03C2001F00AFEFA239B0010
:104DD80042460021794801F0E5FD01281BD1002158
:104DE800764801F059FD431C08D07548FEF7C8FB0A
:104DF8007448FEF791FB03F0F3F80CE07248FEF7F5
:104E0800BFFB7048FEF788FB05E07048FEF7B8FB6B
:104E18006C48FEF781FB644B1B78002B08D0022BF3
:104E280000D03AE7FA2149006248FEF7A5FA34E7CC
:104E3800FA2149005D48FEF79FFA2EE7FA2149005A
:104E48005A48FEF799FA28E7350000215B4801F037
:104E580023FD431C07D05E48FEF792FB5948FEF736
:104E68005BFB00F039FC3D3001F0BAFDFA239B00F2
:104E78002D220021514801F095FD012807D0554801
:104E8800FEF77EFB4F48FEF747FB00F025FC0021AC
:104E98004A4801F001FD431C07D04F48FEF770FB5C
:104EA8004848FEF739FB00F017FC4C48FEF768FB52
:104EB8004448FEF731FB00F00FFC494C494B2200F7
:104EC80023CB23C223CB23C223CB23C21B8813802B
:104ED8002000FEF755FB3B48FEF71EFBFA21490070
:104EE8002000FEF749FA642003F0F6F82E4B1B78F1
:104EF800002B06D0022B0AD00026249635001E2748
:104F080025E0FA2149002948FEF736FAF4E7FA21A4
:104F180049002848FEF730FAEEE7022B24D1FA219F
:104F280049002448FDF7B2FC06001DE0062E5BD0C0
:104F380027D933000E3BDBB2032B26D9FA20800099
:104F480003F0CAF8013FFFB2002F00D1CFE0154BA4
:104F580005221A70144B1B78002BDED1FA21490068
:104F68001248FDF793FC0600002EDFD0104B1B689B
:104F78005A6A052AF8D900225A620D4804F0C0F985
:104F8800D4E7731EDBB2042BD8D8074B1B78002B51
:104F980000D1A6E0022BD1D1FA2149000548FEF73D
:104FA800EBF9CBE7A0000020C4190020D81100209D
:104FB800B8170020D413002054B6000800E00108F8
:104FC800F0BA000890B6000818BB000834BB000807
:104FD800B0BB000894BB000850BB000870BB0008B9
:104FE800FC000020C0BB0008C34B1C78002C19D063
:104FF800022C1ED0249B012B5AD1002C20D1BF4952
:10500800BF4805F05FF908300500280005F093F85F
:105018000400C7281DD9FA235B0098421AD9FA243C
:10502800640017E0FA214900B548FDF7EDFF249028
:10503800E0E7FA214900B348FDF7E6FF2490D9E7F5
:10504800022CE2D1AD49AF4805F03CF90830050023
:10505800DBE7C8240021AC4801F01EFC431C05D046
:105068000021A94801F018FC431C27D03E2001F07C
:10507800B7FCFA239B0022000021A34801F092FC10
:1050880001281BD10021A04801F006FC431C08D0D0
:105098009E48FEF775FA9E48FEF73EFA02F0A0FF1A
:1050A8000CE09C48FEF76CFA9948FEF735FA05E0E3
:1050B8009948FEF765FA9648FEF72EFA8E4B1B784C
:1050C800002B08D0022B00D038E7FA2149008D4880
:1050D800FEF752F932E7FA2149008948FEF74CF900
:1050E8002CE7FA2149008648FEF746F926E7002111
:1050F800854801F0D1FB431C06D08848FEF740FAEA
:105108008348FEF709FAE7E23F3001F069FCFA2329
:105118009B00C82200217C4801F044FC012806D0ED
:105128007F48FEF72DFA7A48FEF7F6F9D4E2002117
:10513800754801F0B1FB431C06D07A48FEF720FA07
:105148007348FEF7E9F9C7E27748FEF719FA70489D
:10515800FEF7E2F9C0E2754C754B220023CB23C25F
:1051680023CB23C2196811601B7913712000FEF745
:1051780007FA6748FEF7D0F9FA2149002000FEF740
:10518800FBF8642002F0A8FF5B4B1B78002B06D0CD
:10519800022B0AD00026249635001E2721E0FA218A
:1051A80049005748FEF7E8F8F4E7FA21490055485E
:1051B800FEF7E2F8EEE7022B20D1FA214900514828
:1051C800FDF764FB060019E0731EDBB2032B2CD934
:1051D800FA20800002F080FF013FFFB2002F00D1CB
:1051E800D3E0544B05221A70434B1B78002BE2D1B5
:1051F800FA2149004248FDF749FB0600002E09D074
:105208004D4B1B685A6A052AF8D900225A624A4847
:1052180004F076F8052E15D0D6D9062E05D0D7D3AA
:1052280033000E3BDBB2032BD2D8334B1B78002B59
:1052380000D1A4E0022BCBD1FA2149003148FEF776
:105248009BF8C5E72C4B1C78002C37D0022C3CD09F
:10525800249B012B7AD1002C3ED13849284805F0EF
:1052680031F809300500280004F065FF040000212A
:10527800334801F011FB431C05D00021304801F0F0
:105288000BFB431C68D03D2001F0AAFBFA239B00CE
:10529800220000212A4801F085FB01285CD1002169
:1052A800274801F0F9FA431C1FD02648FEF768F991
:1052B8001748FEF731F902F093FE4DE0FA21490054
:1052C8000F48FDF7A1FE2490C2E7FA2149000D48D6
:1052D800FDF79AFE2490BBE7022CC4D11749094870
:1052E80004F0F0FF09300500BDE71748FEF748F95C
:1052F8000748FEF711F92FE0C41900206CB6000822
:10530800D8110020D413002000F00108E8BB0008E1
:1053180090B6000814BC000834BC0008B0BB0008F4
:10532800A4BC000858BC00087CBC0008FC00002095
:10533800C8BC0008A0000020B817002060B600080C
:1053480000E80108E8BC000810BD0008BF48FEF7E7
:1053580017F9BF48FEF7E0F8BE4B1B78002B08D0C2
:10536800022B00D034E7FA214900BB48FEF704F8C5
:105378002EE7FA214900B948FDF7FEFF28E7FA2190
:105388004900B648FDF7F8FF22E70021B44801F0CC
:1053980083FA431C06D0B348FEF7F2F8AC48FEF790
:1053A800BBF899E13E3001F01BFBFA239B00AE4AA3
:1053B80012680021AA4801F0F5FA012806D0AB4886
:1053C800FEF7DEF8A248FEF7A7F885E10021A44819
:1053D80001F062FA431C06D0A548FEF7D1F89C48B4
:1053E800FEF79AF878E1A348FEF7CAF89848FEF75E
:1053F80093F871E1A04CA14B220023CB23C223CB0D
:1054080023C2196811609B8893802000FEF7B8F8C2
:105418008F48FEF781F8FA2149002000FDF7ACFF1C
:10542800642002F059FE3F2001F0DAFA894B1B781C
:10543800002B07D0022B0BD00024A0462600250005
:105448001E27B6E0FA2149008448FDF795FFF3E7E7
:10545800FA2149008048FDF78FFFEDE7022B00D0C5
:10546800B5E0FA2149007C48FDF710FA0400AEE0E7
:10547800784B1F78002F11D18149784804F022FF1A
:10548800851D0023EA5C0D2A10D00A2A0ED0002AB6
:105498000CD07949CA540133DBB2F3E7022FF0D1BB
:1054A80077496D4804F00EFF851DEAE7002F3DD0CF
:1054B800022F41D0FA21734FC9003800FDF75CFF75
:1054C8006D4B99463900180001F06CFB4846FAF715
:1054D80013FE4108C9B2380001F0FCFA070048463B
:1054E800FAF70AFEC3074AD4002F48D0312E34D821
:1054F8000136F6B2FA239B0099463A000021624829
:105508004044824601F04EFA07004B465D4A0821A6
:10551800504601F009FA0743FFB2012F12D05B4849
:10552800FEF72EF84A48FDF7F7FF2EE0FA2149006A
:105538004A48FDF721FFBDE7FA2149004648FDF733
:105548001BFFB7E7434610339BB298465048FEF717
:1055580017F83F48FDF7E0FF17E04E48FEF710F850
:105568003B48FDF7D9FFFA21C9004648FDF704FF7B
:10557800FA2149004048FDF7FFFE1E2710E0464883
:10558800FDF7FEFF3248FDF7C7FFFA21C9003D4885
:10559800FDF7F2FEFA2149003748FDF7EDFE1E2718
:1055A800FA20800002F098FD013FFFB2002F00D1E1
:1055B80080E03A4B05221A70264B1B78002B00D04E
:1055C8004CE7FA2149002548FDF760F90400002C52
:1055D80009D0334B1B685A6A052AF8D900225A6247
:1055E8002F4803F08DFE112CDAD8A3002D4AD3588A
:1055F8009F46FA239B00320000212B4801F0D2F984
:10560800012807D02948FDF7BBFF1148FDF784FFA3
:105618001E27C5E72648FDF7B3FF0D48FDF77CFFB9
:1056280002F0DEFCBCE70B4B1B78002B07D0022BEB
:10563800B6D1FA2149000848FDF79EFEB0E7FA21E5
:1056480049000648FDF798FEAAE7C0462CBD0008A9
:1056580090B60008C4190020D4130020D8110020E7
:1056680000E80108B0BB00080000002090BD000859
:105678004CBD00086CBD0008FC000020B0BD00084F
:10568800D0BD0008040A002010F80108F4BD000885
:10569800D8BD000814BE000824BE0008A0000020E1
:1056A800B81700203CC0000800F8010878BA0008C4
:1056B80050BA00080021C34801F0EEF8431C32D06C
:1056C8000021C14801F0E8F8431C50D0BF48FDF75D
:1056D80057FFBF48FDF720FF0821BE4801F0DCF85E
:1056E800431C6DD00021B74801F0D6F8431C6FD198
:1056F80000239846B84B1B78002B79D0022B00D199
:1057080095E0B64C2000FDF73BFFB148FDF704FFDC
:10571800FA21C9002000FDF72FFEFA20400002F010
:10572800DBFC002403E1FA239B0032000021A5489A
:1057380001F038F9012806D0A948FDF721FFA4484F
:10574800FDF7EAFEBCE700219E4801F0A5F8431CDE
:1057580006D0A448FDF714FF9D48FDF7DDFEAFE72E
:10576800A148FDF70DFF9A48FDF7D6FEA8E73D30A2
:1057780001F036F9FA239B002D220021924801F00E
:1057880011F9012806D09948FDF7FAFE9048FDF76F
:10579800C3FE9BE700218C4801F07EF8431C06D02D
:1057A8009348FDF7EDFE8A48FDF7B6FE8EE791486F
:1057B800FDF7E6FE8648FDF7AFFE87E700258BE795
:1057C800FA239B00C8220821824801F0EBF889E7F8
:1057D80000217C4801F060F8002802D10023984697
:1057E80088E70021774801F057F8C3B2984681E767
:1057F800814C824B2193210010318422684604F0A9
:10580800C5FC20686168A268E36800F03DFD0400FB
:1058180000216D4801F040F802904346019300943E
:10582800774B784A78496D4804F016FD69E7774C5C
:10583800774B2193210010318422684604F0A6FC9E
:1058480020686168A268E36800F038FB0400002162
:105858005D4801F021F80290434601930094684B9B
:10586800684A69495D4804F0F7FC4AE70021564850
:1058780001F012F8674B186060E0323002F02CFC3F
:105888002021654802F0B0FA00285DD12021624845
:1058980002F0AAFA0128F3D16048FDF771FE53E03F
:1058A8005F48FDF76DFE4A48FDF736FE5D4B002266
:1058B8001A7053E0022B5BD1FA2149005448FDF7D6
:1058C80079FA040054E0FDF7A9FE574B1B78002B2A
:1058D80000D1CFE2554E300003F060FDFEF742F9EB
:1058E800FA2149005248FDF747FDFA21C9003B4813
:1058F800FDF742FD4F495048FDF73EFD02214F4854
:10590800FDF73AFD80210023012289014C4801F06E
:10591800C8F8FA2002F0E0FB300003F007FD424B24
:1059280000221A70FA2149004148FDF725FDFDF7CC
:10593800A1FD00289AD0374B0A221A602021364848
:1059480002F052FA002898D03E4B96221A7043462D
:10595800002B03D1334B1B78012BA1D01E4B1B7896
:10596800002BA7D1FA2149002448FDF723FA0400A7
:10597800002C09D0344B1B685A6A052AF8D9002232
:105988005A62314803F0BCFC0A2C9ED8A3002F4A67
:10599800D3589F46FA2149002548FDF7EDFC0E4BE8
:1059A8001E78002E06D12A49144804F08BFC851D68
:1059B800002353E0022EFBD12549154804F082FC50
:1059C800851DF5E700F8010800E00108B0BB0008F4
:1059D80090B6000800F00108C4190020040A00204D
:1059E80088BE00083CBE000860BE000894BB0008E2
:1059F80050BB000870BB000898180020D811002080
:105A0800ACBE0008D8B60008B4BE00082C190020A7
:105A1800D4130020C01900200004005010BF000853
:105A280018BF0008010A0020F10200206C170020AE
:105A3800F402002014050000EC040020A40000205B
:105A480000080050A0000020B817002084C00008FB
:105A5800D0BD0008DE49CA5401339BB2FA22520075
:105A6800934206D2EA5C0D2A03D00A2A01D0002A02
:105A7800F0D1002E3BD0022E3FD0FA214900D54864
:105A8800FDF77AFCFA21D44EC9003000FDF774FC0A
:105A9800CF4F3100380001F085F83800FAF72CFBB9
:105AA8004108C9B2300001F015F806003800FAF7CD
:105AB80023FBC30701D4002E25D1C848FDF760FD9C
:105AC800C748FDF729FDFA2676003100C148FDF7E1
