:020000040800F2
:100000000090002079660008073D0008093D0008BF
:1000100000000000000000000000000000000000E0
:100020000000000000000000000000000B3D000880
:1000300000000000000000000D3D00080F3D00081A
:10004000C966000800000000C9660008173D0008E6
:100050001F3D0008C9660008C9660008C966000897
:1000600000000000C9660008C9660008C9660008EB
:10007000C9660008213D0008313D0008000000006D
:10008000413D0008513D0008C9660008C9660008E6
:10009000613D0008C9660008C9660008C966000815
:1000A000C9660008C9660008C9660008713D0008F5
:0800B000813D0008913D0008AC
:1000B80010B5064C2378002B07D1054B002B02D036
:1000C800044800E000BF0123237010BD7400002025
:1000D80000000000B8710008044B10B5002B03D0D5
:1000E8000349044800E000BF10BDC04600000000FE
:1000F80078000020B87100080023C25C0133002A90
:10010800FBD1581E7047000003B4714649084000EF
:100118004900095E49008E4403BC70470022430829
:100128008B4274D303098B425FD3030A8B4244D3B7
:10013800030B8B4228D3030C8B420DD3FF220902F9
:1001480012BA030C8B4202D31212090265D0030BB8
:100158008B4219D300E0090AC30B8B4201D3CB03AE
:10016800C01A5241830B8B4201D38B03C01A5241F0
:10017800430B8B4201D34B03C01A5241030B8B42F2
:1001880001D30B03C01A5241C30A8B4201D3CB02DD
:10019800C01A5241830A8B4201D38B02C01A5241C2
:1001A800430A8B4201D34B02C01A5241030A8B42C5
:1001B80001D30B02C01A5241CDD2C3098B4201D3DD
:1001C800CB01C01A524183098B4201D38B01C01A5B
:1001D800524143098B4201D34B01C01A52410309D2
:1001E8008B4201D30B01C01A5241C3088B4201D381
:1001F800CB00C01A524183088B4201D38B00C01A2E
:10020800524143088B4201D34B00C01A5241411A54
:1002180000D20146524110467047FFE701B5002061
:1002280000F0F0F802BDC0460029F7D076E7704725
:1002380003460B437FD4002243088B4274D303093F
:100248008B425FD3030A8B4244D3030B8B4228D3E0
:10025800030C8B420DD3FF22090212BA030C8B4206
:1002680002D31212090265D0030B8B4219D300E0A6
:10027800090AC30B8B4201D3CB03C01A5241830B2B
:100288008B4201D38B03C01A5241430B8B4201D3DB
:100298004B03C01A5241030B8B4201D30B03C01A04
:1002A8005241C30A8B4201D3CB02C01A5241830A7E
:1002B8008B4201D38B02C01A5241430A8B4201D3AD
:1002C8004B02C01A5241030A8B4201D30B02C01AD7
:1002D8005241CDD2C3098B4201D3CB01C01A52413E
:1002E80083098B4201D38B01C01A524143098B42C7
:1002F80001D34B01C01A524103098B4201D30B01B0
:10030800C01A5241C3088B4201D3CB00C01A5241D4
:1003180083088B4201D38B00C01A524143088B4299
:1003280001D34B00C01A5241411A00D20146524132
:10033800104670475DE0CA0F00D04942031000D351
:100348004042534000229C4603098B422DD3030AA6
:100358008B4212D3FC22890112BA030A8B420CD3B6
:10036800890192118B4208D3890192118B4204D3DF
:1003780089013AD0921100E08909C3098B4201D35F
:10038800CB01C01A524183098B4201D38B01C01A99
:10039800524143098B4201D34B01C01A5241030910
:1003A8008B4201D30B01C01A5241C3088B4201D3BF
:1003B800CB00C01A524183088B4201D38B00C01A6C
:1003C8005241D9D243088B4201D34B00C01A524143
:1003D800411A00D20146634652415B10104601D3D0
:1003E8004042002B00D54942704763465B1000D35A
:1003F800404201B5002000F005F802BD0029F8D000
:1004080016E770477047C046F0B5DE4657464E4679
:100418004546E0B589B01422002103A806F085F905
:10042800414B596B042211435963596B0A4000929E
:10043800009A5A6B012422435A635A6B2240019254
:10044800019A5A6B022632435A635B6B334002931C
:10045800029B8027BF01354B9846002239001800BF
:1004680004F04DFCA023DB059946002280211800EA
:1004780004F045FCE0235B019B462D4D0122190049
:10048800280004F03CFC8A239B019A4600221900AC
:10049800280004F034FC0397049405960027069777
:1004A80003A9404604F068FB1023039304970596BC
:1004B80003A9484604F060FB80230393049405963F
:1004C8007D3B9846069303A9484604F055FB5B46D6
:1004D8000393049405944346069303A9280004F063
:1004E8004BFB53460393049405964346069303A98E
:1004F800280004F041FB84235B00039304970594D0
:1005080003A9280004F038FB2023039304970597D8
:1005180003A9280004F030FB09B0F0BCBB46B24682
:10052800A946A046F0BDC046001002400008005091
:100538000004005070B50400244B02689A4204D0AD
:100548002268234B9A421DD070BD224805F028FE30
:10055800214D01222900214805F01EFD20490A8865
:10056800531C9BB20B8028781E498854FA225200EB
:10057800934202D31A4B00221A80164B1B680022A2
:100588005A62DDE7184805F00BFE184C01222100DD
:10059800174805F001FD2378002B02D1134B4022A8
:1005A8001A7014490A88531C9BB20B800F490878AB
:1005B80011498854FA225200934202D30D4B00226B
:1005C8001A80094B1B6800225A62BDE700380140B7
:1005D80000440040B4140020DA04002098150020DC
:1005E800D8040020E40200204C150020D206002088
:1005F8002C160020D0060020DC04002030B5A3B063
:100608000400464B02689A4205D02268444B9A423D
:100618003CD023B030BD434A13780133DBB21370AA
:10062800414A1268934205D9404B01221A703D4B4A
:1006380000221A70802149003D4804F059FB002827
:1006480006D13C4A13780133DBB21370032B0DD06B
:10065800394A13780133DBB21370F02BD5D1374BFD
:1006680001221A70344B00221A70CEE7344D29004B
:1006780010318422684606F04FF828686968AA682D
:10068800EB6802F0BDFD04F02FFCE1E72D4A13787A
:100698000133DBB213702C4A127893421ED02B4BD5
:1006A8001B782B4A1278934204D0284B1A70294B96
:1006B8000021197027490B780133DBB20B709A427D
:1006C800A7D1002A1BD0052A20D08021490118482B
:1006D80004F01BFB1F4B00221A709AE7002A08D16E
:1006E80080210901124804F00AFB164B00221A70F7
:1006F800D5E7802109010E4804F007FBF5E78021C2
:10070800013249010A4804F0FAFAE3E7802100229D
:100718004901074804F0F3FADCE7C046000400404A
:10072800002C0140E002002054170020E1020020C4
:100738000004005090000020E80B0020E90B002086
:10074800C0160020BD130020BE130020D3060020D1
:1007580091000020BC13002030B5002428E20519C0
:100768006D78442D00D02AE2092088E285186D783A
:100778004F2D00D026E28518AD78532D00D021E208
:100788008518ED78542D00D01CE2072077E28518F3
:100798006D784F2D00D018E28518AD78522D00D015
:1007A80013E28518ED78542D00D00EE2082066E299
:1007B80085186D78522D00D00AE28518AD78452D40
:1007C80000D005E28518ED78412D00D000E28518AB
:1007D8002D794B2D00D0FBE1022050E285186D7871
:1007E800532D00D0F7E18518AD78342D00D0F2E113
:1007F8008518ED78382D00D0EDE185182D79352D47
:1008080000D0E8E103203AE285186D78492D00D040
:10081800E4E18518AD784D2D00D0DFE18518ED783D
:10082800452D00D0DAE185182D79432D00D0D5E18A
:1008380085186D79322D00D0D0E18518AD79432D1A
:1008480000D0CBE106201AE285186D78452D00D03E
:10085800C7E18518AD78532D00D0C2E18518ED7831
:10086800542D00D0BDE185182D79412D00D0B8E177
:1008780085186D79522D00D0B3E18518AD79542DC6
:1008880000D0AEE10120FAE185186D784E2D00D038
:10089800AAE18518AD78542D00D0A5E18518ED782A
:1008A800452D00D0A0E185182D79522D00D09BE16F
:1008B80085186D79562D00D096E18518AD79412DB2
:1008C80000D091E18518ED794C2D00D08CE1042001
:1008D800D5E185186D78412D00D088E18518AD786F
:1008E800552D00D083E18518ED78442D00D07EE1A8
:1008F80085182D79522D00D079E185186D79412D13
:1009080000D074E18518AD79542D00D06FE18518B9
:10091800ED79452D00D06AE10520B0E185186D78A4
:10092800532D00D066E18518AD78452D00D061E1E2
:100938008518ED78522D00D05CE185182D794E2D63
:1009480000D057E185186D79412D00D052E1851806
:10095800AD794D2D00D04DE18518ED79452D00D0AC
:1009680048E10A208BE185186D78412D00D044E1DB
:100978008518AD78532D00D03FE18518ED78532DBB
:1009880000D03AE185182D79572D00D035E185182A
:100998006D794F2D00D030E18518AD79522D00D0FA
:1009A8002BE18518ED79442D00D026E10B2066E176
:1009B80085186D784F2D00D022E18518AD78502D1F
:1009C80000D01DE18518ED78492D00D018E1851873
:1009D8002D79432D00D013E185186D79532D00D062
:1009E8000EE18518AD79552D00D009E18518ED790E
:1009F800422D00D004E10C2041E185186D784F2D7F
:100A080000D000E18518AD78502D00D0FBE08518A6
:100A1800ED78492D00D0F6E085182D79432D00D0CA
:100A2800F1E085186D79502D00D0ECE08518AD798E
:100A3800552D00D0E7E08518ED79422D00D0E2E091
:100A48000D201CE185186D78462D00D0DEE0851854
:100A5800AD78472D00D0D9E08518ED785F2D00D00E
:100A6800D4E085182D79522D00D0CFE085186D7906
:100A7800532D00D0CAE08518AD79342D00D0C5E0DB
:100A88008518ED79382D00D0C0E085182D7A352DE0
:100A980000D0BBE00E20F2E085186D78462D00D01E
:100AA800B7E08518AD78472D00D0B2E08518ED780D
:100AB8005F2D00D0ADE085182D79422D00D0A8E03B
:100AC80085186D79522D00D0A3E08518AD794F2D8A
:100AD80000D09EE08518ED794B2D00D099E085185F
:100AE8002D7A452D00D094E085186D7A522D00D0CE
:100AF8008FE01220C3E085186D78462D00D08BE07A
:100B08008518AD78472D00D086E08518ED785F2DE3
:100B180000D081E085182D79542D7DD185186D7907
:100B2800492D79D18518AD794D2D75D18518ED7977
:100B3800452D71D185182D7A432D6DD185186D7A83
:100B4800322D69D18518AD7A432D65D1112096E0F3
:100B580085186D78462D61D18518AD78472D5DD102
:100B68008518ED785F2D59D185182D79492D55D1E6
:100B780085186D794E2D51D18518AD79542D4DD1EB
:100B88008518ED79452D49D185182D7A522D45D1F5
:100B980085186D7A562D41D18518AD7A412D3DD1F4
:100BA8008518ED7A4C2D39D10F2068E00134A4B2B4
:100BB8008C4263D22200035D492B00D1CFE5482B3C
:100BC80000D1D3E5502B00D1E1E5422B00D1EFE570
:100BD800522B00D102E6542B00D115E6522B00D13E
:100BE80032E6492B00D14FE6422B00D171E6552B56
:100BF80000D193E6502B00D1B5E6542B00D1D7E6AF
:100C0800542B00D1F9E6432B00D11BE7432B00D12D
:100C180042E7432B00D16EE7432B99D0432BC5D134
:100C280083185B78462BC1D183189B78472BBDD19D
:100C38008318DB785F2BB9D183181B79422BB5D188
:100C480083185B79412BB1D183189B79552BADD192
:100C58008318DB79442BA9D183181B7A522BA5D191
:100C680083185B7A412BA1D183189B7A542B9DD191
:100C78008218D37A452B99D1102000E0002030BD8E
:100C880030B500227EE085186D784D2D00D080E0CB
:100C98008518AD78442D7CD18518ED783F2D78D115
:100CA80003209DE005196D78492D74D10519AD789B
:100CB8004E2D70D10519ED78472D6CD102208FE0AB
:100CC80005196D78532D68D10519AD78342D64D187
:100CD8000519ED78382D60D105192D79352D5CD1A0
:100CE80001207DE005196D78452D58D10519AD789D
:100CF800532D54D10519ED78542D50D105192D795E
:100D0800412D4CD105196D79522D48D10519AD7970
:100D1800542D44D1042063E005196D78452D40D148
:100D28000519AD784C2D3CD10519ED78412D38D1F8
:100D380005192D79592D34D105196D792D2D30D1FD
:100D48000519AD79312D2CD1062049E005196D78AA
:100D5800452D28D10519AD784C2D24D10519ED78EC
:100D6800412D20D105192D79592D1CD105196D79E1
:100D78002D2D18D10519AD79302D14D105202FE06E
:100D8800013292B28A422AD21400835C432B00D1EA
:100D980079E7502B86D0522B92D0522BA2D0522BCF
:100DA800BAD0522BD2D0432BEAD103195B784F2B00
:100DB800E6D103199B784E2BE2D10319DB78462B39
:100DC800DED103191B79492BDAD103195B79522B30
:100DD800D6D10419A3794D2BD2D1072000E00020E9
:100DE80030BD0000F0B5DE4657464E464546E0B5F4
:100DF8009BB006008846002301936022002102A8C8
:100E080005F093FC00241AE16B784E2B00D01EE10C
:100E1800AB78542B00D01AE1EB78452B00D016E1C3
:100E28002B79522B00D012E16B79562B00D00EE1B2
:100E3800AB79412B00D00AE1EB794C2B00D006E1CD
:100E48002B7A3D2B00D030E1A149300005F0ACFCF5
:100E580009239A4682449F4B1B78012B2BD0022BE7
:100E680000D0F4E0002399464B46632B00D9EEE00E
:100E780053464A469B5C0D2B00D1E8E00A2B00D173
:100E8800E5E02B2B00D1E2E001AA494653540023A8
:100E98009B4601A8FFF730F9834522D201AB5A4699
:100EA8009B5C303BDBB2092B00D902E15B46013386
:100EB800DBB29B46EDE7002399465046FFF71CF945
:100EC8000238814500D3C2E053464A469B5C303B1A
:100ED800DBB2092B00D9EAE04B460133DBB2994675
:100EE800EBE74B460133DBB29946BDE7F3195B7874
:100EF800412B00D0AFE0F3199B78552B00D0AAE026
:100F0800F319DB78442B00D0A5E0F3191B79522B99
:100F180000D0A0E0F3195B79412B00D09BE0F319D6
:100F28009B79542B00D096E0F319DB79452B00D040
:100F380091E0F3191B7A3D2B00D0BCE066493000E4
:100F480005F032FC09239A4682440023994650460C
:100F5800FFF7D2F8023881457DD253464A469B5C5A
:100F6800303BDBB2092B00D9A7E04B460133DBB29B
:100F78009946ECE7F3195B784D2B6ED1F3199B7802
:100F8800442B6AD1F319DB78532B66D1F3191B79FB
:100F9800452B62D1F3195B794E2B5ED1F3199B79FE
:100FA800442B5AD1F319DB793D2B00D087E04B490C
:100FB800300005F0F9FB08239A468244002399463D
:100FC8005046FFF799F80238814546D253464A46BB
:100FD8009B5C303BDBB2092B00D972E04B460133F6
:100FE800DBB29946ECE7F3195B784F2B37D1F3194D
:100FF8009B78522B33D1F319DB78542B2FD1F3196B
:101008001B793A2B2BD13649300005F0CDFB431D17
:101018009A46002399465046FFF76EF802388145F4
:101028001DD253464A469B5C303BDBB2092B4AD85B
:101038004B460133DBB29946EDE70134A4B244458F
:101048002BD227003519335D492B00D1DCE62D78EA
:10105800422D00D14AE7432D8CD0502DC3D0492DC5
:10106800EBD1F3195B78442BE7D1F719BB783A2B0E
:10107800E3D11C49300005F097FBC71C0025380058
:10108800FFF73AF802388542D7D27B5D303BDBB2B6
:10109800092B1AD80135EDB2F1E701201BB0F0BCDD
:1010A800BB46B246A946A046F0BD0020F6E70020A0
:1010B800F4E70020F2E70020F0E70020EEE7002048
:1010C800ECE70020EAE70020E8E70020E6E7C04672
:1010D80008720008581700201472000820720008CF
:1010E800287200083072000830B5A3B00500114B13
:1010F8000A221A70104C210010317A32684605F025
:101108000BFB20686168A268E36802F08DF90B495F
:101118000B4805F049FB002809D1FA30C00003F05C
:101128005FFF013DADB2002DE1D1002000E00120BC
:1011380023B030BDBE1300202C16002034720008E6
:10114800DC04002010B50C4B984204D00B4B98429D
:1011580005D000230CE00A4B00221A80F6E7094B61
:1011680000221A80F5E7C2180024147001339BB2DC
:101178008B42F8D310BDC046DC040020E4020020F6
:10118800D0060020D804002010B50400114B1B78AD
:10119800012B02D0022B0ED010BD0F4A02F01AF814
:1011A800002802D103F0A0FEF6E7FA21490020004A
:1011B800FFF7C8FFF0E7084A02F0F2F8002802D16A
:1011C80003F092FEE8E7FA2149002000FFF7BAFF92
:1011D800E2E7C0465817002010270000F0B5A5B078
:1011E80004001F4B1B78012B03D0022B14D025B011
:1011F800F0BD1C4D23901C4B22931C4B21932900BE
:1012080010318422684605F087FA28686968AA6858
:10121800EB6802F081F8EAE7154D2E0010368422BB
:101228003100684605F078FA28686968AA68EB68AA
:1012380002F0FAF80D4F0F493800FFF7A5FF239485
:10124800094B2293219784223100684605F064FAFD
:1012580028686968AA68EB6802F08CFAC7E7C04694
:1012680058170020C016002049140020DC04002074
:101278002C1600203472000810B50548FFF7AEFFA1
:1012880004490548FFF780FF03F02EFE10BDC04655
:101298004872000844720008DC04002070B506009B
:1012A8000D00140006E0012003F09AFE013CA4B2F0
:1012B800002C1CD0144B1B685A6A052AF3D900224B
:1012C8005A62114804F0A0FF29003000FFF744FAE1
:1012D8000E280ED00F280ED010280ED011280ED0B0
:1012E80012280ED00128DED1FFF7C6FFDBE7062063
:1012F80070BD0120FCE70320FAE70420F8E702208C
:10130800F6E70520F4E7C0464C15002030B5A3B039
:101318001B4C2500103584222900684605F0FCF98D
:1013280020686168A268E36802F094F8154803F041
:1013380057FE0023219384222900684605F0ECF922
:1013480020686168A268E36802F0A4F80E490F48B3
:10135800FFF71AFF0520FFF7C7FE002809D1FFF79E
:101368008BFF0B4B00221A70642003F039FE23B068
:1013780030BDFA2149000548FFF7E4FEF1E7C04611
:101388002C160020204E000044720008DC040020C7
:10139800BE13002070B5A4B01C4B1B78012B03D0E2
:1013A800022B11D024B070BD194C1A4B2193210087
:1013B80010318422684605F0AFF920686168A26898
:1013C800E36801F08BFFEDE7134C2500103584220C
:1013D8002900684605F0A0F920686168A268E368FA
:1013E80002F022F80D4E0E493000FFF7CDFE094BF2
:1013F8002293219684222900684605F08DF92068F9
:101408006168A268E36802F039F9CBE75817002051
:10141800C01600202B1400202C160020DC0400200D
:1014280034720008F0B5C64600B5A6B004000D0039
:101438000021E74802F06EFA431C31D1012C00D19B
:10144800A9E0022C00D1D1E0002C00D086E0E14CCC
:10145800E14B220043CB43C243CB43C21B881380DA
:10146800DE4BE383200039300622DD4905F054F9CC
:10147800200052300922DB4905F04EF9DA4B1A6890
:1014880022629B88A38420006B301122D74905F083
:1014980043F9200089301222D54905F03DF95DE075
:1014A800D44F0021380002F035FA0200D24CD3495B
:1014B800200005F043F9D24E1923984601932300E2
:1014C80019330093022332000021CE4802F0E2FAD9
:1014D80002213000FFF736FECB4E4346019323002E
:1014E80032330093022332000021C84802F0D2FAB6
:1014F80002213000FFF726FEC54B98461E260196AE
:10150800203C0094072342460021C24802F0C2FA58
:1015180007214046FFF716FE0821380002F0FAF9C5
:10152800E083BD4F019623008933009305233A00D9
:101538000021BA4802F0AEFA05213800FFF702FE92
:10154800B74F01966B34009404233A000021B54844
:1015580002F0A0FA04213800FFF7F4FD012D00D1B4
:101568006BE0022D00D1AFE0AF48FFF737FEAF4D7B
:10157800AF4C29002000FFF707FEFA20400003F0D7
:101588002FFDFFF707FF29002000FFF7FDFD26B01C
:1015980080BCB846F0BD8F4CA64B220043CB43C25B
:1015A80003CB03C2198811809B789370A24BE38305
:1015B800200039300722A14905F0AEF8200052304A
:1015C8000C229F4905F0A8F8874B1A6822629B886D
:1015D800A38420006B301122844905F09DF8200077
:1015E80089301222824905F097F8B7E7794C954B74
:1015F800220043CB43C21B7813708F4BE383200038
:1016080039300D22904905F087F8200052300D221C
:101618008E4905F081F8744B1A6822629B88A3846E
:1016280020006B301122714905F076F820008930CE
:1016380012226F4905F070F890E7854C27001037A3
:1016480084223900684605F067F820686168A26856
:10165800E36801F02DFE764E7E493000FFF794FDD9
:101668007D4D23952B00193B22932B00323B219370
:1016780084223900684605F04FF820686168A2683E
:10168800E36801F0D3FD694B984619003000FFF775
:101698007BFD642003F0A4FC523DEB8B2293219543
:1016A80084223900684605F037F820686168A26826
:1016B800E36801F0DDFD41463000FFF765FDFA20E3
:1016C800400003F08DFC4FE7644C654B22930127E3
:1016D80021972600103684223100684605F01CF850
:1016E80020686168A268E36801F0F8FE4F4B9846ED
:1016F8004F4D19002800FFF747FD229721978422B4
:101708003100684605F008F820686168A268E36857
:1017180001F004FF41462800FFF736FD842231001E
:10172800684604F0F9FF20686168A268E36801F080
:1017380085FF484F39002800FFF726FD8422310035
:10174800684604F0E9FF20686168A268E36801F070
:101758001DFF39002800FFF717FD84223100684675
:1017680004F0DAFF20686168A268E36801F0F8FE17
:101778003C492800FFF708FD1F4F219784223100BC
:10178800684604F0C9FF20686168A268E36801F050
:1017980013FF41462800FFF7F7FC3B003233249340
:1017A8003B0019332393203FFB8B229321978422FC
:1017B8003100684604F0B0FF20686168A268E368F9
:1017C80001F018FF28492800FFF7DEFCCCE6C046E8
:1017D80000D80108C01300205C7200085C070000F4
:1017E80078720008807200088C72000894720008F1
:1017F800A872000840D80108E01300207C7A00088D
:10180800E400002050D80108B800002060D8010882
:101818009C00002010D80108C000002080D80108D2
:10182800D400002070D801084473000844720008EE
:10183800DC040020BC7200085B070000D4720008BA
:10184800DC720008E8720008F872000808730008E3
:10185800C016002018730008121400202C1600204F
:1018680020730008247300083473000810B5082199
:10187800034803F03DFA012800D0002010BDC046FF
:101888000004005010B5FFF7F1FF002803D0064808
:10189800FFF7A4FC10BDFFF7E9FF0028FAD10348C1
:1018A800FFF79CFCF6E7C046607300086873000801
:1018B80072B6FEE700B589B01022002104A804F032
:1018C80034FF0C22002101A804F02FFF1648174B03
:1018D8000360FA235B014360002383600922C2602E
:1018E800036143618033836104F002FE002814D150
:1018F80080235B01049304A90B4804F035FE0028FB
:101908000DD1002301930293039301A9064802F025
:101918008DFB002805D109B000BDFFF7C9FFFFF70F
:10192800C7FFFFF7C5FFC04668140020002C014020
:1019380000B589B01022002104A804F0F6FE0C229C
:10194800002101A804F0F1FE1548164B0360FA23A4
:101958009B01436000238360134AC26003618033A4
:10196800836104F0C5FD002813D180235B01049333
:1019780004A90B4804F0F8FD00280CD100230193BA
:10198800039301A9064802F051FB002805D109B0CC
:1019980000BDFFF78DFFFFF78BFFFFF789FFC046FC
:1019A8000015002000040040E703000010B51748A8
:1019B800174B036096239B01436000238360C36039
:1019C80003610C2242618361C361036243628362E3
:1019D80004F0F8F9002811D100210C4804F05AFB52
:1019E80000280DD10021094804F07AFB002809D10C
:1019F800064804F02FFB002806D110BDFFF758FF5A
:101A0800FFF756FFFFF754FFFFF752FF9815002026
:101A18000038014010B51748174B0360E1235B02FB
:101A2800436000238360C36003610C2242618361C9
:101A3800C36103624362836204F0C4F9002811D1D0
:101A480000210C4804F026FB00280DD1002109488C
:101A580004F046FB002809D1064804F0FBFA0028E8
:101A680006D110BDFFF724FFFFF722FFFFF720FF85
:101A7800FFF71EFF2C1600200044004010B50C484C
:101A88000C4B0360E1235B02436000238360C36067
:101A980003610C2242618361C36103624362836212
:101AA80004F090F9002800D110BDFFF701FFC046EF
:101AB800C01600200048004000B589B0102200215F
:101AC80004A804F032FE0C22002101A804F02DFE27
:101AD8001548164B0360FA239B014360002383607B
:101AE8000922C260036143618033836104F000FD11
:101AF800002813D180235B01049304A90A4804F049
:101B080033FD00280CD100230193039301A9064853
:101B180002F08CFA002805D109B000BDFFF7C8FE15
:101B2800FFF7C6FEFFF7C4FEB414002000400140D2
:101B380000B585B00C22002101A804F0F6FD0F487D
:101B48000F4B0360FA239B01436000238360093332
:101B5800C3607733836104F0CBFC00280AD10023EB
:101B68000193039301A9054802F060FA002803D104
:101B780005B000BDFFF79CFEFFF79AFE4C1500204C
:101B88000010004000B593B03422002105A804F0ED
:101B9800CCFD1022002101A804F0C7FD80208000A0
:101BA80003F03CF902230593FE33089300230993BD
:101BB80040220A920C9305A802F078FA00280DD169
:101BC800072301930023029303930493002101A8A0
:101BD80002F01AFD002803D113B000BDFFF768FE1C
:101BE800FFF766FEF0B5DE4657464E464546E0B579
:101BF800BDB003F0CFF9FFF7C5FF0021DA4801F0C7
:101C080089FE431C52D1FEF7FFFBFFF753FEFFF797
:101C18008FFEFFF7CBFEFFF7FDFEFFF72FFFFFF765
:101C28004BFFFFF785FF0122D049D14804F0B4F9F2
:101C38000122D049D04804F0AFF9D04804F0FAFAAC
:101C4800CF4804F0F7FA642003F0CAF9CD4C022318
:101C58002370FFF75BFB21780020FFF7E3FB80216F
:101C68000022C900C84803F04AF8FA256D00C74C9D
:101C780029002000FFF766FAFA2252012900200005
:101C8800FFF70CFB052818D0032800D1CAE3022867
:101C980001D100F0C7FC042801D100F0D7FD0128CC
:101CA80001D100F0ADFE0628DFD1FEE20021AE48EA
:101CB80001F030FEB64B1860A5E7363001F0CEFED5
:101CC800B44CB54B220023CB23C223CB23C21B88A1
:101CD80013802000FFF782FAAC4DB0492800FFF7C7
:101CE80053FAFA26760031002000FFF72BFA642019
:101CF80003F076F931002800FFF724FAD73EFF3EBB
:101D080051E0A749A14804F04FFD05300023C25C0B
:101D18000D2A08D00A2A06D0002A04D09D49CA54A0
:101D28000133DBB2F3E7FA2149009848FFF70AFAD2
:101D3800FA219C4CC9002000FFF704FA9A4D9B49F0
:101D48002800FFF7FFF92900924801F051FF210010
:101D5800280001F065FFFA2292002100944801F062
:101D6800DEFD01283BD09348FFF738FA8B498748B6
:101D7800FFF70AFAFA2149008648FFF7E3F9FA243F
:101D8800E40021008748FFF7DDF921008648FFF7C6
:101D9800D9F91E26FA20800003F022F9013EF6B296
:101DA800002E00D16DE2844B05221A70FA214900F9
:101DB8007648FEF7D1FC04000500002D09D07F4BC2
:101DC8001B685A6A052AF8D900225A627B4804F02F
:101DD8001BFA0D2DDED8A400794B1B599F46794874
:101DE800FFF7FCF96D496948FFF7CEF9C2E7FA2118
:101DF80049006648FEF7F6FF01280DD07248FFF744
:101E0800EDF966496148FFF7BFF9FA2149005F48D3
:101E1800FFF798F91E26BDE76C495C4804F0C4FC3E
:101E2800053004F04EFC0200FA239B0008216848A4
:101E380001F0F6FD012807D06648FFF7CFF95749AA
:101E48005248FFF7A1F9E0E76348FFF7C7F953499C
:101E58004E48FFF799F9D8E7FA2149004B48FEF7B1
:101E6800C1FF01280DD05D48FFF7B8F94B49474835
:101E7800FFF78AF9FA2149004448FFF763F91E265B
:101E880088E75749414804F08FFC033004F019FCF7
:101E98000200FA239B0000214D4801F0C1FD0128F2
:101EA80007D05048FFF79AF93C493848FFF76CF9D2
:101EB800E0E74D48FFF792F938493448FFF764F9ED
:101EC800D8E74A49314804F06FFC09300023C25C66
:101ED8000D2A08D00A2A06D0002A04D02D49CA544F
:101EE8000133DBB2F3E7FA2149002848FFF72AF962
:101EF800FA212C4CC9002000FFF724F92A4D2B4960
:101F08002800FFF71FF92900224801F071FE21007F
:101F1800280001F085FEFA2292002100344801F0E1
:101F2800FEFC012817D03348FFF758F91B4917481A
:101F3800FFF72AF9FA2149001648FFF703F9FA24AE
:101F4800E40021001748FFF7FDF821001648FFF7C5
:101F5800F9F81E261EE72848FFF740F90F490B48F5
:101F6800FFF712F9E6E7C04600E80108DA040020A6
:101F780098150020D20600202C1600206814002096
:101F8800001500205817002000040050DC04002031
:101F980000000020EC000020707300084472000864
:101FA8008C730008EC0B0020D406002014050000F8
:101FB80010D80108B0730008910000204C150020CB
:101FC800007B000894730008047400082872000855
:101FD80040D80108E8730008CC730008587400085A
:101FE800307200083C7400082474000878740008F3
:101FF80050D80108A474000884740008CB49CC4860
:1020080004F0D2FB09300023C25C0D2A08D00A2A4A
:1020180006D0002A04D0C749CA540133DBB2F3E71B
:10202800FA214900C248FFF78DF8FA21C24CC900CD
:102038002000FFF787F8C14DC1492800FFF782F853
:102048002900BC4801F0D4FD2100280001F0E8FD7A
:10205800FA2292002100BB4801F061FC012817D048
:10206800B948FFF7BBF8B949B148FFF78DF8FA212D
:102078004900B048FFF766F8FA24E4002100AE48AA
:10208800FFF760F82100AD48FFF75CF81E2681E6EF
:10209800AF48FFF7A3F8AD49A548FFF775F8E6E79D
:1020A800AC49A34804F080FB09300023C25C0D2A28
:1020B80008D00A2A06D0002A04D09E49CA540133FF
:1020C800DBB2F3E7FA2149009948FFF73BF8FA2118
:1020D800994CC9002000FFF735F8984D9849280019
:1020E800FFF730F82900934801F082FD210028000D
:1020F80001F096FDFA2292002100974801F00FFCAA
:10210800012817D09548FFF769F890498848FFF7E4
:102118003BF8FA2149008748FFF714F8FA24E4004D
:1021280021008548FFF70EF821008448FFF70AF8D8
:102138001E262FE68A48FFF751F884497C48FFF7A6
:1021480023F8E6E787497A4804F02EFB0930002394
:10215800C25C0D2A08D00A2A06D0002A04D0754984
:10216800CA540133DBB2F3E7FA2149007048FEF79D
:10217800E9FFFA21704CC9002000FEF7E3FF6F4D1C
:102188006F492800FEF7DEFF29006A4801F030FD9C
:102198002100280001F044FDFA2292002100724833
:1021A80001F0BDFB012817D07048FFF717F8674901
:1021B8005F48FEF7E9FFFA2149005E48FEF7C2FFD3
:1021C800FA24E40021005C48FEF7BCFF21005B48CC
:1021D800FEF7B8FF1E26DDE56548FEF7FFFF5B4901
:1021E8005348FEF7D1FFE6E70021624801F092FB71
:1021F800431C05D00821604801F08CFB431C09D121
:102208005E48FEF7EBFF51494948FEF7BDFF02F073
:102218006BFEBFE50021584801F07CFB431CEFD062
:102228000021574801F076FB431CE9D000214548BE
:1022380001F070FB431CE3D000214B4801F06AFB1E
:10224800431CDDD00021444801F064FB431CD7D077
:10225800FA239B00002211004A4801F0E1FB012803
:1022680007D04948FEF7BAFF38493148FEF78CFFD6
:10227800CDE74648FEF7B2FF34492D48FEF784FF04
:10228800C5E700213B4801F045FB431C06D0082167
:10229800394801F03FFB431C00D087E03748FEF780
:1022A8009DFF2A492248FEF76FFF0821384801F0B0
:1022B80031FB431C01D100F032FD0021354801F00B
:1022C80029FB431C01D000F033FD0026324C184F87
:1022D8002197210010318422684604F01DFA2068F5
:1022E8006168A268E36801F071F8050000212B48D5
:1022F80001F010FB104C029001960095284B294ADA
:102308002949200004F01AFA2000FEF767FF0F4958
:102318003800FEF739FFFA21C9002000FEF712FF46
:10232800FA20400002F05CFE00F0A6FDC47400082C
:10233800DC040020EC000020EC0B0020D406002078
:102348001405000060D80108F07400084472000801
:10235800D07400081075000870D80108407500088E
:102368001C7500086875000880D801089875000871
:102378007475000810D8010840D80108F8750008DD
:1023880050D8010800D80108E8750008C075000891
:1023980000F0010800F801082C16002000E00108F0
:1023A8001C7A00088C720008247A00080021C748AB
:1023B80001F0B0FA431C00D170E70021C44801F0D5
:1023C800A9FA431C00D169E70021C24801F0A2FA2A
:1023D800431C00D162E70021BF4801F09BFA431C6F
:1023E80000D15BE70021BD4801F094FA431C00D1FD
:1023F80054E7FA239B0000221100B94801F010FBB2
:10240800012807D0B748FEF7E9FEB749B748FEF7F5
:10241800BBFE4AE7B648FEF7E1FEB349B348FEF70C
:10242800B3FE42E7B34CB44B220023CB23C223CBE9
:1024380023C21B6813602000FEF7D0FEAB4DAA49EB
:102448002800FEF7A1FEFA26760031002000FEF7EC
:1024580079FE642002F0C4FD31002800FEF772FE08
:102468000027D73EFF3E0FE0042C33D023D9062C9B
:1024780026D8052C28D2FA20800002F0B1FD013EB2
:10248800F6B2002E00D195E09C4B05221A70FA2175
:1024980049009648FEF760F905000400002CE3D0D7
:1024A800974B1B685A6A052AF8D900225A62944841
:1024B80003F0AAFED8E7013DEDB2022DDBD803E018
:1024C8000E3DEDB2032DD6D8FA2149008748FEF714
:1024D80039FED0E7FA2149008448FEF783FC012839
:1024E8005BD18849814804F05FF90930864B1B7835
:1024F800012B09D0022B1DD0092F1DD996235B0073
:102508009F421AD93C2718E004F0DBF80700F3E7EC
:1025180023A9CA540133DBB2632B06D8C25C0D2A47
:1025280003D00A2A01D02B2AF2D123A804F0C9F833
:102538000700E1E70023EFE70A270021734801F0CD
:10254800E9F9431C05D00021704801F0E3F9431C68
:102558002AD03C2001F082FAFA239B003A0000219D
:102568006A4801F05DFA01281ED10021674801F090
:10257800D1F9431C09D06648FEF730FE5A495B483A
:10258800FEF702FE02F0B0FC0EE06248FEF726FEFF
:1025980055495648FEF7F8FD06E05F48FEF71EFE6F
:1025A80051495248FEF7F0FDFA2149004F48FEF71D
:1025B800C9FD60E70021554801F0ACF9431C07D07C
:1025C8005648FEF70BFE48494848FEF7DDFD6CE625
:1025D8003D3001F043FAFA239B002D2200214B489D
:1025E80001F01EFA012807D04D48FEF7F7FD3E49D5
:1025F8003E48FEF7C9FD58E60021444801F08AF933
:10260800431C07D04748FEF7E9FD37493748FEF72E
:10261800BBFD4AE64448FEF7E1FD33493348FEF77F
:10262800B3FD42E6334C414B220023CB23C223CBDC
:1026380023C223CB23C21B8813802000FEF7CEFDC4
:102648002A4D29492800FEF79FFDFA267600310019
:102658002000FEF777FD642002F0C2FC310028005C
:10266800FEF770FD1E250FE0062E61D023D90E3C23
:10267800E4B2032C23D9FA20800002F0B1FC013D1A
:10268800EDB2002D00D1A9E01C4B05221A70FA21E9
:1026980049001648FEF760F804000600002EE3D053
:1026A800174B1B685A6A052AF8D900225A6214483F
:1026B80003F0AAFDD8E7013CE4B2042CDBD8FA21E8
:1026C80049000A48FEF73EFDD5E7C04640D8010854
:1026D80050D8010860D8010880D8010870D80108CE
:1026E80000D80108E875000844720008DC040020DE
:1026F8001C760008EC0000204476000891000020B9
:102708004C150020087200085817002000E0010846
:102718006076000888760008A4760008207700080C
:1027280004770008C0760008E076000830770008D3
:10273800FA214900CF48FEF755FB01280CD0CE48B6
:10274800FEF74CFDCD49CB48FEF71EFDFA214900A6
:10275800C848FEF7F7FC8EE7C949C64804F024F8D4
:10276800083003F0AEFF0400C72806D9FA235B003F
:10277800984203D9FA24640000E0C8240021C14823
:1027880001F0C8F8431C05D00021BE4801F0C2F88A
:10279800431CDBD03E2001F061F9FA239B002200A4
:1027A8000021B84801F03CF90128CFD10021B548F3
:1027B80001F0B0F8431C09D0B348FEF70FFDAF494C
:1027C800AC48FEF7E1FC02F08FFBBFE7AF48FEF72D
:1027D80005FDAA49A748FEF7D7FCB7E70021A94895
:1027E80001F098F8431C07D0A948FEF7F7FCA34965
:1027F800A048FEF7C9FC58E53F3001F02FF9FA234D
:102808009B00C82200219F4801F00AF9012807D03F
:10281800A048FEF7E3FC99499648FEF7B5FC44E565
:102828000021984801F076F8431C07D09A48FEF733
:10283800D5FC92498F48FEF7A7FC36E59748FEF786
:10284800CDFC8E498B48FEF79FFC2EE5944C954BAA
:10285800220023CB23C223CB23C2196811601B7922
:1028680013712000FEF7BAFC824D84492800FEF758
:102878008BFCFA26760031002000FEF763FC64200A
:1028880002F0AEFB31002800FEF75CFCD73EFF3EAD
:102898000BE0013DEDB2032D27D9FA20800002F0AC
:1028A8009FFB013EF6B2002E71D07F4B05221A70B5
:1028B800FA2149006F48FDF74FFF05000400002C7E
:1028C80009D07A4B1B685A6A052AF8D900225A623D
:1028D800764803F099FC052C0DD0DAD9062C04D0E3
:1028E800DBD30E3DEDB2032DD7D8FA21490061485C
:1028F800FEF728FCD1E7FA2149005E48FEF772FA94
:1029080001280CD06A48FEF769FC5C495948FEF773
:102918003BFCFA2149005748FEF714FCBDE765491E
:10292800544803F041FF093003F0CBFE04000021B6
:10293800614800F0EFFF431C05D000215E4800F01D
:10294800E9FF431CE5D03D2001F088F8FA239B00FD
:1029580022000021584801F063F80128D9D100214C
:10296800554800F0D7FF431C09D05448FEF736FC01
:1029780042494048FEF708FC02F0B6FAC9E7504859
:10298800FEF72CFC3D493B48FEF7FEFBC1E7002162
:10299800494800F0BFFF431C07D03D48FEF71EFC26
:1029A80036493448FEF7F0FB7FE43E3001F056F834
:1029B800FA239B00434A126800213F4801F030F88F
:1029C800012807D04048FEF709FC2C492948FEF7A2
:1029D800DBFB6AE40021384800F09CFF431C07D069
:1029E8003A48FEF7FBFB25492248FEF7CDFB5CE49D
:1029F8003748FEF7F3FB21491E48FEF7C5FB54E4B0
:102A0800274C344B220023CB23C223CB23C2196883
:102A180011609B8893802000FEF7E0FB154D174955
:102A28002800FEF7B1FBFA26760031002000FEF7F9
:102A380089FB642002F0D4FA3F2001F00FF831003E
:102A48002800FEF77FFB002635001E239846E4E0A9
:102A58002149084803F0A8FE06300023C25C0D2A6D
:102A68003CD00A2A3AD0002A38D00D49CA5401333A
:102A7800DBB2F3E7DC040020A47700084472000806
:102A88002072000800F001085877000884770008D1
:102A98002077000814780008C8770008EC77000849
:102AA800EC00002038780008910000204C15002028
:102AB8009C7800081472000800E80108587800089B
:102AC800807800080000002000790008BC78000821
:102AD800DC7800082079000840790008FA214900CC
:102AE800AE48FEF72FFBFA21AD4CC9002000FEF7D7
:102AF80029FBAC4F2100380001F092F83800FDF7AF
:102B0800FBFA4108C9B2200001F022F8040038009D
:102B1800FDF7F2FAC30740D4002C3ED0312D28D857
:102B28000135EDB2FA239B009846220000219E4809
:102B38003718380000F074FF04004346984A08210B
:102B4800380000F02FFF0443E4B2012C07D0974867
:102B5800FEF744FB96499148FEF716FB24E0103631
:102B6800B6B29448FEF73AFB91498C48FEF70CFB45
:102B78001AE09148FEF732FB8D498848FEF704FBBE
:102B8800FA21C9008648FEF7DDFAFA21490085488E
:102B9800FEF7D8FA1E23984635E08848FEF71EFB54
:102BA80083497E48FEF7F0FAFA21C9007C48FEF70F
:102BB800C9FAFA2149007B48FEF7C4FA1E23984651
:102BC80021E0FA239B002A0000217D4800F028FF1D
:102BD800012809D07B48FEF701FB75496F48FEF7CD
:102BE800D3FA1E2398460EE07748FEF7F7FA7049A5
:102BF8006A48FEF7C9FA02F077F904E0FA214900B9
:102C08006648FEF79FFAFA20800002F0E9F9434689
:102C1800013BDBB29846002B1BD06C4B05221A7087
:102C2800FA2149005D48FDF797FD04000700002FD1
:102C380009D0674B1B685A6A052AF8D900225A62DC
:102C4800634803F0E1FA112FDDD8A400614B1B594A
:102C58009F4600215A4800F05DFE431C0ED000211B
:102C68005D4800F057FE431C2FD05C48FEF7B6FACB
:102C78004F494A48FEF788FAFFF717FBFA239B00EB
:102C88002A0000214E4800F0CBFE012807D0544806
:102C9800FEF7A4FA46494148FEF776FADFE7002135
:102CA800474800F037FE431C07D04E48FEF796FA17
:102CB8003F493A48FEF768FAD1E74B48FEF78EFAE3
:102CC8003B493648FEF760FAC9E73D3000F0C6FEDA
:102CD800FA239B002D2200213F4800F0A1FE012885
:102CE80007D04248FEF77AFA31492C48FEF74CFAE9
:102CF800BBE70021384800F00DFE431C07D03C48D4
:102D0800FEF76CFA2A492548FEF73EFAADE739483E
:102D1800FEF764FA26492148FEF736FAA5E7FA23B2
:102D28009B00C8220821344800F07AFEFFF7C5FA54
:102D38000021234800F0EEFD002802D10026FFF70D
:102D4800C5FA00211E4800F0E5FDC6B2FFF7BEFA3D
:102D58000021214800F0DEFD284B186094E0323055
:102D680002F03EF92021264801F0C2FF002800D0D9
:102D780091E02021224801F0BBFF0128F2D121482F
:102D8800FEF72CFA87E02048FEF728FA084903489E
:102D9800FEF7FAF91D4B00221A7086E0DC040020C9
:102DA800EC0B0020EC00002010F801086479000802
:102DB800447200084879000884790008947900086A
:102DC80000F80108E8750008C075000891000020A7
:102DD8004C150020387B000800E001082077000827
:102DE800F8790008AC790008D07900080477000861
:102DF800C0760008E076000800F0010854170020AB
:102E080000040050807A0008887A0008E90B002046
:102E1800FEF732FAD04B1B78002B00D191E1CF4C52
:102E2800200003F03FFAFEF72DFDFA214900CC48B7
:102E3800FEF788F9FA21C900CA48FEF783F9CA499A
:102E4800CA48FEF77FF90221C948FEF77BF98021BD
:102E5800002301228901C74800F061FEFA2002F030
:102E6800BFF8200003F0E6F9BB4B00221A70FA21E4
:102E78004900BB48FEF766F9FEF7F8FC002800D1C8
:102E880066E7BD4B0A221A602021BC4801F030FFDA
:102E9800002800D163E7BA4B96221A70002E04D19D
:102EA800B84B1B78012B00D16DE7FA214900B648D1
:102EB800FDF7E6FE04000500002D09D0B34B1B68A2
:102EC8005A6A052AF8D900225A62B04803F09CF9D8
:102ED800072D9FD8A400AE4B1B599F46FA214900E5
:102EE8009F48FEF72FF9AB49A74803F05DFC063071
:102EF8000023FA22520093420BD2C25C0D2A08D05A
:102F08000A2A06D0002A04D0A349CA5401339BB226
:102F1800EFE7FA24640021009148FEF713F9210035
:102F28009948FEF70FF9FA218E4DC9002800FEF7DF
:102F380009F9994C2900200000F072FE2000FDF7E5
:102F4800DBF84108C9B2280000F002FE05002000A5
:102F5800FDF7D2F8C30701D4002D1AD18F48FEF728
:102F68003DF98F498848FEF70FF9FA2464002100DB
:102F78007B48FEF7E7F8FA21C9007A48FEF7E2F83D
:102F880079497A48FEF7DEF821008348FEF7DAF837
:102F980040E77B4B0A221A707F48FDF7ADF84208DC
:102FA800FA2392B29B006F497E4802F059FEFA213B
:102FB80049006B48FEF7C6F8962464007A4B1B68F4
:102FC8005A6A052A07D8012002F00AF8013CA4B27F
:102FD800002CF3D104E000225A62734803F014F97C
:102FE800FA22FA21920049005D4800F0E5FD002828
:102FF80029D05D495D48FEF7A5F8FA21C90059486E
:10300800FEF7A0F8694B1978554800F0A1FD002893
:1030180010D0564D654B19882A00514800F04DFED6
:10302800504C2A006249200003F088FB2000FEF77C
:10303800D5F896E75F48FEF7D1F8FA2149004848E5
:10304800FEF780F88DE75C48FEF7C8F889E70021AD
:103058005A4800F05FFC82460300013B033301D865
:10306800002853D15648FEF7B9F84D494648FEF7AF
:103078008BF8CFE65B46E81800F04FFCA3003C4A0B
:10308800D0500435EDB20134E4B2012CF2D9103736
:10309800BFB2354B9B46354C19002000FEF752F85D
:1030A8004B4699B22200324800F007FE2D4D00949D
:1030B8002D23384A4349280003F040FB2800FEF737
:1030C8008DF837493048FEF75FF8FA21C900280023
:1030D800FEF738F859462000FEF734F8FA2149007F
:1030E8001F48FEF72FF843460133DBB29846D04518
:1030F80000D38FE6344B9B46BB440021584600F072
:1031080009FCC3B2994600240825BEE70023984667
:103118000027ECE7FEF7B6FB21491B48FEF734F819
:10312800FA21C9000F48FEF70DF873E62748FEF7A5
:1031380055F81B491448FEF727F8074B01221A7067
:1031480068E62349104803F02FFB002800D18EE6DB
:1031580001F0CAFE8BE6C046E102002000150020FF
:10316800E4020020EC0B002014050000D406002027
:10317800940000200008005054170020000400505C
:1031880091000020E90B0020DC0400204C150020F1
:10319800807B000840790008EC0000209479000842
:1031A8004472000898150020B4140020D8040020A8
:1031B800987A0008A47A0008B87A000800F801088C
:1031C800CC7A0008C47A000810F80108E47A0008EC
:1031D800F47A000870B506000D00140029003000CC
:1031E80003F0E2FA002808D1013001F0F9FE013CB1
:1031F800A4B2002CF2D1002000E0012070BD000034
:1032080084B010B5029003910492059364230C22B4
:10321800054902A802F024FD642001F0E1FE10BC7B
:1032280008BC04B01847C046A07B000884B000B5AD
:10323800CFB05090519152925393779B0093769BC5
:10324800759A0A4903A803F079FA03A8FCF754FF12
:1032580082B2642303A950A802F002FD642001F0A1
:10326800BFFE4FB008BC04B01847C046B07B00088A
:1032780084B000B5CDB04E904F915092519374AB3D
:103288001B88739A094901A803F058FA01A8FCF7AA
:1032980033FF82B2642301A94EA802F0E1FC642046
:1032A80001F09EFE4DB008BC04B01847DC7B000856
:1032B80084B010B502900391049205936423102200
:1032C800054902A802F0CCFC642001F089FE10BC7C
:1032D80008BC04B01847C046F87B000884B000B5A5
:1032E800B3B03490359136923793599A0949684664
:1032F80003F024FA6846FCF7FFFE82B264236946AD
:1033080034A802F0ADFC642001F06AFE33B008BCBA
:1033180004B018470C7C000884B070B59AB01E90B1
:103328001F9120922193439E459D2800FCF7E4FEBF
:103338000300449A194901A803F000FA01A8FCF710
:10334800DBFE82B2642301A91EA802F089FCC82012
:1033580001F046FEFA24E4003E21300003F00EFAA4
:10336800002809D1012001F03BFE013CA4B2002C49
:10337800F2D101F0B9FDEFE72800FCF7BDFE82B2FB
:10338800642329001EA802F06BFC642001F028FECB
:103398001AB070BC08BC04B01847C046247C0008AA
:1033A80070B506000D0014002900300003F0FCF988
:1033B800002808D1013001F013FE013CA4B2002C12
:1033C800F2D1002000E0012070BD000084B070B58B
:1033D800049005910692079364230822114904A8D2
:1033E80002F03EFCFA20800001F0FAFD3A2129980B
:1033F80003F0C4F9451C002402E033700134E4B240
:1034080026002800FCF778FE844202D22B5D2C2B84
:10341800F3D1002003F055F940B270BC08BC04B0E9
:103428001847C046447C000884B010B50290039148
:103438000492059364230A22054902A802F010FCAD
:10344800642001F0CDFD10BC08BC04B01847C0468C
:10345800507C000884B010B5029003910492059343
:103468000B4C64230B22210002A802F0F9FBFA207E
:10347800800001F0B5FD64230B22210002A802F0B0
:10348800EFFB642001F0ACFD10BC08BC04B0184789
:103498005C7C000884B010B50290039104920593F7
:1034A80027AB1B78002B0ED0012B05D163330622E6
:1034B800084902A802F0D4FB642001F091FD10BC79
:1034C80008BC04B0184764230622034902A802F086
:1034D800C7FBF1E7687C0008707C000884B000B581
:1034E8008BB00C900D910E920F9331AB1A78329BE2
:1034F8000949684603F022F96846FCF7FDFD82B2E7
:10350800642369460CA802F0ABFB642001F068FD57
:103518000BB008BC04B01847787C000884B000B52C
:1035280087B0089009910A920B932DAB1B782EAAAD
:1035380012780A4901A803F001F901A8FCF7DCFD9B
:1035480082B2642301A908A802F08AFB642001F072
:1035580047FD07B008BC04B01847C046947C000873
:1035680084B010B5029003910492059364230F224E
:10357800054902A802F074FB642001F031FD10BC7B
:1035880008BC04B01847C046A87C000884B010B531
:10359800029003910492059364230E22054902A820
:1035A80002F05EFB642001F01BFD10BC08BC04B0F7
:1035B8001847C046B87C000884B000B58FB010909A
:1035C800119112921393359A094901A803F0B6F89C
:1035D80001A8FCF791FD82B2642301A910A802F0AA
:1035E8003FFB642001F0FCFC0FB008BC04B0184796
:1035F800C87C000884B000B5CFB050905191529269
:10360800539376AB1B88789A0192779A0092759AB1
:10361800094903A803F092F803A8FCF76DFD82B2EC
:10362800642303A950A802F01BFB642001F0D8FC16
:103638004FB008BC04B01847E07C000884B010B54F
:10364800029003910492059364231422094902A865
:1036580002F006FB642001F0C3FC64230F22064934
:1036680002A802F0FDFA642001F0BAFC10BC08BC04
:1036780004B01847147D00082C7D000884B070B58C
:10368800B2B036903791389239935B9E5C9D280092
:10369800FCF732FD02003249684603F04FF86846ED
:1036A800FCF72AFD82B26423694636A802F0D8FAEC
:1036B800022001F095FCFA24E4003E21300003F0DA
:1036C8005DF8002809D1012001F08AFC013CA4B270
:1036D800002CF2D101F008FCEFE72800FCF70CFD04
:1036E80082B26423290036A802F0BAFA1D4A1E499C
:1036F8003000FFF755FE002801D0002307E001F055
:10370800F3FB06E000226946CA5401339BB2C72B7B
:10371800F8D9642001F064FC64230F22134936A809
:1037280002F09EFA022001F05BFC0E4A10493000BC
:10373800FFF736FE002801D0002307E001F0D4FB94
:1037480006E000226946CA5401339BB2C72BF8D958
:10375800642001F045FC32B070BC08BC04B01847C6
:103768003C7D00081027000044720008587D0008BE
:10377800687D000884B0F0B55F4CA544CE90CF9129
:10378800D092D193F39DF49FF59C3800FCF7B4FCDC
:1037980002005A49684602F0D1FF6846FCF7ACFCC3
:1037A80082B264236946CEA802F05AFA022001F0D8
:1037B80017FCFA26F6003E21280002F0DFFF002859
:1037C80009D1012001F00CFC013EB6B2002EF2D165
:1037D80001F08AFBEFE73800FCF78EFC82B2642325
:1037E8003900CEA802F03CFA454A46492800FFF7BE
:1037F800D7FD002801D0002307E001F075FB08E0A1
:1038080000226946CA5401339BB2C82292009342EF
:10381800F6D3642001F0E4FB2000FCF76DFC020005
:103828003949684602F08AFF6846FCF765FC82B2AF
:1038380064236946CEA802F013FA022001F0D0FBF7
:10384800FA26F6003E21280002F098FF002809D148
:10385800012001F0C5FB013EB6B2002EF2D101F005
:1038680043FBEFE72000FCF747FC82B2642321000A
:10387800CEA802F0F5F9224A22492800FFF790FD68
:10388800002801D0002307E001F02EFB08E0002209
:103898006946CA5401339BB2C82292009342F6D3B8
:1038A800642001F09DFB642314221849CEA802F07D
:1038B800D7F9022001F094FB114A15492800FFF7B7
:1038C8006FFD002801D0002307E001F00DFB08E0A0
:1038D80000226946CA5401339BB2C822920093421F
:1038E800F6D3642001F07CFBC9239B009D44F0BC07
:1038F80008BC04B01847C046DCFCFFFF747D000814
:1039080010270000447200088C7D0008A47D000880
:10391800BC7D000809180868704700687047F0B552
:10392800D6464F464646C0B582468946150001F040
:1039380085F800239846002706E0012001F050FB97
:10394800013DADB2002D21D03C014B461B191A6830
:103958005B68110019431DD04646564431000120CA
:1039680001F0C8F80028E8D108344C44226863689C
:1039780031000831013001F0BDF80028DDD143469F
:1039880010339BB298460137BFB2DDE701F06EF8FD
:10399800002002E001F06AF80120E0BCBA46B14616
:1039A800A846F0BDF8B507000D0016001C0010E091
:1039B8007368B2681343E9193268012001F09AF874
:1039C800002821D0012001F00BFB013CA4B2002CFF
:1039D8001ED001F033F8002DEAD0082DF9D1736814
:1039E800B2681343E9193268012001F083F800280E
:1039F80012D0012001F0F4FA013CA4B2002CE8D165
:103A080001F034F8002002E001F030F80120F8BDA0
:103A180001F02CF82800FAE701F028F80120F6E771
:103A2800F8B507000E0015001C0001F007F8F119A1
:103A38002A000023012001F05DF800280AD00120A7
:103A480001F0CEFA013CA4B2002CEED101F00EF840
:103A5800002002E001F00AF80120F8BD70B5050069
:103A680000F0ECFFFA26B600300001F00FF8084C21
:103A7800202323612900042001F06EF8300001F0B2
:103A880005F8636902229343636100F0EFFF70BD9C
:103A980000200240F0B5DE4657464E464546E0B5A2
:103AA80083B000AF38600D007A609846282308225A
:103AB8009B18DB1904CB91461B889B4643469B0009
:103AC8000733DB08DB006A46D31A9D46EA46002422
:103AD8000CE0A6007B689C46664429003868FFF71E
:103AE80019FF30600435EDB20134E4B2A3B24345A6
:103AF800EFD37968504602F04FFE002305E05246A6
:103B0800D25C4946CA5401339BB25B45F7D3BD46E4
:103B180003B0F0BCBB46B246A946A046F0BD10B5FE
:103B28001C00012B06D0012A0ED0012201F0E7F873
:103B3800002010BD012A04D0002201F0E0F8200086
:103B4800F7E701F0DCF8FAE7002201F0D8F8EFE730
:103B580070B505000C00002000210026144A0FE073
:103B680052080133DBB2072B06D8D107F8D5520823
:103B780010494A4092B2F4E7160AD1B20130C0B2F5
:103B8800A31E984203DA2B5C5A400023EBE72B195B
:103B9800023B1B788B4208D12D19013D2B78B3428B
:103BA80001D0002002E0A0B200E0002070BDC046B5
:103BB800FFFF000001A0FFFFF8B506000D00170089
:103BC80000240FE0F25C1419A4B201339BB2AB429B
:103BD800F8D3002C09D1012001F002FA013FBFB24D
:103BE800002F01D00023F2E73C002000F8BD0000C0
:103BF800F8B507000E000025002407E03019074932
:103C080002F09CFD0135ADB20234A4B27A5D002AFF
:103C1800F4D1341900232370F8BDC046C87D0008CC
:103C2800F8B506000F0000241FE01300613BDBB26B
:103C3800052B04D8203AD2B212017A5525E0130098
:103C4800413BDBB2052B20D8373AD2B212017A5564
:103C58001BE01300613BDBB2052B22D8203A52B29D
:103C68007B5D1A437A550134E4B225003000FCF735
:103C780043FA400884421FD26100725C1300303B53
:103C8800DBB2092BD1D81B017B5571184A78130078
:103C9800303BDBB2092BDCD85BB27A5D13437B5532
:103CA800E1E71300413BDBB2052BDCD8373A52B2CF
:103CB8007B5D1A437A55D6E7F8BD70B5002309E055
:103CC8005E0001363734945510E05D0037345455A2
:103CD80001339BB28B4211D2C518C65C0F24344005
:103CE800092CEDD85E000136303494552D782C0916
:103CF8009F2DEAD85D0030345455E9E770BDFEE7E2
:103D0800FEE77047704710B501F058F910BD10B5BF
:103D180000F032FE10BD704710B5024802F0E2FA1A
:103D280010BDC0466814002010B5024802F0DAFA47
:103D380010BDC0466814002010B5024802F0D2FA3F
:103D480010BDC0460015002010B5024802F0CAFA9E
:103D580010BDC0464C15002010B5024802F0C2FA4A
:103D680010BDC046B414002010B5024801F0AAF9ED
:103D780010BDC0469815002010B5024801F0A2F900
:103D880010BDC0462C16002010B5024801F09AF963
:103D980010BDC046C016002000B583B0134B196C87
:103DA800012211431964196C0A400092009ADA6BD7
:103DB800802149050A43DA63DB6B0B400193019BC1
:103DC80000220021032001F053F8032001F080F8BD
:103DD80000220021042001F04BF8042001F078F8BB
:103DE800C020C00001F00EF903B000BD0010024071
:103DF80000B585B00368304A93420AD02F4A9342EF
:103E080022D02F4A934231D02E4A934240D005B057
:103E180000BD2D4A116C8020000101431164136C10
:103E280003400093009B002203210D2001F020F89D
:103E38000D2001F04DF8002203210E2001F018F8A2
:103E48000E2001F045F8E2E71F4AD16B022319431F
:103E5800D163D26B13400193019B002202211020F1
:103E680001F006F8102001F033F8D0E7164AD16BBC
:103E780010231943D163D26B13400293029B002293
:103E88000021112000F0F4FF112001F021F8BEE715
:103E98000D4A116C8020400201431164136C0340E9
:103EA8000393039B00220021142000F0E1FF14205B
:103EB80001F00EF8ABE7C046002C014000040040BA
:103EC80000100040004001400010024010B592B0C0
:103ED8000400142200210DA802F027FC1C22002156
:103EE80006A802F022FC23684B4A934207D04B4AAB
:103EF800934238D04A4A934267D012B010BD01238A
:103F0800069306A800F060FC002829D1454B196CDF
:103F18008020C001014319641A6C02400092009A83
:103F2800596B0122114359635B6B13400193019B49
:103F3800C023DB000D9302230E9300230F9303335A
:103F480010931192A0200DA9C00500F015FE0022C3
:103F580001211B2000F08CFF1B2000F0B9FFCCE7EB
:103F6800FDF7A6FCD2E70223069306A800F02CFC76
:103F7800002827D12B4BD96B802080020143D963BD
:103F8800DA6B02400292029A596B0122114359637B
:103F98005B6B13400393039B0C230D930A3B0E9317
:103FA8000F93013310931192A0200DA9C00500F0C2
:103FB800E3FD002200211C2000F05AFF1C2000F025
:103FC80087FF9AE7FDF774FCD4E7164BD96B80207E
:103FD800C0020143D963DA6B02400492049A596B18
:103FE8000222114359635B6B13400593059B05231C
:103FF8000D930E920F92023B1093013311930DA96A
:10400800094800F0B9FD002201211D2000F030FF11
:104018001D2000F05DFF70E70038014000440040BB
:1040280000480040001002400004005030B53C2316
:10403800C35C012B2CD03C230122C2540133013232
:10404800C254026853689468124DAA421BD0702566
:10405800AB430D682B43536003680E4A934205D067
:104068000D4A934202D00D4A934204D180229443D0
:104078008A6814439C603D230122C254013B0022FC
:10408800C254002030BD064D2B404D682B43DEE75F
:104098000220F7E7002C01400004004000400140E6
:1040A800FFFF0FFF704770477047000070B582B080
:1040B800041E00D129E20368DB0739D5C14A91689B
:1040C80038230B40D16803220A40102B26D0082B36
:1040D80026D063688022520293427FD0A022D20267
:1040E800934200D181E0B74B1A68B7490A401A6079
:1040F8001A68B6490A401A606368002B00D180E04C
:1041080000F068FF0500AF4B1B689B0310D400F05C
:1041180061FF401B6428F6D90320F7E1032AD6D1B2
:10412800A84B1B689B0303D56368002B00D1EFE104
:1041380023689B0731D5A34A936838210B40D1687F
:1041480003220A40102B6AD0002B6BD19D4A1268BB
:10415800520503D5E268002A00D1DBE1994842689C
:104168009B490A40616909020A434260002B0DD14C
:10417800036898490B4021690B4303600368DB0A15
:1041880007221A40944BD340944A1360944B186802
:1041980000F0D4FE002800D0BEE123681B0700D43D
:1041A80081E0884B9A6838231340182B73D0A36991
:1041B800002B00D1B4E0834A136E01210B43136630
:1041C80000F008FF05007F4B1B6E9B076BD400F0C7
:1041D80001FF401B0228F6D9032097E1794A1168AC
:1041E80080235B020B43136086E7764B19688022B5
:1041F800D2020A431A601968802252020A431A60DE
:104208007AE700F0E7FE05006E4B1B689B038FD52D
:1042180000F0E0FE401B6428F6D9032076E1022A6C
:1042280092D193E7E368002B22D0664A1368694964
:104238000B4021690B431360116880235B000B431B
:10424800136000F0C7FE05005E4B1B685B0506D4D3
:1042580000F0C0FE401B0228F6D9032056E1594958
:104268004B685B4A13406269120213434B6094E740
:10427800544A13685B490B40136000F0ABFE05001D
:10428800504B1B685B0588D500F0A4FE401B022834
:10429800F6D903203AE14B4B1B6E9B0703D5A36964
:1042A800002B00D13AE123685B0700D4A2E0454B1C
:1042B8009A6838231340202B45D0424BDB6BDB0038
:1042C8004AD4404AD16B802040050143D163D36B67
:1042D80003400193019B0125434B1B68DB053DD53A
:1042E800A368012B4ED0052B52D0364BDA6D012135
:1042F8008A43DA65DA6D03318A43DA65A368002BED
:1043080050D000F067FE06002E4BDB6D9B076FD484
:1043180000F060FE801B354B9842F5D90320F5E08C
:10432800284A136E01218B43136600F053FE0500E3
:10433800244B1B6E9B07B6D500F04CFE401B022891
:10434800F6D90320E2E01F4BDB6D9B0752D5A3682B
:10435800002B4FD10120D9E00025BDE7224A116882
:1043680080235B000B43136000F034FE06001E4BF5
:104378001B68DB05B4D400F02DFE801B0228F6D99B
:104388000320C3E00F4AD36D01210B43D365B5E782
:104398000C4BDA6D04210A43DA65DA6D03390A43F6
:1043A800DA65ABE700F016FE0600064BDB6D9B07EF
:1043B8001ED500F00FFE801B0C4B9842F5D9032048
:1043C800A4E0C04600100240FFFFFEFFFFFFFBFF16
:1043D800FF80FFFFFFC7FFFF0024F4000C00002050
:1043E80008000020FFFEFFFF007000408813000057
:1043F800012D1ED0E369002B00D191E04F4A91684E
:1044080038220A40102A5ED0022B18D04B4A136873
:104418004B490B40136000F0DDFD0400474B1B685F
:104428009B0149D500F0D6FD001B0228F6D90320D0
:104438006CE0424AD36B43490B40D363DAE73F4A07
:1044480013683F490B40136000F0C4FD05003B4B67
:104458001B689B0106D500F0BDFD401B0228F6D95C
:10446800032053E0354AD36837491940236A606A04
:104478000343A06A00020343E06A0343206B03433B
:104488000B43D360116880235B040B431360D1682E
:1044980080235B050B43D36000F09CFD0400274B91
:1044A8001B689B0106D400F095FD001B0228F6D975
:1044B80003202BE0002029E0204AD36823490B4041
:1044C800D360002022E0012B2CD01C4BDA68032398
:1044D8001340216A8B4227D170231340616A8B42B3
:1044E80024D1FE21C9011140A36A1B0299421FD1A0
:1044F800F8239B031340E16A8B421BD1520F5207EA
:10450800236B9A4218D1002000E0012002B070BD50
:104518000120FBE70120F9E70120F7E70120F5E793
:104528000020F3E70120F1E70120EFE70120EDE7A4
:104538000120EBE70120E9E70120E7E7001002404E
:10454800FFFFFFFEFFFFFFEF8C80C11FFCFFFEEFA8
:1045580010B52A4B9B6838221A4207D1274B1A6894
:10456800D20A072313402648D84010BD234B9A6827
:1045780038231340082B3BD0204B9A68382313402C
:10458800102B0DD01D4B9A6838231340202B31D0A7
:104598001A4B9A6838231340182B26D00020E4E7DA
:1045A800164AD1680D3B0B40D26812090721114009
:1045B8000131032B0FD01248FBF7B0FD0F4BDA681F
:1045C800120A7F23134058430C4BD968490F013115
:1045D800FBF7A4FDC9E70B48FBF7A0FD074BDA681A
:1045E800120A7F2313405843EEE7FA20C001BCE7C4
:1045F8000448BAE780200002B7E7C046001002402E
:104608000024F40000127A0070B504000D000028A0
:1046180000D1AAE0574B1A68072313408B4221D3D5
:1046280023689A070ED55B0705D5534A9168E0239E
:10463800DB010B439360504A936850490B40A168D3
:104648000B4393602368DB0754D56368012B20D0A4
:10465800022B3BD0002B3FD1474A126852051CD48D
:1046680001206AE0434A136807218B432B431360F8
:1046780000F0B0FC06003F4B1A6807231340AB421A
:10468800CED000F0A7FC801B3D4A9042F3D903200E
:1046980053E0394A1268920369D537498A68072076
:1046A800824313438B6000F095FC0600324B9B68F5
:1046B80038221A406368DB009A421BD000F08AFC5B
:1046C800801B2F4B9842F1D9032036E02A4A126802
:1046D8009201E2D4012030E0032B05D0264AD26DA6
:1046E8009207DAD4012028E0234A126E9207D4D424
:1046F800012022E01F4B1A6807231340AB421DD844
:1047080023685B0706D51C4A93681E490B40E1687D
:104718000B439360FFF71CFF174B9A68120A0F238D
:1047280013409B00184A9A581F231340D840174B30
:104738001860174B186800F001FC70BD0D4A13682B
:1047480007218B432B43136000F044FC0600094B00
:104758001A6807231340AB42D2D000F03BFC801B01
:10476800074B9842F3D90320E7E70120E5E701204A
:10477800E3E7C0460020024000100240FFF0FFFFC0
:1047880088130000FF8FFFFFF87D00080C00002051
:1047980008000020014B18687047C0460C00002034
:1047A80010B5FFF7F7FF064B9A68120B0723134063
:1047B8009B00044A9A581F231340D84010BDC04696
:1047C80000100240387E0008F0B583B0040003688A
:1047D8009B0362D5584BDB6BDB001ED4564AD16B6A
:1047E800802040050143D163D36B03400193019BB3
:1047F8000126524A116880235B000B43136000F0C6
:10480800E9FB05004D4B1B68DB0508D400F0E2FB13
:10481800401B0228F6D9032502E00026E9E7002517
:10482800002D23D1444BD96DC02292000B001340B8
:10483800114210D0A2699A420DD03F4AD36D404927
:104848000B40D06D802149020143D165D16D3D48AF
:104858000140D165D365DB0710D4002D06D1364A57
:10486800D36D37490B40A1690B43D365012E15D190
:10487800314AD36B34490B40D3630FE000F0AAFBF5
:1048880007002D4BDB6D9B07E7D400F0A3FBC01B93
:104898002E4B9842F5D90325DFE700252368DB076F
:1048A80006D5254A536D03218B4361680B43536535
:1048B80023689B0706D5204A536D0C218B43A168BA
:1048C8000B43536523689B0606D51B4A536D204945
:1048D8000B40E1680B43536523685B040BD5164A0C
:1048E800536D9B009B0861690B4353658023DB056F
:1048F80062699A4211D023681B050BD50E4A536D85
:1049080014490B4021690B43536522698023DB015D
:104918009A4209D0280003B0F0BD074AD168802325
:104928005B020B43D360E6E7034AD16880235B024E
:104938000B43D360EEE7C046001002400070004011
:10494800FFFCFFFFFFFFFEFFFFFFFFEF88130000E4
:10495800FFCFFFFFFF3FFFFF30B5054C6169012521
:10496800294361610260BFF36F8F436030BDC04669
:10497800002002407047704710B52B4B1B692B4A2B
:1049880013402B4A9268510721D5294A1469002BF4
:104998002AD1254B1B69DB070CD5234B01221A6151
:1049A800234B9B68022B2CD0214B00229A602000BD
:1049B800FFF7E0FF1E4B9B68002B07D11A4A53698B
:1049C8001C490B4053611A4B00221A7010BD16483F
:1049D80041699143416118490A4202D0144AD46896
:1049E800D5E7134A5469D2E7114A51680B4353601B
:1049F8000D4B0E491961002393602000FFF7BBFFA0
:104A0800C7E70B4A9369013B9361002B03D1084B1D
:104A180000229A60CBE713005269511C596118694A
:104A280000F09AF8C3E7C04600200240FA8300006D
:104A38005C170020FFFFFFFC01000400084B5B69C6
:104A4800002B01DB00207047054B064A9A60064A96
:104A58009A605B69002B01DB0020F4E70120F2E794
:104A68000020024023016745AB89EFCD064B596909
:104A7800802212060A435A615B69002B01DB012080
:104A880070470020FCE7C0460020024070B50500D2
:104A980000F0A0FA4419134B1B69DB0305D500F09D
:104AA80099FAA042F7D3032070BD0E490A690E4B4C
:104AB80014001C400D4808611A4203D00C4B5C607E
:104AC8000120F1E700F086FA4519064B1B695B03E4
:104AD80005D500F07FFAA842F7D30320E4E70020C9
:104AE800E2E7C04600200240FA830000FB83000092
:104AF8005C170020F8B507000C0015001E00144BC9
:104B08001B78012B22D0124B01221A7000225A6006
:104B1800FA208000FFF7BAFF00280DD1012F0FD02F
:104B28002900200002F050FBFA208000FFF7AEFFBA
:104B3800084A5369BB435361054B00221A70F8BDFC
:104B48002A0033002000FFF707FFEDE70220F6E711
:104B58005C17002000200240044A536904480340BF
:104B6800C9001943034B19435161704700200240A3
:104B780007E0FFFF02000100F0B500235AE0846857
:104B88005F000326BE40B4432600CC68BC403443D3
:104B98008460446894434A681609012232409A4066
:104BA8002243426056E0DC080834A4002658053247
:104BB8001A4092000F279740BE430F6997403A006A
:104BC800324322505AE0032600E00026A640340073
:104BD8003C43434E1832920094513468EA4326000D
:104BE800AE434F68FF0201D52C4326003C4C26609B
:104BF8006468260016404F68BF0201D52C43260082
:104C0800374C66608426A459260016404F68BF03B7
:104C180001D52C432600324C8427E6518026A4591E
:104C280022404E68F60301D52A0022432C4D8024E9
:104C38002A5101330C682200DA404FD001229A40F1
:104C4800250015401442F4D003244E683440013C3A
:104C5800012C94D903224C682240032A09D0C26847
:104C68005E000324B440A24314008A68B240224381
:104C7800C26003224C682240022A94D004685E0075
:104C880003221700B740BC434F683A40B240224362
:104C98000260C02292024C681442CAD09A081400DA
:104CA8001834A4000E4EA75903241C40E4000F2614
:104CB800A640B743A026F605B04286D0094EB042BA
:104CC80008D0094EB04207D0084EB04200D17AE76A
:104CD80005267BE7012679E7022677E7F0BDC0467F
:104CE800001802400004005000080050000C00505A
:104CF80003690B4201D0012070470020FCE7002A1D
:104D080001D0816170478162FCE7426913000B4062
:104D18001B049143194381617047000030B5002896
:104D280036D02523C35C022B06D00423C36320336B
:104D38000022C254012030BD026813680E218B4343
:104D48001360426C136813490B40136001680A68CA
:104D580001239A430A60104C62681C21056C2940A3
:104D68008B4013436360836CC26C5A60036D002BE5
:104D780006D01A6807490A401A60436D826D5A6066
:104D880025230122C254013B0022C2540020D2E74D
:104D98000120D0E7FFFEFFFF0000024070B5252389
:104DA800C35C022B03D00423C363012070BD0268D7
:104DB80013680E218B43136001680A6801239A4324
:104DC8000A60416C0A68134C22400A60124C6268FF
:104DD8001C21056C29408B4013436360836CC26CB3
:104DE8005A60036D002B06D01A680A490A401A60F7
:104DF800436D826D5A6025230122C254013B002273
:104E0800C254836B002B02D098470020CEE70020C5
:104E1800CCE7C046FFFEFFFF0000024010B5104A75
:104E2800136810490B400343136080239B0098428A
:104E380001D0002010BD0C4B1B685800C018400062
:104E48000A49FBF76BF90130054B5B695B0503D534
:104E5800002803D00138F7E70020EBE70320E9E753
:104E680000700040FFF9FFFF0C00002040420F00D7
:104E780070B5002811DB8308134EC0339B009D5981
:104E880003242040C000FF2214008440A543890168
:104E98000A4082402A439A5170BD0F230340083BC1
:104EA8009B0806339B00094A944663445C680322C6
:104EB8001040C000FC3215008540AC4389010A400F
:104EC800824022435A60E7E700E100E000ED00E09D
:104ED800002805DB1F2318401E3B8340014A13604E
:104EE8007047C04600E100E0BFF34F8F034B044A10
:104EF800DA60BFF34F8FC046FDE7C04600ED00E023
:104F08000400FA05013880235B0498420FD2094A4D
:104F180050600948036A1B021B0AC02109060B439B
:104F28000362002393600733136000207047012059
:104F3800FCE7C04610E000E000ED00E010B504001A
:104F4800114B1978002901D1012010BDFA208000E9
:104F5800FBF7E4F801000D4B1868FBF7DFF8FFF7E3
:104F6800D1FF00280DD1032C01D90120EDE7013034
:104F7800002221004042FFF77BFF054B1C60002008
:104F8800E3E70120E1E7C046040000200C00002010
:104F98000800002010B5084A116880235B000B4305
:104FA80013600020FFF7CAFF041E02D0012420006E
:104FB80010BDFEF7F1FEFAE700200240034B1B7814
:104FC800034A11685B1813607047C046040000204C
:104FD80078170020014B18687047C04678170020E2
:104FE80070B50400FFF7F6FF0500631C02D0044B00
:104FF8001B78E418FFF7EEFF401BA042FAD370BD00
:1050080004000020034A136803490B40034313605C
:105018007047C04600000140FFF9FFFF30B5EFF3CD
:105028001084012282F3108801680B68124D2B400E
:105038000B6084F31088EFF3108182F31088026804
:1050480093680E4C2340936081F31088C36E012B44
:1050580006D08C232022C2500023C366436730BD8C
:10506800EFF3108183F31088026813681024A343B8
:10507800136081F31088ECE7DFFEFFFFFEFFFFEF10
:10508800704710B5EFF31081012383F3108802688D
:1050980013684024A343136081F3108888232022D7
:1050A800C25000238367FFF7EBFF10BD704710B5B0
:1050B800806A00235E228352083A8352FFF7F6FF84
:1050C80010BD7047F8B504000268D3691068956888
:1050D800BD491E000E400B4205D1990603D5810635
:1050E8002CD4E9002AD4002E07D0B8492E000E404F
:1050F8000D4229D1B649084226D1E16E012900D1D5
:10510800AAE0D90202D5690200D543E11A0605D5FD
:10511800020600D545E12A0200D542E15A0602D529
:10512800420600D544E11A0202D5420000D543E107
:10513800DB0102D5002800DA42E1F8BD636F002BDD
:10514800FBD020009847F8E7D90707D5C10505D552
:1051580001271762902162583A4362509A0709D58D
:10516800EA0707D52268022111628E3162580427A6
:105178003A4362505A0709D5EA0707D5226804213D
:1051880011628C31625802273A4362501A070AD5D5
:10519800820601D4002E06D02268082616629021C5
:1051A8006258324362501A050AD5420108D522686E
:1051B80080210901116290216258202632436250F1
:1051C8009022A258002AB8D09B0608D5830601D49D
:1051D800EB0004D5636F002B01D020009847902383
:1051E800E25823689B685B0602D4282313422CD01C
:1051F8002000FFF713FF23689B685B0621D5EFF3B8
:105208001081012383F31088226893684020834328
:10521800936081F310888023E358002B0DD06D4AEA
:105228009A638023E058FFF7B9FD002800D184E78E
:105238008023E058836B98477FE72000FFF736FF0D
:105248007BE72000FFF732FF77E72000FFF72EFF0C
:1052580090230022E25070E7D90600D451E7C10636
:1052680000D44EE71023136223689B685B0655D56C
:105278008023E25813685B689BB2002B00D15CE77F
:105288005C21615A994200D857E75E21635213683E
:105298001B689B060BD5022323675A33E15A023356
:1052A800E35AC91A89B22000FFF70BFF45E7EFF36D
:1052B8001080012383F3108821680A68464D2A402C
:1052C8000A6080F31088EFF3108083F31088216858
:1052D8008A689A438A6080F31088EFF3108083F31A
:1052E800108821688A684235FF35AA438A6080F3AE
:1052F80010888C222021A1500022E266EFF3108151
:1053080083F310882268136810208343136081F3A5
:1053180010888023E058FFF701FDBCE75C23E15AC1
:105328000233E25A891A89B2E35A9BB2002B00D1A0
:1053380003E7002900D100E7EFF31085012383F389
:10534800108820680268254E3240026085F3108874
:10535800EFF3108583F3108820688268204E32406E
:10536800826085F310888C222020A0500022E266FB
:105378006267EFF3108083F31088226813681025A2
:10538800AB43136080F31088022323672000FFF7E4
:1053980098FED2E680235B031362200000F056FEDD
:1053A800CBE6A36F002B00D1C7E620009847C4E6E0
:1053B8002000FFF766FEC0E6200000F049FEBCE6CC
:1053C800200000F044FEB8E60F08000001000010BD
:1053D80020010004B7500008FFFEFFFFDFFEFFFFBB
:1053E800FEFFFFEF10B56023C35A8C228258222A91
:1053F80005D00268936908210B43936110BD0268C8
:10540800526ADBB21340826D1370836D013383657A
:105418005E22835A013B9BB28352835A9BB2002B74
:10542800ECD1EFF3108C5D3A82F3108801680B68B9
:10543800194C23400B608CF31088EFF3108C82F327
:10544800108801688B6893438B608CF310888C23D9
:105458001F32C250002343670367C36E012B17D165
:105468000023C366EFF31084013383F310880168C7
:105478000B68103A93430B6084F310880368D9696A
:105488000A4200D01A625C23C15AFFF71AFEB5E738
:10549800FBF750F8B2E7C046DFFEFFFF10B5602308
:1054A800C25A2C33C358222B05D0026893690821AD
:1054B8000B43936110BD03685B6A1340826D1380D0
:1054C800836D023383655E22835A013B9BB283520C
:1054D800835A9BB2002BEDD1EFF3108C5D3A82F327
:1054E800108801680B68194C23400B608CF31088F6
:1054F800EFF3108C82F3108801688B6893438B60FC
:105508008CF310888C231F32C25000234367036733
:10551800C36E012B17D10023C366EFF31084013348
:1055280083F3108801680B68103A93430B6084F387
:1055380010880368D9690A4200D01A625C23C15AEC
:10554800FFF7BFFDB6E7FAF7F5FFB3E7DFFEFFFFAA
:10555800F0B5CE46474680B583B004006023C35AF1
:1055680001930368DD691A6890469A6891468C220F
:105578008258222A08D09A6908210A439A6103B0FE
:10558800C0BCB946B046F0BD6823C65A40E0902377
:10559800E358002B79D15E23E35A9BB2002B37D115
:1055A800EFF31080012282F3108821680B684F4FB7
:1055B8003B400B6080F31088EFF3108182F3108872
:1055C800226893684A480340936081F310888C23CB
:1055D8002022E250002363672367E36E012B5BD12F
:1055E8000023E366EFF31080013383F3108821680A
:1055F8000B68103A93430B6080F310882368D969CD
:105608000A4200D01A625C23E15A2000FFF759FDD4
:10561800002E45D0AB0643D523685B6A6A461279EB
:105628001340A26D1370A36D0133A3655E22A35AC4
:10563800013B9BB2A3522368DD696A07ABD0EA0736
:1056480008D54246D20505D5012119629022A358F2
:105658000B43A350AB070AD54B46DB0707D5236896
:1056680002221A628E32A35804210B43A3506B07FF
:105678008DD54B46DB078AD5236804221A628C3203
:10568800A35802210B43A35081E72000FFF70EFD2A
:1056980090230022E2507EE72000FAF74BFFB7E79D
:1056A8005E23E35A9BB2002B00D168E76822A25A16
:1056B8009A4200D863E7EFF31080012282F3108842
:1056C80021688B680B4D2B408B6080F310880A4B48
:1056D8006367EFF3108182F3108822681368202033
:1056E8000343136081F3108849E7C046FFFEFFFFBC
:1056F800FEFFFFEFFFFFFFEFED530008F8B5DE46B2
:1057080057464E464546E0B504006023C55A03682F
:10571800DF691A6890469A6891468C228258222A34
:1057280009D09A6908210A439A61F0BCBB46B2467F
:10573800A946A046F8BD6823C65A43E09023E3581B
:10574800002B7AD15E23E35A9BB2002B3AD1EFF3B8
:10575800108001339B4683F3108821680B689A46B2
:105768004E4B52461A400A6080F31088EFF31081BE
:105778008BF310882268936849480340936081F34B
:1057880010888C232022E250002363672367E36E8E
:10579800012B59D10023E366EFF31080013383F323
:1057A800108821680B68103A93430B6080F31088C7
:1057B8002368D9690A4200D01A625C23E15A2000A2
:1057C800FFF77FFC002E43D0BB0641D523685B6AF8
:1057D8002B40A26D1380A36D0233A3655E22A35AEA
:1057E800013B9BB2A3522368DF697A07AAD0FA0764
:1057F80008D54246D20505D5012119629022A35841
:105808000B43A350BB070AD54B46DB0707D52368D4
:1058180002221A628E32A35804210B43A3507B073D
:105828008CD54B46DB0789D5236804221A628C3253
:10583800A35802210B43A35080E72000FFF736FC52
:1058480090230022E2507DE72000FAF773FEB9E7C3
:105858005E23E35A9BB2002B00D166E76822A25A66
:105868009A4200D861E7EFF31080012282F3108892
:1058780021688B680B4D2B408B6080F310880A4B96
:105888006367EFF3108182F3108822681368202081
:105898000343136081F3108847E7C046FFFEFFFF0C
:1058A800FEFFFFEFFFFFFFEFA554000810B504004F
:1058B80083680269134342691343C2691343016849
:1058C8000A686B48024013430B60226853686949B1
:1058D8000B40E1680B435360226AA3691A432168AD
:1058E8008B686548034013438B602268D36A0F2195
:1058F8008B43616A0B43D3622368604A93420AD0A0
:105908005F4A93423ED05F4A93425CD05E4A9342DC
:1059180049D010230BE05D4B5A6D03231340022B33
:1059280043D02BD8002B42D0012B42D10333E0695E
:1059380080221202904248D0042B00D191E07AD8FC
:10594800002B00D186E0022B73D15148636A5B00BB
:10595800504A995AFAF7E2FB63685B08C018616815
:10596800FAF7DCFB0200103A4B4B9A4200D97DE073
:1059780023680004000CD860002062E0032B1AD1D1
:105988000533D4E7414B5A6D0C231340082B14D030
:1059980005D8002B13D0042BC9D01023C7E70C2B34
:1059A8000FD1043BC3E70023C1E70223BFE700236D
:1059B800BDE71023BBE71023B9E70223B7E70023AD
:1059C800B5E71023B3E70023B1E7042B2ED023D883
:1059D800002B25D0022B1DD12D48636A5B002D4A70
:1059E800995AFAF79BFB400063685B08C018616826
:1059F800FAF794FB0200103A274B9A4234D882B245
:105A08000F239A434008083B184010432368D86086
:105A1800002016E0012014E0082BDED0012010E061
:105A2800FEF7BEFE0028D8D100200AE0FEF790FD60
:105A3800F8E7012005E0082B02D18020000285E765
:105A4800012001236A22A352023AA352002363676A
:105A5800A36710BDFEF7A4FE002800D076E700205B
:105A6800EFE7FEF775FDF7E70120EAE70120E8E731
:105A7800F369FFCFFFCFFFFFFFF4FF1100380140AC
:105A88000044004000480040004C00400010024024
:105A98000024F400D07D0008EFFF0000836ADB07D4
:105AA80006D5026853682C490B40C16A0B43536002
:105AB800836A9B0706D50268536828490B40016B27
:105AC8000B435360836A5B0706D502685368244911
