:020000040800F2
:100000000090002089680008173F0008193F000889
:1000100000000000000000000000000000000000E0
:100020000000000000000000000000001B3F00086E
:1000300000000000000000001D3F00081F3F0008F6
:10004000D968000800000000D9680008273F0008B0
:100050002F3F0008D9680008D9680008D96800084F
:1000600000000000D9680008D9680008D9680008B5
:10007000D9680008313F0008413F00080000000037
:10008000513F0008613F0008D9680008D96800089E
:10009000713F0008D9680008D9680008D9680008CD
:1000A000D9680008D9680008D9680008813F0008AD
:0800B000913F0008A13F000888
:1000B80010B5064C2378002B07D1054B002B02D036
:1000C800044800E000BF0123237010BD7400002025
:1000D80000000000C8730008044B10B5002B03D0C3
:1000E8000349044800E000BF10BDC04600000000FE
:1000F80078000020C87300080023C25C0133002A7E
:10010800FBD1581E7047000003B4714649084000EF
:100118004900095E49008E4403BC70470022430829
:100128008B4274D303098B425FD3030A8B4244D3B7
:10013800030B8B4228D3030C8B420DD3FF220902F9
:1001480012BA030C8B4202D31212090265D0030BB8
:100158008B4219D300E0090AC30B8B4201D3CB03AE
:10016800C01A5241830B8B4201D38B03C01A5241F0
:10017800430B8B4201D34B03C01A5241030B8B42F2
:1001880001D30B03C01A5241C30A8B4201D3CB02DD
:10019800C01A5241830A8B4201D38B02C01A5241C2
:1001A800430A8B4201D34B02C01A5241030A8B42C5
:1001B80001D30B02C01A5241CDD2C3098B4201D3DD
:1001C800CB01C01A524183098B4201D38B01C01A5B
:1001D800524143098B4201D34B01C01A52410309D2
:1001E8008B4201D30B01C01A5241C3088B4201D381
:1001F800CB00C01A524183088B4201D38B00C01A2E
:10020800524143088B4201D34B00C01A5241411A54
:1002180000D20146524110467047FFE701B5002061
:1002280000F0F0F802BDC0460029F7D076E7704725
:1002380003460B437FD4002243088B4274D303093F
:100248008B425FD3030A8B4244D3030B8B4228D3E0
:10025800030C8B420DD3FF22090212BA030C8B4206
:1002680002D31212090265D0030B8B4219D300E0A6
:10027800090AC30B8B4201D3CB03C01A5241830B2B
:100288008B4201D38B03C01A5241430B8B4201D3DB
:100298004B03C01A5241030B8B4201D30B03C01A04
:1002A8005241C30A8B4201D3CB02C01A5241830A7E
:1002B8008B4201D38B02C01A5241430A8B4201D3AD
:1002C8004B02C01A5241030A8B4201D30B02C01AD7
:1002D8005241CDD2C3098B4201D3CB01C01A52413E
:1002E80083098B4201D38B01C01A524143098B42C7
:1002F80001D34B01C01A524103098B4201D30B01B0
:10030800C01A5241C3088B4201D3CB00C01A5241D4
:1003180083088B4201D38B00C01A524143088B4299
:1003280001D34B00C01A5241411A00D20146524132
:10033800104670475DE0CA0F00D04942031000D351
:100348004042534000229C4603098B422DD3030AA6
:100358008B4212D3FC22890112BA030A8B420CD3B6
:10036800890192118B4208D3890192118B4204D3DF
:1003780089013AD0921100E08909C3098B4201D35F
:10038800CB01C01A524183098B4201D38B01C01A99
:10039800524143098B4201D34B01C01A5241030910
:1003A8008B4201D30B01C01A5241C3088B4201D3BF
:1003B800CB00C01A524183088B4201D38B00C01A6C
:1003C8005241D9D243088B4201D34B00C01A524143
:1003D800411A00D20146634652415B10104601D3D0
:1003E8004042002B00D54942704763465B1000D35A
:1003F800404201B5002000F005F802BD0029F8D000
:1004080016E770477047C046F0B5D6464F46464691
:10041800C0B588B01422002103A806F08EFA384B24
:10042800596B042211435963596B0A400092009A90
:100438005A6B012422435A635A6B22400192019A53
:100448005A6B02252A435A635B6B2B400293029B2B
:100458008026B6012B4B994600223100180004F083
:1004680056FDA023DB05984600228021180004F0E1
:100478004EFDFA239B019A46234F002219003800AB
:1004880004F045FD0396049405950026069603A9F5
:10049800484604F079FC102303930496059503A9B4
:1004A800404604F071FC80230393049405957D3B3A
:1004B8009946069303A9404604F066FC5346039305
:1004C800049405954B46069303A9380004F05CFC98
:1004D80084235B0003930496059403A9380004F071
:1004E80053FC202303930496059603A9380004F0CF
:1004F8004BFC08B0E0BCBA46B146A846F0BDC046C1
:1005080000100240000800500004005070B50400BC
:10051800244B02689A4204D02268234B9A421DD089
:1005280070BD224805F044FF214D012229002148D1
:1005380005F03AFE20490A88531C9BB20B802878A4
:100548001E498854FA225200934202D31A4B0022C1
:100558001A80164B1B6800225A62DDE7184805F01E
:1005680027FF184C01222100174805F01DFE2378AB
:10057800002B02D1134B40221A7014490A88531CCD
:100588009BB20B800F49087811498854FA2252000F
:10059800934202D30D4B00221A80094B1B6800229C
:1005A8005A62BDE70038014000440040B4140020FE
:1005B800DA04002098150020D8040020E402002066
:1005C8004C150020D20600202C160020D006002052
:1005D800DC04002030B5A3B00400464B02689A4200
:1005E80005D02268444B9A423CD023B030BD434AE0
:1005F80013780133DBB21370414A1268934205D96C
:10060800404B01221A703D4B00221A70802149008C
:100618003D4804F075FC002806D13C4A13780133A4
:10062800DBB21370032B0DD0394A13780133DBB2D8
:100638001370F02BD5D1374B01221A70344B00229E
:100648001A70CEE7344D290010318422684606F02E
:100658006BF928686968AA68EB6802F075FE04F00F
:100668004BFDE1E72D4A13780133DBB213702C4AB6
:10067800127893421ED02B4B1B782B4A1278934248
:1006880004D0284B1A70294B0021197027490B7880
:100698000133DBB20B709A42A7D1002A1BD0052A7E
:1006A80020D080214901184804F037FC1F4B002254
:1006B8001A709AE7002A08D180210901124804F02B
:1006C80026FC164B00221A70D5E7802109010E4836
:1006D80004F023FCF5E78021013249010A4804F0BF
:1006E80016FCE3E7802100224901074804F00FFCCB
:1006F800DCE7C04600040040002C0140E002002076
:1007080054170020E102002000040050900000204F
:10071800E80B0020E90B0020C0160020BD130020C4
:10072800BE130020D306002091000020BC13002037
:1007380030B5002428E205196D78442D00D02AE24E
:10074800092088E285186D784F2D00D026E285189B
:10075800AD78532D00D021E28518ED78542D00D0C6
:100768001CE2072077E285186D784F2D00D018E23B
:100778008518AD78522D00D013E28518ED78542DE8
:1007880000D00EE2082066E285186D78522D00D060
:100798000AE28518AD78452D00D005E28518ED7878
:1007A800412D00D000E285182D794B2D00D0FBE1BA
:1007B800022050E285186D78532D00D0F7E1851896
:1007C800AD78342D00D0F2E18518ED78382D00D0C1
:1007D800EDE185182D79352D00D0E8E103203AE2C6
:1007E80085186D78492D00D0E4E18518AD784D2D38
:1007F80000D0DFE18518ED78452D00D0DAE18518C5
:100808002D79432D00D0D5E185186D79322D00D092
:10081800D0E18518AD79432D00D0CBE106201AE24E
:1008280085186D78452D00D0C7E18518AD78532D12
:1008380000D0C2E18518ED78542D00D0BDE18518AF
:100848002D79412D00D0B8E185186D79522D00D051
:10085800B3E18518AD79542D00D0AEE10120FAE15D
:1008680085186D784E2D00D0AAE18518AD78542DE5
:1008780000D0A5E18518ED78452D00D0A0E18518B8
:100888002D79522D00D09BE185186D79562D00D019
:1008980096E18518AD79412D00D091E18518ED7963
:1008A8004C2D00D08CE10420D5E185186D78412DC0
:1008B80000D088E18518AD78552D00D083E18518E2
:1008C800ED78442D00D07EE185182D79522D00D089
:1008D80079E185186D79412D00D074E18518AD79DD
:1008E800542D00D06FE18518ED79452D00D06AE1CF
:1008F8000520B0E185186D78532D00D066E1851884
:10090800AD78452D00D061E18518ED78522D00D0E5
:100918005CE185182D794E2D00D057E185186D7949
:10092800412D00D052E18518AD794D2D00D04DE113
:100938008518ED79452D00D048E10A208BE185180E
:100948006D78412D00D044E18518AD78532D00D045
:100958003FE18518ED78532D00D03AE185182D79BF
:10096800572D00D035E185186D794F2D00D030E135
:100978008518AD79522D00D02BE18518ED79442DDD
:1009880000D026E10B2066E185186D784F2D00D048
:1009980022E18518AD78502D00D01DE18518ED783D
:1009A800492D00D018E185182D79432D00D013E189
:1009B80085186D79532D00D00EE18518AD79552D28
:1009C80000D009E18518ED79422D00D004E10C2012
:1009D80041E185186D784F2D00D000E18518AD787C
:1009E800502D00D0FBE08518ED78492D00D0F6E0B9
:1009F80085182D79432D00D0F1E085186D79502D9B
:100A080000D0ECE08518AD79552D00D0E7E08518C9
:100A1800ED79422D00D0E2E00D201CE185186D78BB
:100A2800462D00D0DEE08518AD78472D00D0D9E0FE
:100A38008518ED785F2D00D0D4E085182D79522DDA
:100A480000D0CFE085186D79532D00D0CAE0851805
:100A5800AD79342D00D0C5E08518ED79382D00D05A
:100A6800C0E085182D7A352D00D0BBE00E20F2E0CD
:100A780085186D78462D00D0B7E08518AD78472DDC
:100A880000D0B2E08518ED785F2D00D0ADE0851874
:100A98002D79422D00D0A8E085186D79522D00D00F
:100AA800A3E08518AD794F2D00D09EE08518ED792B
:100AB8004B2D00D099E085182D7A452D00D094E073
:100AC80085186D7A522D00D08FE01220C3E085186A
:100AD8006D78462D00D08BE08518AD78472D00D075
:100AE80086E08518ED785F2D00D081E085182D7996
:100AF800542D7DD185186D79492D79D18518AD7919
:100B08004D2D75D18518ED79452D71D185182D7A22
:100B1800432D6DD185186D7A322D69D18518AD7A3E
:100B2800432D65D1112096E085186D78462D61D149
:100B38008518AD78472D5DD18518ED785F2D59D191
:100B480085182D79492D55D185186D794E2D51D19E
:100B58008518AD79542D4DD18518ED79452D49D19C
:100B680085182D7A522D45D185186D7A562D41D18B
:100B78008518AD7A412D3DD18518ED7A4C2D39D1A6
:100B88000F2068E00134A4B28C4263D22200035DD6
:100B9800492B00D1CFE5482B00D1D3E5502B00D10C
:100BA800E1E5422B00D1EFE5522B00D102E6542BB0
:100BB80000D115E6522B00D132E6492B00D14FE681
:100BC800422B00D171E6552B00D193E6502B00D172
:100BD800B5E6542B00D1D7E6542B00D1F9E6432BC8
:100BE80000D11BE7432B00D142E7432B00D16EE72E
:100BF800432B99D0432BC5D183185B78462BC1D1A1
:100C080083189B78472BBDD18318DB785F2BB9D12C
:100C180083181B79422BB5D183185B79412BB1D14D
:100C280083189B79552BADD18318DB79442BA9D137
:100C380083181B7A522BA5D183185B7A412BA1D13B
:100C480083189B7A542B9DD18218D37A452B99D13E
:100C5800102000E0002030BD30B50022CAE0851821
:100C68006D784D2D00D0CCE08518AD78442D00D09E
:100C7800C7E08518ED783F2D00D0C2E00320F7E0EB
:100C880005196D78492D00D0BEE00519AD784E2DB7
:100C980000D0B9E00519ED78472D00D0B4E0022066
:100CA800E6E005196D78532D00D0B0E00519AD7850
:100CB800342D00D0ABE00519ED78382D00D0A6E032
:100CC80005192D79352D00D0A1E00120D0E00519B6
:100CD8006D78452D00D09DE00519AD78532D00D0D5
:100CE80098E00519ED78542D00D093E005192D7979
:100CF800412D00D08EE005196D79522D00D089E084
:100D08000519AD79542D00D084E00420B0E0051910
:100D18006D78452D00D080E00519AD784C2D7CD13B
:100D28000519ED78412D78D105192D79592D74D1F2
:100D380005196D792D2D70D10519AD79312D6CD12D
:100D4800062095E005196D78452D68D10519AD780F
:100D58004C2D64D10519ED78412D60D105192D79F7
:100D6800592D5CD105196D792D2D58D10519AD79FD
:100D7800302D54D105207BE005196D784F2D50D1C9
:100D88000519AD784E2D4CD10519ED78462D48D171
:100D980005192D79492D44D105196D79522D40D168
:100DA8000519AD794D2D3CD1072061E005196D7805
:100DB800492D38D10519AD784D2D34D10519ED7867
:100DC8005F2D30D105192D79522D2CD105196D794A
:100DD800532D28D10519AD79532D24D10519ED7955
:100DE800492D20D105192D7A3F2D1CD108203FE02F
:100DF800013292B28A423AD21400835C432B00D16A
:100E08002DE7502B00D13BE7522B00D149E7522B5D
:100E180000D15CE7522B00D179E7522B92D0432BBB
:100E2800AAD0532BC2D0572BE2D103195B78492B98
:100E3800DED103199B78522BDAD10319DB78452BC5
:100E4800D6D103191B794C2BD2D103195B79452BC9
:100E5800CED103199B79532BCAD10319DB79532BB4
:100E6800C6D10419237A3F2BC2D1092000E0002003
:100E780030BD0000F0B5DE4657464E464546E0B563
:100E88009BB006008846002301936022002102A837
:100E980005F053FD00241AE16B784E2B00D01EE1BB
:100EA800AB78542B00D01AE1EB78452B00D016E133
:100EB8002B79522B00D012E16B79562B00D00EE122
:100EC800AB79412B00D00AE1EB794C2B00D006E13D
:100ED8002B7A3D2B00D030E1A149300005F06CFDA4
:100EE80009239A4682449F4B1B78012B2BD0022B57
:100EF80000D0F4E0002399464B46632B00D9EEE07E
:100F080053464A469B5C0D2B00D1E8E00A2B00D1E2
:100F1800E5E02B2B00D1E2E001AA49465354002317
:100F28009B4601A8FFF7E8F8834522D201AB5A4651
:100F38009B5C303BDBB2092B00D902E15B460133F5
:100F4800DBB29B46EDE7002399465046FFF7D4F8FD
:100F58000238814500D3C2E053464A469B5C303B89
:100F6800DBB2092B00D9EAE04B460133DBB29946E4
:100F7800EBE74B460133DBB29946BDE7F3195B78E3
:100F8800412B00D0AFE0F3199B78552B00D0AAE095
:100F9800F319DB78442B00D0A5E0F3191B79522B09
:100FA80000D0A0E0F3195B79412B00D09BE0F31946
:100FB8009B79542B00D096E0F319DB79452B00D0B0
:100FC80091E0F3191B7A3D2B00D0BCE06649300054
:100FD80005F0F2FC09239A468244002399465046BC
:100FE800FFF78AF8023881457DD253464A469B5C12
:100FF800303BDBB2092B00D9A7E04B460133DBB20B
:101008009946ECE7F3195B784D2B6ED1F3199B7871
:10101800442B6AD1F319DB78532B66D1F3191B796A
:10102800452B62D1F3195B794E2B5ED1F3199B796D
:10103800442B5AD1F319DB793D2B00D087E04B497B
:10104800300005F0B9FC08239A46824400239946EB
:101058005046FFF751F80238814546D253464A4672
:101068009B5C303BDBB2092B00D972E04B46013365
:10107800DBB29946ECE7F3195B784F2B37D1F319BC
:101088009B78522B33D1F319DB78542B2FD1F319DA
:101098001B793A2B2BD13649300005F08DFC431DC6
:1010A8009A46002399465046FFF726F802388145AC
:1010B8001DD253464A469B5C303BDBB2092B4AD8CB
:1010C8004B460133DBB29946EDE70134A4B24445FF
:1010D8002BD227003519335D492B00D1DCE62D785A
:1010E800422D00D14AE7432D8CD0502DC3D0492D35
:1010F800EBD1F3195B78442BE7D1F719BB783A2B7E
:10110800E3D11C49300005F057FCC71C0025380006
:10111800FEF7F2FF02388542D7D27B5D303BDBB267
:10112800092B1AD80135EDB2F1E701201BB0F0BC4C
:10113800BB46B246A946A046F0BD0020F6E700200F
:10114800F4E70020F2E70020F0E70020EEE70020B7
:10115800ECE70020EAE70020E8E70020E6E7C046E1
:101168001874000858170020247400083074000808
:10117800387400084074000830B5A3B00500114B5E
:101188000A221A70104C210010317A32684605F094
:10119800CBFB20686168A268E36802F057FA0B4944
:1011A8000B4805F009FC002809D1FA30C00004F00A
:1011B8001FF8013DADB2002DE1D1002000E0012073
:1011C80023B030BDBE1300202C1600204474000844
:1011D800DC04002010B50C4B984204D00B4B98420D
:1011E80005D000230CE00A4B00221A80F6E7094BD1
:1011F80000221A80F5E7C2180024147001339BB24C
:101208008B42F8D310BDC046DC040020E402002065
:10121800D0060020D804002010B50400114B1B781C
:10122800012B02D0022B0ED010BD0F4A02F076F827
:10123800002802D103F060FFF6E7FA2149002000F8
:10124800FFF7C8FFF0E7084A02F04EF9002802D17C
:1012580003F052FFE8E7FA2149002000FFF7BAFF40
:10126800E2E7C0465817002010270000F0B5A5B0E7
:1012780004001F4B1B78012B03D0022B14D025B080
:10128800F0BD1C4D23901C4B22931C4B219329002D
:1012980010318422684605F047FB28686968AA6807
:1012A800EB6802F0DDF8EAE7154D2E0010368422CF
:1012B8003100684605F038FB28686968AA68EB6859
:1012C80002F0C4F90D4F0F493800FFF7A5FF23942A
:1012D800094B2293219784223100684605F024FBAC
:1012E80028686968AA68EB6802F04CFBC7E7C04643
:1012F80058170020C016002049140020DC040020E4
:101308002C1600204474000810B50548FFF7AEFFFE
:1013180004490548FFF780FF03F0EEFE10BDC04604
:101328005874000854740008DC04002070B50600E6
:101338000D00140006E0012003F05AFF013CA4B29E
:10134800002C1CD0144B1B685A6A052AF3D90022BA
:101358005A62114805F060F829003000FFF7E8F9F3
:101368000E280ED00F280ED010280ED011280ED01F
:1013780012280ED00128DED1FFF7C6FFDBE70620D2
:1013880070BD0120FCE70320FAE70420F8E70220FB
:10139800F6E70520F4E7C0464C15002030B5A3B0A9
:1013A8001B4C2500103584222900684605F0BCFA3C
:1013B80020686168A268E36802F05EF9154803F0E6
:1013C80017FF0023219384222900684605F0ACFA10
:1013D80020686168A268E36802F064F90E490F4862
:1013E800FFF71AFF0520FFF7C7FE002809D1FFF70E
:1013F8008BFF0B4B00221A70642003F0F9FE23B018
:1014080030BDFA2149000548FFF7E4FEF1E7C04680
:101418002C1600203075000054740008DC040020ED
:10142800BE13002070B5A4B01C4B1B78012B03D051
:10143800022B11D024B070BD194C1A4B21932100F6
:1014480010318422684605F06FFA20686168A26846
:10145800E36801F0E7FFEDE7134C2500103584221F
:101468002900684605F060FA20686168A268E368A8
:1014780002F0ECF80D4E0E493000FFF7CDFE094B97
:101488002293219684222900684605F04DFA2068A7
:101498006168A268E36802F0F9F9CBE75817002001
:1014A800C01600202B1400202C160020DC0400207D
:1014B80044740008F0B5C64600B5A6B004000D0097
:1014C8000021EA4802F02EFB431C33D1012C00D145
:1014D800ABE0022C00D1D5E0002C00D088E0E44C31
:1014E800E44B220043CB43C243CB43C21B88138047
:1014F800E14BE383200039300622E04905F014FA75
:10150800200052300922DE4905F00EFA220020326E
:10151800DC4B196821621B79137120006B30102293
:10152800D94905F001FA200089301122D74905F080
:10153800FBF95DE0D64F0021380002F0F3FA020013
:10154800D44CD549200005F001FAD44E1923984609
:101558000193230019330093022332000021D0485D
:1015680002F0A0FB02213000FFF734FECD4E4346C7
:101578000193230032330093022332000021CA482A
:1015880002F090FB02213000FFF724FEC74B98467B
:101598001E260196203C0094072342460021C44899
:1015A80002F080FB07214046FFF714FE08213800AF
:1015B80002F0B8FAE083BF4F019623008933009305
:1015C80005233A000021BC4802F06CFB05213800D5
:1015D800FFF700FEB94F01966B34009404233A00DC
:1015E8000021B74802F05EFB04213800FFF7F2FD46
:1015F800012D00D16FE0022D00D1B3E0B148FFF713
:1016080035FEB14DB14C29002000FFF705FEFA2048
:10161800400003F0EDFDFFF705FF29002000FFF76C
:10162800FBFD26B080BCB846F0BD914CA84B22000B
:1016380043CB43C203CB03C2198811809B789370B4
:10164800A44BE383200039300722A34905F06CF945
:10165800200052300C22A14905F066F92200203200
:10166800884B196821621B79137120006B30102296
:10167800854905F059F9200089301122834905F080
:1016880053F9B5E77A4C964B220043CB43C21B78FB
:101698001370904BE383200039300D22914905F0F7
:1016A80043F9200052300D228F4905F03DF9220000
:1016B8002032744B196821621B79137120006B303A
:1016C8001022714905F030F92000893011226F4944
:1016D80005F02AF98CE7854C270010378422390059
:1016E800684605F021F920686168A268E36801F09E
:1016F80083FE764E7E493000FFF78EFD7D4D2395A3
:101708002B00193B22932B00323B21938422390072
:10171800684605F009F920686168A268E36801F085
:1017280029FE694B984619003000FFF775FD6420C3
:1017380003F05EFD523DEB8B229321958422390004
:10174800684605F0F1F820686168A268E36801F06E
:1017580033FE41463000FFF75FFDFA20400003F0FA
:1017680047FD4BE7644C654B2293012721972600E0
:10177800103684223100684605F0D6F82068616882
:10178800A268E36801F0B2FF4F4B98464F4D19002D
:101798002800FFF741FD22972197842231006846EF
:1017A80005F0C2F820686168A268E36801F0BEFF2E
:1017B80041462800FFF730FD84223100684605F0D5
:1017C800B3F820686168A268E36802F03FF8484F00
:1017D80039002800FFF720FD84223100684605F013
:1017E800A3F820686168A268E36801F0D7FF3900B0
:1017F8002800FFF711FD84223100684605F094F8AF
:1018080020686168A268E36801F0B2FF3C492800DB
:10181800FFF702FD1F4F219784223100684605F02B
:1018280083F820686168A268E36801F0CDFF41464B
:101838002800FFF7F1FC3B00323324933B001933B7
:101848002393203FFB8B2293219784223100684603
:1018580005F06AF820686168A268E36801F0D2FFC1
:1018680028492800FFF7D8FCC8E6C04600D8010878
:10187800C01300206C7400085C070000887400081E
:10188800907400089C740008A4740008B4740008DC
:1018980040D80108E0130020887C0008E4000020FC
:1018A80050D80108B800002060D801089C0000202A
:1018B80010D80108C000002080D80108D4000020FA
:1018C80070D801085075000854740008DC04002022
:1018D800C87400085B070000E0740008E87400089A
:1018E800F47400080475000814750008C016002078
:1018F80024750008121400202C1600202C750008EE
:10190800307500084075000810B50821034803F039
:10191800F7FA012800D0002010BDC046000400508E
:1019280010B5FFF7F1FF002803D00648FFF79EFC2B
:1019380010BDFFF7E9FF0028FAD10348FFF796FC2E
:10194800F6E7C0466C7500087475000872B6FEE7C5
:1019580000B589B01022002104A804F0EEFF0C2283
:10196800002101A804F0E9FF1648174B0360FA2389
:101978005B014360002383600922C2600361436105
:101988008033836104F0BCFE002814D180235B01FE
:10199800049304A90B4804F0EFFE00280DD100239E
:1019A80001930293039301A9064802F047FC00281B
:1019B80005D109B000BDFFF7C9FFFFF7C7FFFFF763
:1019C800C5FFC04668140020002C014000B589B04E
:1019D8001022002104A804F0B0FF0C22002101A865
:1019E80004F0ABFF1548164B0360FA239B014360D4
:1019F80000238360134AC26003618033836104F06B
:101A08007FFE002813D180235B01049304A90B48AF
:101A180004F0B2FE00280CD100230193039301A91E
:101A2800064802F00BFC002805D109B000BDFFF7FD
:101A38008DFFFFF78BFFFFF789FFC04600150020D9
:101A480000040040E703000010B51748174B036077
:101A580096239B01436000238360C36003610C22CB
:101A680042618361C36103624362836204F0B2FA34
:101A7800002811D100210C4804F014FC00280DD1D5
:101A88000021094804F034FC002809D1064804F074
:101A9800E9FB002806D110BDFFF758FFFFF756FFF6
:101AA800FFF754FFFFF752FF981500200038014058
:101AB80010B51748174B0360E1235B02436000230E
:101AC8008360C36003610C2242618361C361036266
:101AD8004362836204F07EFA002811D100210C4889
:101AE80004F0E0FB00280DD10021094804F000FCB7
:101AF800002809D1064804F0B5FB002806D110BD1E
:101B0800FFF724FFFFF722FFFFF720FFFFF71EFF75
:101B18002C1600200044004010B50C480C4B036004
:101B2800E1235B02436000238360C36003610C22EE
:101B380042618361C36103624362836204F04AFACB
:101B4800002800D110BDFFF701FFC046C0160020D5
:101B58000048004000B589B01022002104A804F014
:101B6800ECFE0C22002101A804F0E7FE1548164BF4
:101B78000360FA239B014360002383600922C2604B
:101B8800036143618033836104F0BAFD002813D1F7
:101B980080235B01049304A90A4804F0EDFD0028A2
:101BA8000CD100230193039301A9064802F046FBD8
:101BB800002805D109B000BDFFF7C8FEFFF7C6FE33
:101BC800FFF7C4FEB41400200040014000B585B002
:101BD8000C22002101A804F0B0FE0F480F4B03604F
:101BE800FA239B014360002383600933C360773382
:101BF800836104F085FD00280AD100230193039333
:101C080001A9054802F01AFB002803D105B000BD60
:101C1800FFF79CFEFFF79AFE4C15002000100040CD
:101C280000B593B03422002105A804F086FE1022E6
:101C3800002101A804F081FE8020800003F0F6F95D
:101C480002230593FE3308930023099340220A9246
:101C58000C9305A802F032FB00280DD1072301934D
:101C68000023029303930493002101A802F0D4FDFA
:101C7800002803D113B000BDFFF768FEFFF766FE2A
:101C8800F0B5DE4657464E464546E0B5BFB003F0D0
:101C980089FAFFF7C5FF0021DA4801F043FF431C2A
:101CA80052D1FEF7B1FBFFF753FEFFF78FFEFFF7A8
:101CB800CBFEFFF7FDFEFFF72FFFFFF74BFFFFF708
:101CC80085FF0122D049D14804F06EFA0122D0499B
:101CD800D04804F069FAD04804F0B4FBCF4804F0C7
:101CE800B1FB642003F084FACD4C02232370FFF784
:101CF80055FB21780020FFF7DDFB80210022C90079
:101D0800C84803F004F9FA256D00C74C29002000E3
:101D1800FFF760FAFA22520129002000FFF706FBBC
:101D2800052818D0032800D1CAE3022801D100F001
:101D3800C7FC042801D100F0D7FD012801D100F02B
:101D4800ADFE0628DFD1FEE20021AE4801F0EAFE32
:101D5800B64B1860A5E7363001F088FFB44CB54B98
:101D6800220023CB23C223CB23C21B88138020004D
:101D7800FFF77CFAAC4DB0492800FFF74DFAFA2678
:101D8800760031002000FFF725FA642003F030FACE
:101D980031002800FFF71EFAD73EFF3E51E0A74961
:101DA800A14804F009FE05300023C25C0D2A08D0C2
:101DB8000A2A06D0002A04D09D49CA540133DBB24E
:101DC800F3E7FA2149009848FFF704FAFA219C4CF6
:101DD800C9002000FFF7FEF99A4D9B492800FFF73C
:101DE800F9F92900924802F00BF82100280002F0C6
:101DF8001FF8FA2292002100944801F098FE012869
:101E08003BD09348FFF732FA8B498748FFF704FA2B
:101E1800FA2149008648FFF7DDF9FA24E400210099
:101E28008748FFF7D7F921008648FFF7D3F91E2620
:101E3800FA20800003F0DCF9013EF6B2002E00D152
:101E48006DE2844B05221A70FA2149007648FEF7A4
:101E58006FFC04000500002D09D07F4B1B685A6AEF
:101E6800052AF8D900225A627B4804F0D5FA0D2DCC
:101E7800DED8A400794B1B599F467948FFF7F6F93D
:101E88006D496948FFF7C8F9C2E7FA214900664871
:101E9800FEF7F0FF01280DD07248FFF7E7F9664911
:101EA8006148FFF7B9F9FA2149005F48FFF792F94D
:101EB8001E26BDE76C495C4804F07EFD053004F041
:101EC80008FD0200FA239B000821684801F0B0FED3
:101ED800012807D06648FFF7C9F957495248FFF764
:101EE8009BF9E0E76348FFF7C1F953494E48FFF70C
:101EF80093F9D8E7FA2149004B48FEF7BBFF0128C0
:101F08000DD05D48FFF7B2F94B494748FFF784F910
:101F1800FA2149004448FFF75DF91E2688E757492A
:101F2800414804F049FD033004F0D3FC0200FA23D1
:101F38009B0000214D4801F07BFE012807D0504846
:101F4800FFF794F93C493848FFF766F9E0E74D4850
:101F5800FFF78CF938493448FFF75EF9D8E74A4962
:101F6800314804F029FD09300023C25C0D2A08D04D
:101F78000A2A06D0002A04D02D49CA540133DBB2FC
:101F8800F3E7FA2149002848FFF724F9FA212C4CF5
:101F9800C9002000FFF71EF92A4D2B492800FFF73A
:101FA80019F92900224801F02BFF2100280001F02F
:101FB8003FFFFA2292002100344801F0B8FD0128C1
:101FC80017D03348FFF752F91B491748FFF724F990
:101FD800FA2149001648FFF7FDF8FA24E400210029
:101FE8001748FFF7F7F821001648FFF7F3F81E2601
:101FF8001EE72848FFF73AF90F490B48FFF70CF995
:10200800E6E7C04600E80108DA0400209815002039
:10201800D20600202C16002068140020001500208D
:102028005817002000040050DC04002000000020A5
:10203800EC0000207C7500085474000898750008AE
:10204800EC0B0020D40600201405000010D801086D
:10205800BC750008910000204C150020807D000808
:10206800A0750008107600083874000840D80108E8
:10207800F4750008D87500086476000840740008F4
:1020880048760008307600088476000850D80108A1
:10209800B076000890760008CB49CC4804F08CFC58
:1020A80009300023C25C0D2A08D00A2A06D0002A6B
:1020B80004D0C749CA540133DBB2F3E7FA21490017
:1020C800C248FFF787F8FA21C24CC9002000FFF781
:1020D80081F8C14DC1492800FFF77CF82900BC48A8
:1020E80001F08EFE2100280001F0A2FEFA229200E3
:1020F8002100BB4801F01BFD012817D0B948FFF7A4
:10210800B5F8B949B148FFF787F8FA214900B0484E
:10211800FFF760F8FA24E4002100AE48FFF75AF808
:102128002100AD48FFF756F81E2681E6AF48FFF7B5
:102138009DF8AD49A548FFF76FF8E6E7AC49A34815
:1021480004F03AFC09300023C25C0D2A08D00A2AA0
:1021580006D0002A04D09E49CA540133DBB2F3E703
:10216800FA2149009948FFF735F8FA21994CC90036
:102178002000FFF72FF8984D98492800FFF72AF814
:102188002900934801F03CFE2100280001F050FE90
:10219800FA2292002100974801F0C9FC012817D0C3
:1021A8009548FFF763F890498848FFF735F8FA2112
:1021B80049008748FFF70EF8FA24E4002100854813
:1021C800FFF708F821008448FFF704F81E262FE6D9
:1021D8008A48FFF74BF884497C48FFF71DF8E6E783
:1021E80087497A4804F0E8FB09300023C25C0D2ACD
:1021F80008D00A2A06D0002A04D07549CA540133E7
:10220800DBB2F3E7FA2149007048FEF7E3FFFA2151
:10221800704CC9002000FEF7DDFF6F4D6F492800A4
:10222800FEF7D8FF29006A4801F0EAFD21002800DE
:1022380001F0FEFDFA2292002100724801F077FCBD
:10224800012817D07048FFF711F867495F48FEF773
:10225800E3FFFA2149005E48FEF7BCFFFA24E400D8
:1022680021005C48FEF7B6FF21005B48FEF7B2FF8D
:102278001E26DDE56548FEF7F9FF5B495348FEF782
:10228800CBFFE6E70021624801F04CFC431C05D077
:102298000821604801F046FC431C09D15E48FEF75E
:1022A800E5FF51494948FEF7B7FF02F025FFBFE5B2
:1022B8000021584801F036FC431CEFD00021574854
:1022C80001F030FC431CE9D00021454801F02AFC0C
:1022D800431CE3D000214B4801F024FC431CDDD013
:1022E8000021444801F01EFC431CD7D0FA239B0070
:1022F800002211004A4801F09BFC012807D04948F8
:10230800FEF7B4FF38493148FEF786FFCDE7464867
:10231800FEF7ACFF34492D48FEF77EFFC5E70021E4
:102328003B4801F0FFFB431C06D00821394801F067
:10233800F9FB431C00D087E03748FEF797FF2A498E
:102348002248FEF769FF0821384801F0EBFB431CDF
:1023580001D100F032FD0021354801F0E3FB431CB8
:1023680001D000F033FD0026324C184F2197210090
:1023780010318422684604F0D7FA20686168A268A0
:10238800E36801F0C7F8050000212B4801F0CAFBFB
:10239800104C029001960095284B294A29492000A3
:1023A80004F0D4FA2000FEF761FF0F493800FEF769
:1023B80033FFFA21C9002000FEF70CFFFA20400085
:1023C80002F016FF00F0A6FDD0760008DC0400201D
:1023D800EC000020EC0B0020D406002014050000BF
:1023E80060D80108FC76000854740008DC76000800
:1023F8001C77000870D801084C7700082877000877
:102408007477000880D80108A4770008807700084E
:1024180010D8010840D801080478000850D80108ED
:1024280000D80108F4770008CC77000800F001080C
:1024380000F801082C16002000E00108287C00089C
:102448009C740008307C00080021C74801F06AFB32
:10245800431C00D170E70021C44801F063FB431C12
:1024680000D169E70021C24801F05CFB431C00D1A0
:1024780062E70021BF4801F055FB431C00D15BE730
:102488000021BD4801F04EFB431C00D154E7FA235C
:102498009B0000221100B94801F0CAFB012807D0AF
:1024A800B748FEF7E3FEB749B748FEF7B5FE4AE777
:1024B800B648FEF7DBFEB349B348FEF7ADFE42E788
:1024C800B34CB44B220023CB23C223CB23C21B68BB
:1024D80013602000FEF7CAFEAB4DAA492800FEF79C
:1024E8009BFEFA26760031002000FEF773FE64207A
:1024F80002F07EFE31002800FEF76CFE0027D73E72
:10250800FF3E0FE0042C33D023D9062C26D8052C07
:1025180028D2FA20800002F06BFE013EF6B2002EAF
:1025280000D195E09C4B05221A70FA214900964883
:10253800FEF7FEF805000400002CE3D0974B1B685B
:102548005A6A052AF8D900225A62944803F064FFAF
:10255800D8E7013DEDB2022DDBD803E00E3DEDB228
:10256800032DD6D8FA2149008748FEF733FED0E775
:10257800FA2149008448FEF77DFC01285BD188498F
:10258800814804F019FA0930864B1B78012B09D0D1
:10259800022B1DD0092F1DD996235B009F421AD903
:1025A8003C2718E004F095F90700F3E725A9CA5479
:1025B8000133DBB2632B06D8C25C0D2A03D00A2A8A
:1025C80001D02B2AF2D125A804F083F90700E1E70E
:1025D8000023EFE70A270021734801F0A3FA431C00
:1025E80005D00021704801F09DFA431C2AD03C20F8
:1025F80001F03CFBFA239B003A0000216A4801F0F5
:1026080017FB01281ED10021674801F08BFA431CF3
:1026180009D06648FEF72AFE5A495B48FEF7FCFDDA
:1026280002F06AFD0EE06248FEF720FE5549564862
:10263800FEF7F2FD06E05F48FEF718FE51495248E2
:10264800FEF7EAFDFA2149004F48FEF7C3FD60E7AF
:102658000021554801F066FA431C07D05648FEF79A
:1026680005FE48494848FEF7D7FD6CE63D3001F0C5
:10267800FDFAFA239B002D2200214B4801F0D8FADD
:10268800012807D04D48FEF7F1FD3E493E48FEF7C8
:10269800C3FD58E60021444801F044FA431C07D022
:1026A8004748FEF7E3FD37493748FEF7B5FD4AE6E8
:1026B8004448FEF7DBFD33493348FEF7ADFD42E6FB
:1026C800334C414B220023CB23C223CB23C223CB41
:1026D80023C21B8813802000FEF7C8FD2A4D294914
:1026E8002800FEF799FDFA26760031002000FEF753
:1026F80071FD642002F07CFD31002800FEF76AFDC0
:102708001E250FE0062E61D023D90E3CE4B2032C1F
:1027180023D9FA20800002F06BFD013DEDB2002DB7
:1027280000D1A9E01C4B05221A70FA21490016486D
:10273800FDF7FEFF04000600002EE3D0174B1B68D0
:102748005A6A052AF8D900225A62144803F064FE2E
:10275800D8E7013CE4B2042CDBD8FA2149000A4846
:10276800FEF738FDD5E7C04640D8010850D8010823
:1027780060D8010880D8010870D8010800D801087D
:10278800F477000854740008DC0400202878000856
:10279800EC00002050780008910000204C15002023
:1027A800187400085817002000E001086C78000829
:1027B80094780008B07800082C790008107900088F
:1027C800CC780008EC7800083C790008FA21490028
:1027D800CF48FEF74FFB01280CD0CE48FEF746FD48
:1027E800CD49CB48FEF718FDFA214900C848FEF745
:1027F800F1FC8EE7C949C64804F0DEF8083004F059
:1028080068F80400C72806D9FA235B00984203D960
:10281800FA24640000E0C8240021C14801F082F9CC
:10282800431C05D00021BE4801F07CF9431CDBD0D5
:102838003E2001F01BFAFA239B0022000021B84831
:1028480001F0F6F90128CFD10021B54801F06AF965
:10285800431C09D0B348FEF709FDAF49AC48FEF761
:10286800DBFC02F049FCBFE7AF48FEF7FFFCAA49D2
:10287800A748FEF7D1FCB7E70021A94801F052F9B3
:10288800431C07D0A948FEF7F1FCA349A048FEF76E
:10289800C3FC58E53F3001F0E9F9FA239B00C82250
:1028A80000219F4801F0C4F9012807D0A048FEF78D
:1028B800DDFC99499648FEF7AFFC44E500219848AD
:1028C80001F030F9431C07D09A48FEF7CFFC924933
:1028D8008F48FEF7A1FC36E59748FEF7C7FC8E49FE
:1028E8008B48FEF799FC2EE5944C954B220023CBA0
:1028F80023C223CB23C2196811601B7913712000EE
:10290800FEF7B4FC824D84492800FEF785FCFA26C0
:10291800760031002000FEF75DFC642002F068FCC0
:1029280031002800FEF756FCD73EFF3E0BE0013D84
:10293800EDB2032D27D9FA20800002F059FC013EA0
:10294800F6B2002E71D07F4B05221A70FA21490089
:102958006F48FDF7EDFE05000400002C09D07A4B06
:102968001B685A6A052AF8D900225A62764803F089
:1029780053FD052C0DD0DAD9062C04D0DBD30E3D3F
:10298800EDB2032DD7D8FA2149006148FEF722FCA1
:10299800D1E7FA2149005E48FEF76CFA01280CD00D
:1029A8006A48FEF763FC5C495948FEF735FCFA2192
:1029B80049005748FEF70EFCBDE76549544803F047
:1029C800FBFF093003F085FF04000021614801F096
:1029D800A9F8431C05D000215E4801F0A3F8431C68
:1029E800E5D03D2001F042F9FA239B0022000021A6
:1029F800584801F01DF90128D9D10021554801F0A6
:102A080091F8431C09D05448FEF730FC424940482D
:102A1800FEF702FC02F070FBC9E75048FEF726FCFF
:102A28003D493B48FEF7F8FBC1E70021494801F062
:102A380079F8431C07D03D48FEF718FC364934485E
:102A4800FEF7EAFB7FE43E3001F010F9FA239B0021
:102A5800434A126800213F4801F0EAF8012807D0EC
:102A68004048FEF703FC2C492948FEF7D5FB6AE4E9
:102A78000021384801F056F8431C07D03A48FEF7C1
:102A8800F5FB25492248FEF7C7FB5CE43748FEF70B
:102A9800EDFB21491E48FEF7BFFB54E4274C344B9D
:102AA800220023CB23C223CB23C2196811609B8841
:102AB80093802000FEF7DAFB154D17492800FEF732
:102AC800ABFBFA26760031002000FEF783FB64207A
:102AD80002F08EFB3F2001F0C9F831002800FEF714
:102AE80079FB002635001E239846E4E02149084872
:102AF80003F062FF06300023C25C0D2A3CD00A2A8C
:102B08003AD0002A38D00D49CA540133DBB2F3E772
:102B1800DC040020B0790008547400083074000800
:102B280000F0010864790008907900082C79000801
:102B3800207A0008D4790008F8790008EC00002011
:102B4800447A0008910000204C150020A87A00085B
:102B58002474000800E80108647A00088C7A0008E8
:102B6800000000200C7B0008C87A0008E87A0008FA
:102B78002C7B00084C7B0008FA214900AE48FEF780
:102B880029FBFA21AD4CC9002000FEF723FBAC4F0E
:102B98002100380001F04CF93800FDF7ADFA410882
:102BA800C9B2200001F0DCF804003800FDF7A4FAEF
:102BB800C30740D4002C3ED0312D28D80135EDB2C2
:102BC800FA239B009846220000219E4837183800B7
:102BD80001F02EF804004346984A0821380000F016
:102BE800E9FF0443E4B2012C07D09748FEF73EFB07
:102BF80096499148FEF710FB24E01036B6B2944887
:102C0800FEF734FB91498C48FEF706FB1AE0914821
:102C1800FEF72CFB8D498848FEF7FEFAFA21C90019
:102C28008648FEF7D7FAFA2149008548FEF7D2FA16
:102C38001E23984635E08848FEF718FB83497E48EE
:102C4800FEF7EAFAFA21C9007C48FEF7C3FAFA212E
:102C580049007B48FEF7BEFA1E23984621E0FA2376
:102C68009B002A0000217D4800F0E2FF012809D0DE
:102C78007B48FEF7FBFA75496F48FEF7CDFA1E232D
:102C880098460EE07748FEF7F1FA70496A48FEF771
:102C9800C3FA02F031FA04E0FA2149006648FEF767
:102CA80099FAFA20800002F0A3FA4346013BDBB20E
:102CB8009846002B1BD06C4B05221A70FA2149004C
:102CC8005D48FDF735FD04000700002F09D0674B6C
:102CD8001B685A6A052AF8D900225A62634803F029
:102CE8009BFB112FDDD8A400614B1B599F46002187
:102CF8005A4800F017FF431C0ED000215D4800F031
:102D080011FF431C2FD05C48FEF7B0FA4F494A48E0
:102D1800FEF782FAFFF717FBFA239B002A0000212F
:102D28004E4800F085FF012807D05448FEF79EFA68
:102D380046494148FEF770FADFE70021474800F0AE
:102D4800F1FE431C07D04E48FEF790FA3F493A4837
:102D5800FEF762FAD1E74B48FEF788FA3B49364856
:102D6800FEF75AFAC9E73D3000F080FFFA239B00CE
:102D78002D2200213F4800F05BFF012807D0424880
:102D8800FEF774FA31492C48FEF746FABBE70021F2
:102D9800384800F0C7FE431C07D03C48FEF766FAE7
:102DA8002A492548FEF738FAADE73948FEF75EFAB2
:102DB80026492148FEF730FAA5E7FA239B00C822E6
:102DC8000821344800F034FFFFF7C5FA00212348F2
:102DD80000F0A8FE002802D10026FFF7C5FA00215E
:102DE8001E4800F09FFEC6B2FFF7BEFA0021214838
:102DF80000F098FE284B186094E0323002F0F8F9A1
:102E08002021264802F07CF8002800D091E02021FB
:102E1800224802F075F80128F2D12148FEF726FA77
:102E280087E02048FEF722FA08490348FEF7F4F93C
:102E38001D4B00221A7086E0DC040020EC0B0020F9
:102E4800EC00002010F80108707B0008547400089A
:102E5800547B0008907B0008A07B000800F801085C
:102E6800F4770008CC770008910000204C1500206A
:102E7800B87D000800E001082C790008047C0008EF
:102E8800B87B0008DC7B000810790008CC780008C3
:102E9800EC78000800F001085417002000040050E6
:102EA8008C7C0008947C0008E90B0020FEF72CFAC3
:102EB800E34B1B78002B00D119E2E24C200003F011
:102EC800F9FAFEF72DFDFA214900DF48FEF782F9ED
:102ED800FA21C900DD48FEF77DF9DD49DD48FEF736
:102EE80079F90221DC48FEF775F9802100230122D7
:102EF8008901DA4800F01BFFFA2002F079F9200076
:102F080003F0A0FACE4B00221A70FA214900CE48ED
:102F1800FEF760F9FEF7F8FC002800D166E7D04B11
:102F28000A221A602021CF4801F0EAFF002800D1C8
:102F380063E7CD4B96221A70002E04D1CB4B1B7839
:102F4800012B00D16DE7FA214900C948FDF784FE3D
:102F580004000500002D09D0C64B1B685A6A052AD3
:102F6800F8D900225A62C34803F056FA092D9FD8AF
:102F7800A400C14B1B599F46FA214900B248FEF7ED
:102F880029F9BE49BA4803F017FD06300023FA2292
:102F9800520093420BD2C25C0D2A08D00A2A06D0EE
:102FA800002A04D0B649CA5401339BB2EFE7FA2489
:102FB80064002100A448FEF70DF92100AC48FEF793
:102FC80009F9FA21A14DC9002800FEF703F9AC4C14
:102FD8002900200000F02CFF2000FDF78DF84108A3
:102FE800C9B2280000F0BCFE05002000FDF784F8F7
:102FF800C30701D4002D1AD1A248FEF737F9A24918
:103008009B48FEF709F9FA24640021008E48FEF770
:10301800E1F8FA21C9008D48FEF7DCF88C498D48A3
:10302800FEF7D8F821009648FEF7D4F840E78E4B13
:103038000A221A709248FDF75FF84208FA2392B202
:103048009B008249914802F013FFFA2149007E480B
:10305800FEF7C0F8962464008D4B1B685A6A052A4F
:1030680007D8012002F0C4F8013CA4B2002CF3D127
:1030780004E000225A62864803F0CEF9FA22FA21C7
:1030880092004900704800F09FFE002829D070493E
:103098007048FEF79FF8FA21C9006C48FEF79AF8C5
:1030A8007C4B1978684800F05BFE002810D0694D09
:1030B800784B19882A00644800F007FF634C2A00FF
:1030C8007549200003F042FC2000FEF7CFF896E790
:1030D8007248FEF7CBF8FA2149005B48FEF77AF808
:1030E8008DE76F48FEF7C2F889E700216D4800F0C8
:1030F80019FD82460300013B033301D8002853D150
:103108006948FEF7B3F860495948FEF785F8CFE6F5
:103118005B46E81800F009FDA3004F4AD05004357B
:10312800EDB20134E4B2012CF2D91037BFB2484BEA
:103138009B46484C19002000FEF74CF84B4699B2C4
:103148002200454800F0C1FE404D00942D234B4A13
:103158005649280003F0FAFB2800FEF787F84A4989
:103168004348FEF759F8FA21C9002800FEF732F85B
:1031780059462000FEF72EF8FA2149003248FEF79A
:1031880029F843460133DBB29846D04500D38FE691
:10319800474B9B46BB440021584600F0C3FCC3B2D2
:1031A800994600240825BEE7002398460027ECE747
:1031B800FEF7B6FB34492E48FEF72EF8FA21C9006F
:1031C8002248FEF707F873E63A48FEF74FF82E490B
:1031D8002748FEF721F81A4B01221A7068E6364C88
:1031E800234F219710239846A044842241466846DD
:1031F80003F09AFB20686168A268E36800F08AF926
:103208000200124D2D49280003F0A0FB22952197BA
:1032180084224146684603F087FB20686168A268FB
:10322800E36800F0A9F92800FEF720F816493800ED
:10323800FDF7F2FFFA21C9002800FDF7CBFF37E6BA
:10324800E102002000150020E4020020EC0B002021
:1032580014050000D4060020940000200008005047
:10326800541700200004005091000020E90B0020B2
:10327800DC0400204C150020007E00084C7B000870
:10328800EC000020A07B000854740008981500206A
:10329800B4140020D8040020A47C0008B07C0008E6
:1032A800C47C000800F80108D87C0008D07C00081D
:1032B80010F80108F07C00082C160020007D00089A
:1032C800104B1B78022B0AD0012B00D0F0E50E48DA
:1032D800FDF7CCFF0D490E48FDF79EFFE8E50D48C8
:1032E800FDF7C4FF09490A48FDF796FFE0E50A49DA
:1032F800074803F061FB002800D106E601F0FCFE58
:1033080003E6C046581700204C7D00085474000896
:10331800DC040020247D0008747D000870B50600D8
:103328000D0014002900300003F046FB002808D1E6
:10333800013001F05DFF013CA4B2002CF2D1002065
:1033480000E0012070BD000084B010B50290039128
:103358000492059364230C22054902A802F088FD13
:10336800642001F045FF10BC08BC04B01847C046F3
:10337800287E000884B000B5CFB050905191529289
:103388005393779B0093769B759A0A4903A803F099
:10339800DDFA03A8FCF7B0FE82B2642303A950A8A3
:1033A80002F066FD642001F023FF4FB008BC04B0B2
:1033B8001847C046387E000884B000B5CDB04E909E
:1033C8004F915092519374AB1B88739A094901A885
:1033D80003F0BCFA01A8FCF78FFE82B2642301A9AE
:1033E8004EA802F045FD642001F002FF4DB008BC74
:1033F80004B01847647E000884B010B502900391A9
:103408000492059364231022054902A802F030FDB6
:10341800642001F0EDFE10BC08BC04B01847C0469B
:10342800807E000884B000B5B3B0349035913692F0
:103438003793599A0949684603F088FA6846FCF7B1
:103448005BFE82B26423694634A802F011FD642051
:1034580001F0CEFE33B008BC04B01847947E0008D3
:1034680084B070B59AB01E901F9120922193439E0C
:10347800459D2800FCF740FE0300449A194901A81D
:1034880003F064FA01A8FCF737FE82B2642301A9AD
:103498001EA802F0EDFCC82001F0AAFEFA24E40000
:1034A8003E21300003F072FA002809D1012001F012
:1034B8009FFE013CA4B2002CF2D101F01DFEEFE703
:1034C8002800FCF719FE82B2642329001EA802F026
:1034D800CFFC642001F08CFE1AB070BC08BC04B0AC
:1034E8001847C046AC7E000870B506000D001400F1
:1034F8002900300003F060FA002808D1013001F0FB
:1035080077FE013CA4B2002CF2D1002000E001209B
:1035180070BD000084B030B583B006900791089262
:1035280009930023019364330822114906A802F085
:103538009FFC642001F05CFE0E492B9803F03CFAD6
:10354800851D002403E001AA13550134E4B22800C4
:10355800FCF7D2FD844202D22B5D2C2BF3D101A8BB
:1035680003F0B7F940B203B030BC08BC04B0184748
:10357800CC7E0008D87E000884B000B583B00490E3
:10358800059106920793002300936A4613716433EA
:103598000A22274904A802F06BFC642001F028FEE7
:1035A8002449299803F008FA811C0522684603F08B
:1035B800BBF96B461B79352B0ED0342B17D0322B29
:1035C80020D0312B29D01A221B492A9803F0ACF9B4
:1035D80003B008BC04B018472A98FCF78DFD2A9B55
:1035E8009C4660440D22154903F09EF9F0E72A989D
:1035F800FCF782FD2A9B9C4660440822104903F090
:1036080093F9E5E72A98FCF777FD2A9B9C466044E6
:103618000A220C4903F088F9DAE72A98FCF76CFDCE
:103628002A9B9C4660440922074903F07DF9CFE7AD
:10363800E07E0008EC7E0008207F0008F07E00088D
:10364800007F0008087F0008147F000884B010B5C8
:10365800029003910492059364230A22054902A863
:1036680002F006FC642001F0C3FD10BC08BC04B0E5
:103678001847C0463C7F000884B010B502900391FB
:103688000492059364230B22054902A802F0F0FB7B
:10369800642001F0ADFD10BC08BC04B01847C0465A
:1036A800487F000884B010B50290039104920593F6
:1036B80027AB1B78002B0ED0012B05D163330622D4
:1036C800084902A802F0D4FB642001F091FD10BC67
:1036D80008BC04B0184764230622034902A802F074
:1036E800C7FBF1E7547F00085C7F000884B000B591
:1036F8008BB00C900D910E920F9331AB1A78329BD0
:103708000949684603F022F96846FCF7F5FC82B2DD
:10371800642369460CA802F0ABFB642001F068FD45
:103728000BB008BC04B01847647F000884B000B52B
:1037380087B0089009910A920B932DAB1B782EAA9B
:1037480012780A4901A803F001F901A8FCF7D4FC92
:1037580082B2642301A908A802F08AFB642001F060
:1037680047FD07B008BC04B01847C046807F000872
:1037780084B010B5029003910492059364230F223C
:10378800054902A802F074FB642001F031FD10BC69
:1037980008BC04B01847C046947F000884B010B530
:1037A800029003910492059364230E22054902A80E
:1037B80002F05EFB642001F01BFD10BC08BC04B0E5
:1037C8001847C046A47F000884B000B58FB0109099
:1037D800119112921393359A094901A803F0B6F88A
:1037E80001A8FCF789FC82B2642301A910A802F0A1
:1037F8003FFB642001F0FCFC0FB008BC04B0184784
:10380800B47F000884B000B5CFB050905191529267
:10381800539376AB1B88789A0192779A0092759A9F
:10382800094903A803F092F803A8FCF765FC82B2E3
:10383800642303A950A802F01BFB642001F0D8FC04
:103848004FB008BC04B01847CC7F000884B010B54E
:10385800029003910492059364231422094902A853
:1038680002F006FB642001F0C3FC64230F22064922
:1038780002A802F0FDFA642001F0BAFC10BC08BCF2
:1038880004B01847008000081880000884B070B59C
:10389800B2B036903791389239935B9E5C9D280080
:1038A800FCF72AFC02003249684603F04FF86846E4
:1038B800FCF722FC82B26423694636A802F0D8FAE3
:1038C800022001F095FCFA24E4003E21300003F0C8
:1038D8005DF8002809D1012001F08AFC013CA4B25E
:1038E800002CF2D101F008FCEFE72800FCF704FCFB
:1038F80082B26423290036A802F0BAFA1D4A1E498A
:103908003000FFF7F1FD002801D0002307E001F0A7
:10391800F3FB06E000226946CA5401339BB2C72B69
:10392800F8D9642001F064FC64230F22134936A8F7
:1039380002F09EFA022001F05BFC0E4A10493000AA
:10394800FFF7D2FD002801D0002307E001F0D4FBE7
:1039580006E000226946CA5401339BB2C72BF8D946
:10396800642001F045FC32B070BC08BC04B01847B4
:1039780028800008102700005474000844800008BC
:103988005480000884B0F0B55F4CA544CE90CF9128
:10399800D092D193F39DF49FF59C3800FCF7ACFBD3
:1039A80002005A49684602F0D1FF6846FCF7A4FBBA
:1039B80082B264236946CEA802F05AFA022001F0C6
:1039C80017FCFA26F6003E21280002F0DFFF002847
:1039D80009D1012001F00CFC013EB6B2002EF2D153
:1039E80001F08AFBEFE73800FCF786FB82B264231C
:1039F8003900CEA802F03CFA454A46492800FFF7AC
:103A080073FD002801D0002307E001F075FB08E0F2
:103A180000226946CA5401339BB2C82292009342DD
:103A2800F6D3642001F0E4FB2000FCF765FB0200FC
:103A38003949684602F08AFF6846FCF75DFB82B2A6
:103A480064236946CEA802F013FA022001F0D0FBE5
:103A5800FA26F6003E21280002F098FF002809D136
:103A6800012001F0C5FB013EB6B2002EF2D101F0F3
:103A780043FBEFE72000FCF73FFB82B26423210001
:103A8800CEA802F0F5F9224A22492800FFF72CFDBA
:103A9800002801D0002307E001F02EFB08E00022F7
:103AA8006946CA5401339BB2C82292009342F6D3A6
:103AB800642001F09DFB642314221849CEA802F06B
:103AC800D7F9022001F094FB114A15492800FFF7A5
:103AD8000BFD002801D0002307E001F00DFB08E0F2
:103AE80000226946CA5401339BB2C822920093420D
:103AF800F6D3642001F07CFBC9239B009D44F0BCF5
:103B080008BC04B01847C046DCFCFFFF6080000812
:103B1800102700005474000878800008908000087E
:103B2800A880000809180868704700687047F0B551
:103B3800D6464F464646C0B582468946150001F02E
:103B480085F800239846002706E0012001F050FB85
:103B5800013DADB2002D21D03C014B461B191A681E
:103B68005B68110019431DD04646564431000120B8
:103B780001F0C8F80028E8D108344C44226863688A
:103B880031000831013001F0BDF80028DDD143468D
:103B980010339BB298460137BFB2DDE701F06EF8EB
:103BA800002002E001F06AF80120E0BCBA46B14604
:103BB800A846F0BDF8B507000D0016001C0010E07F
:103BC8007368B2681343E9193268012001F09AF862
:103BD800002821D0012001F00BFB013CA4B2002CED
:103BE8001ED001F033F8002DEAD0082DF9D1736802
:103BF800B2681343E9193268012001F083F80028FC
:103C080012D0012001F0F4FA013CA4B2002CE8D152
:103C180001F034F8002002E001F030F80120F8BD8E
:103C280001F02CF82800FAE701F028F80120F6E75F
:103C3800F8B507000E0015001C0001F007F8F1198F
:103C48002A000023012001F05DF800280AD0012095
:103C580001F0CEFA013CA4B2002CEED101F00EF82E
:103C6800002002E001F00AF80120F8BD70B5050057
:103C780000F0ECFFFA26B600300001F00FF8084C0F
:103C8800202323612900042001F06EF8300001F0A0
:103C980005F8636902229343636100F0EFFF70BD8A
:103CA80000200240F0B5DE4657464E464546E0B590
:103CB80083B000AF38600D007A6098462823082248
:103CC8009B18DB1904CB91461B889B4643469B00F7
:103CD8000733DB08DB006A46D31A9D46EA46002410
:103CE8000CE0A6007B689C46664429003868FFF70C
:103CF80019FF30600435EDB20134E4B2A3B2434594
:103D0800EFD37968504602F04FFE002305E0524693
:103D1800D25C4946CA5401339BB25B45F7D3BD46D2
:103D280003B0F0BCBB46B246A946A046F0BD10B5EC
:103D38001C00012B06D0012A0ED0012201F0E7F861
:103D4800002010BD012A04D0002201F0E0F8200074
:103D5800F7E701F0DCF8FAE7002201F0D8F8EFE71E
:103D680070B505000C00002000210026144A0FE061
:103D780052080133DBB2072B06D8D107F8D5520811
:103D880010494A4092B2F4E7160AD1B20130C0B2E3
:103D9800A31E984203DA2B5C5A400023EBE72B1949
:103DA800023B1B788B4208D12D19013D2B78B34279
:103DB80001D0002002E0A0B200E0002070BDC046A3
:103DC800FFFF000001A0FFFFF8B506000D00170077
:103DD80000240FE0F25C1419A4B201339BB2AB4289
:103DE800F8D3002C09D1012001F002FA013FBFB23B
:103DF800002F01D00023F2E73C002000F8BD0000AE
:103E0800F8B507000E000025002407E0301907491F
:103E180002F09CFD0135ADB20234A4B27A5D002AED
:103E2800F4D1341900232370F8BDC046B4800008CB
:103E3800F8B506000F0000241FE01300613BDBB259
:103E4800052B04D8203AD2B212017A5525E0130086
:103E5800413BDBB2052B20D8373AD2B212017A5552
:103E68001BE01300613BDBB2052B22D8203A52B28B
:103E78007B5D1A437A550134E4B225003000FCF723
:103E88003BF9400884421FD26100725C1300303B4A
:103E9800DBB2092BD1D81B017B5571184A78130066
:103EA800303BDBB2092BDCD85BB27A5D13437B5520
:103EB800E1E71300413BDBB2052BDCD8373A52B2BD
:103EC8007B5D1A437A55D6E7F8BD70B5002309E043
:103ED8005E0001363734945510E05D003734545590
:103EE80001339BB28B4211D2C518C65C0F243440F3
:103EF800092CEDD85E000136303494552D782C0904
:103F08009F2DEAD85D0030345455E9E770BDFEE7CF
:103F1800FEE77047704710B501F058F910BD10B5AD
:103F280000F032FE10BD704710B5024802F0E2FA08
:103F380010BDC0466814002010B5024802F0DAFA35
:103F480010BDC0466814002010B5024802F0D2FA2D
:103F580010BDC0460015002010B5024802F0CAFA8C
:103F680010BDC0464C15002010B5024802F0C2FA38
:103F780010BDC046B414002010B5024801F0AAF9DB
:103F880010BDC0469815002010B5024801F0A2F9EE
:103F980010BDC0462C16002010B5024801F09AF951
:103FA80010BDC046C016002000B583B0134B196C75
:103FB800012211431964196C0A400092009ADA6BC5
:103FC800802149050A43DA63DB6B0B400193019BAF
:103FD80000220021032001F053F8032001F080F8AB
:103FE80000220021042001F04BF8042001F078F8A9
:103FF800C020C00001F00EF903B000BD001002405F
:1040080000B585B00368304A93420AD02F4A9342DC
:1040180022D02F4A934231D02E4A934240D005B045
:1040280000BD2D4A116C8020000101431164136CFE
:1040380003400093009B002203210D2001F020F88B
:104048000D2001F04DF8002203210E2001F018F890
:104058000E2001F045F8E2E71F4AD16B022319430D
:10406800D163D26B13400193019B002202211020DF
:1040780001F006F8102001F033F8D0E7164AD16BAA
:1040880010231943D163D26B13400293029B002281
:104098000021112000F0F4FF112001F021F8BEE703
:1040A8000D4A116C8020400201431164136C0340D7
:1040B8000393039B00220021142000F0E1FF142049
:1040C80001F00EF8ABE7C046002C014000040040A8
:1040D80000100040004001400010024010B592B0AE
:1040E8000400142200210DA802F027FC1C22002144
:1040F80006A802F022FC23684B4A934207D04B4A99
:10410800934238D04A4A934267D012B010BD012377
:10411800069306A800F060FC002829D1454B196CCD
:104128008020C001014319641A6C02400092009A71
:10413800596B0122114359635B6B13400193019B37
:10414800C023DB000D9302230E9300230F93033348
:1041580010931192A0200DA9C00500F015FE0022B1
:1041680001211B2000F08CFF1B2000F0B9FFCCE7D9
:10417800FDF7ECFBD2E70223069306A800F02CFC1F
:10418800002827D12B4BD96B802080020143D963AB
:10419800DA6B02400292029A596B01221143596369
:1041A8005B6B13400393039B0C230D930A3B0E9305
:1041B8000F93013310931192A0200DA9C00500F0B0
:1041C800E3FD002200211C2000F05AFF1C2000F013
:1041D80087FF9AE7FDF7BAFBD4E7164BD96B802027
:1041E800C0020143D963DA6B02400492049A596B06
:1041F8000222114359635B6B13400593059B05230A
:104208000D930E920F92023B1093013311930DA957
:10421800094800F0B9FD002201211D2000F030FFFF
:104228001D2000F05DFF70E70038014000440040A9
:1042380000480040001002400004005030B53C2304
:10424800C35C012B2CD03C230122C2540133013220
:10425800C254026853689468124DAA421BD0702554
:10426800AB430D682B43536003680E4A934205D055
:104278000D4A934202D00D4A934204D180229443BE
:104288008A6814439C603D230122C254013B0022EA
:10429800C254002030BD064D2B404D682B43DEE74D
:1042A8000220F7E7002C01400004004000400140D4
:1042B800FFFF0FFF704770477047000070B582B06E
:1042C800041E00D129E20368DB0739D5C14A916889
:1042D80038230B40D16803220A40102B26D0082B24
:1042E80026D063688022520293427FD0A022D20255
:1042F800934200D181E0B74B1A68B7490A401A6067
:104308001A68B6490A401A606368002B00D180E039
:1043180000F068FF0500AF4B1B689B0310D400F04A
:1043280061FF401B6428F6D90320F7E1032AD6D1A0
:10433800A84B1B689B0303D56368002B00D1EFE1F2
:1043480023689B0731D5A34A936838210B40D1686D
:1043580003220A40102B6AD0002B6BD19D4A1268A9
:10436800520503D5E268002A00D1DBE1994842688A
:104378009B490A40616909020A434260002B0DD13A
:10438800036898490B4021690B4303600368DB0A03
:1043980007221A40944BD340944A1360944B1868F0
:1043A80000F0D4FE002800D0BEE123681B0700D42B
:1043B80081E0884B9A6838231340182B73D0A3697F
:1043C800002B00D1B4E0834A136E01210B4313661E
:1043D80000F008FF05007F4B1B6E9B076BD400F0B5
:1043E80001FF401B0228F6D9032097E1794A11689A
:1043F80080235B020B43136086E7764B19688022A3
:10440800D2020A431A601968802252020A431A60CB
:104418007AE700F0E7FE05006E4B1B689B038FD51B
:1044280000F0E0FE401B6428F6D9032076E1022A5A
:1044380092D193E7E368002B22D0664A1368694952
:104448000B4021690B431360116880235B000B4309
:10445800136000F0C7FE05005E4B1B685B0506D4C1
:1044680000F0C0FE401B0228F6D9032056E1594946
:104478004B685B4A13406269120213434B6094E72E
:10448800544A13685B490B40136000F0ABFE05000B
:10449800504B1B685B0588D500F0A4FE401B022822
:1044A800F6D903203AE14B4B1B6E9B0703D5A36952
:1044B800002B00D13AE123685B0700D4A2E0454B0A
:1044C8009A6838231340202B45D0424BDB6BDB0026
:1044D8004AD4404AD16B802040050143D163D36B55
:1044E80003400193019B0125434B1B68DB053DD528
:1044F800A368012B4ED0052B52D0364BDA6D012123
:104508008A43DA65DA6D03318A43DA65A368002BDA
:1045180050D000F067FE06002E4BDB6D9B076FD472
:1045280000F060FE801B354B9842F5D90320F5E07A
:10453800284A136E01218B43136600F053FE0500D1
:10454800244B1B6E9B07B6D500F04CFE401B02287F
:10455800F6D90320E2E01F4BDB6D9B0752D5A36819
:10456800002B4FD10120D9E00025BDE7224A116870
:1045780080235B000B43136000F034FE06001E4BE3
:104588001B68DB05B4D400F02DFE801B0228F6D989
:104598000320C3E00F4AD36D01210B43D365B5E770
:1045A8000C4BDA6D04210A43DA65DA6D03390A43E4
:1045B800DA65ABE700F016FE0600064BDB6D9B07DD
:1045C8001ED500F00FFE801B0C4B9842F5D9032036
:1045D800A4E0C04600100240FFFFFEFFFFFFFBFF04
:1045E800FF80FFFFFFC7FFFF0024F4000C0000203E
:1045F80008000020FFFEFFFF007000408813000045
:10460800012D1ED0E369002B00D191E04F4A91683B
:1046180038220A40102A5ED0022B18D04B4A136861
:104628004B490B40136000F0DDFD0400474B1B684D
:104638009B0149D500F0D6FD001B0228F6D90320BE
:104648006CE0424AD36B43490B40D363DAE73F4AF5
:1046580013683F490B40136000F0C4FD05003B4B55
:104668001B689B0106D500F0BDFD401B0228F6D94A
:10467800032053E0354AD36837491940236A606AF2
:104688000343A06A00020343E06A0343206B034329
:104698000B43D360116880235B040B431360D1681C
:1046A80080235B050B43D36000F09CFD0400274B7F
:1046B8001B689B0106D400F095FD001B0228F6D963
:1046C80003202BE0002029E0204AD36823490B402F
:1046D800D360002022E0012B2CD01C4BDA68032386
:1046E8001340216A8B4227D170231340616A8B42A1
:1046F80024D1FE21C9011140A36A1B0299421FD18E
:10470800F8239B031340E16A8B421BD1520F5207D7
:10471800236B9A4218D1002000E0012002B070BD3E
:104728000120FBE70120F9E70120F7E70120F5E781
:104738000020F3E70120F1E70120EFE70120EDE792
:104748000120EBE70120E9E70120E7E7001002403C
:10475800FFFFFFFEFFFFFFEF8C80C11FFCFFFEEF96
:1047680010B52A4B9B6838221A4207D1274B1A6882
:10477800D20A072313402648D84010BD234B9A6815
:1047880038231340082B3BD0204B9A68382313401A
:10479800102B0DD01D4B9A6838231340202B31D095
:1047A8001A4B9A6838231340182B26D00020E4E7C8
:1047B800164AD1680D3B0B40D268120907211140F7
:1047C8000131032B0FD01248FBF7A8FC0F4BDA6816
:1047D800120A7F23134058430C4BD968490F013103
:1047E800FBF79CFCC9E70B48FBF798FC074BDA681A
:1047F800120A7F2313405843EEE7FA20C001BCE7B2
:104808000448BAE780200002B7E7C046001002401B
:104818000024F40000127A0070B504000D0000288E
:1048280000D1AAE0574B1A68072313408B4221D3C3
:1048380023689A070ED55B0705D5534A9168E0238C
:10484800DB010B439360504A936850490B40A168C1
:104858000B4393602368DB0754D56368012B20D092
:10486800022B3BD0002B3FD1474A126852051CD47B
:1048780001206AE0434A136807218B432B431360E6
:1048880000F0B0FC06003F4B1A6807231340AB4208
:10489800CED000F0A7FC801B3D4A9042F3D90320FC
:1048A80053E0394A1268920369D537498A68072064
:1048B800824313438B6000F095FC0600324B9B68E3
:1048C80038221A406368DB009A421BD000F08AFC49
:1048D800801B2F4B9842F1D9032036E02A4A1268F0
:1048E8009201E2D4012030E0032B05D0264AD26D94
:1048F8009207DAD4012028E0234A126E9207D4D412
:10490800012022E01F4B1A6807231340AB421DD831
:1049180023685B0706D51C4A93681E490B40E1686B
:104928000B439360FFF71CFF174B9A68120A0F237B
:1049380013409B00184A9A581F231340D840174B1E
:104948001860174B186800F001FC70BD0D4A136819
:1049580007218B432B43136000F044FC0600094BEE
:104968001A6807231340AB42D2D000F03BFC801BEF
:10497800074B9842F3D90320E7E70120E5E7012038
:10498800E3E7C0460020024000100240FFF0FFFFAE
:1049980088130000FF8FFFFFE48000080C00002050
:1049A80008000020014B18687047C0460C00002022
:1049B80010B5FFF7F7FF064B9A68120B0723134051
:1049C8009B00044A9A581F231340D84010BDC04684
:1049D8000010024024810008F0B583B00400036889
:1049E8009B0362D5584BDB6BDB001ED4564AD16B58
:1049F800802040050143D163D36B03400193019BA1
:104A08000126524A116880235B000B43136000F0B3
:104A1800E9FB05004D4B1B68DB0508D400F0E2FB01
:104A2800401B0228F6D9032502E00026E9E7002505
:104A3800002D23D1444BD96DC02292000B001340A6
:104A4800114210D0A2699A420DD03F4AD36D404915
:104A58000B40D06D802149020143D165D16D3D489D
:104A68000140D165D365DB0710D4002D06D1364A45
:104A7800D36D37490B40A1690B43D365012E15D17E
:104A8800314AD36B34490B40D3630FE000F0AAFBE3
:104A980007002D4BDB6D9B07E7D400F0A3FBC01B81
:104AA8002E4B9842F5D90325DFE700252368DB075D
:104AB80006D5254A536D03218B4361680B43536523
:104AC80023689B0706D5204A536D0C218B43A168A8
:104AD8000B43536523689B0606D51B4A536D204933
:104AE8000B40E1680B43536523685B040BD5164AFA
:104AF800536D9B009B0861690B4353658023DB055D
:104B080062699A4211D023681B050BD50E4A536D72
:104B180014490B4021690B43536522698023DB014B
:104B28009A4209D0280003B0F0BD074AD168802313
:104B38005B020B43D360E6E7034AD16880235B023C
:104B48000B43D360EEE7C0460010024000700040FF
:104B5800FFFCFFFFFFFFFEFFFFFFFFEF88130000D2
:104B6800FFCFFFFFFF3FFFFF30B5054C616901250F
:104B7800294361610260BFF36F8F436030BDC04657
:104B8800002002407047704710B52B4B1B692B4A19
:104B980013402B4A9268510721D5294A1469002BE2
:104BA8002AD1254B1B69DB070CD5234B01221A613F
:104BB800234B9B68022B2CD0214B00229A602000AB
:104BC800FFF7E0FF1E4B9B68002B07D11A4A536979
:104BD8001C490B4053611A4B00221A7010BD16482D
:104BE80041699143416118490A4202D0144AD46884
:104BF800D5E7134A5469D2E7114A51680B43536009
:104C08000D4B0E491961002393602000FFF7BBFF8D
:104C1800C7E70B4A9369013B9361002B03D1084B0B
:104C280000229A60CBE713005269511C5961186938
:104C380000F09AF8C3E7C04600200240FA8300005B
:104C48005C170020FFFFFFFC01000400084B5B69B4
:104C5800002B01DB00207047054B064A9A60064A84
:104C68009A605B69002B01DB0020F4E70120F2E782
:104C78000020024023016745AB89EFCD064B5969F7
:104C8800802212060A435A615B69002B01DB01206E
:104C980070470020FCE7C0460020024070B50500C0
:104CA80000F0A0FA4419134B1B69DB0305D500F08B
:104CB80099FAA042F7D3032070BD0E490A690E4B3A
:104CC80014001C400D4808611A4203D00C4B5C606C
:104CD8000120F1E700F086FA4519064B1B695B03D2
:104CE80005D500F07FFAA842F7D30320E4E70020B7
:104CF800E2E7C04600200240FA830000FB83000080
:104D08005C170020F8B507000C0015001E00144BB6
:104D18001B78012B22D0124B01221A7000225A60F4
:104D2800FA208000FFF7BAFF00280DD1012F0FD01D
:104D38002900200002F050FBFA208000FFF7AEFFA8
:104D4800084A5369BB435361054B00221A70F8BDEA
:104D58002A0033002000FFF707FFEDE70220F6E7FF
:104D68005C17002000200240044A536904480340AD
:104D7800C9001943034B1943516170470020024091
:104D880007E0FFFF02000100F0B500235AE0846845
:104D98005F000326BE40B4432600CC68BC403443C1
:104DA8008460446894434A681609012232409A4054
:104DB8002243426056E0DC080834A4002658053235
:104DC8001A4092000F279740BE430F6997403A0058
:104DD800324322505AE0032600E00026A640340061
:104DE8003C43434E1832920094513468EA432600FB
:104DF800AE434F68FF0201D52C4326003C4C266089
:104E08006468260016404F68BF0201D52C4326006F
:104E1800374C66608426A459260016404F68BF03A5
:104E280001D52C432600324C8427E6518026A4590C
:104E380022404E68F60301D52A0022432C4D8024D7
:104E48002A5101330C682200DA404FD001229A40DF
:104E5800250015401442F4D003244E683440013C28
:104E6800012C94D903224C682240032A09D0C26835
:104E78005E000324B440A24314008A68B24022436F
:104E8800C26003224C682240022A94D004685E0063
:104E980003221700B740BC434F683A40B240224350
:104EA8000260C02292024C681442CAD09A081400C8
:104EB8001834A4000E4EA75903241C40E4000F2602
:104EC800A640B743A026F605B04286D0094EB042A8
:104ED80008D0094EB04207D0084EB04200D17AE758
:104EE80005267BE7012679E7022677E7F0BDC0466D
:104EF800001802400004005000080050000C005048
:104F080003690B4201D0012070470020FCE7002A0A
:104F180001D0816170478162FCE7426913000B4050
:104F28001B049143194381617047000030B5002884
:104F380036D02523C35C022B06D00423C363203359
:104F48000022C254012030BD026813680E218B4331
:104F58001360426C136813490B40136001680A68B8
:104F680001239A430A60104C62681C21056C294091
:104F78008B4013436360836CC26C5A60036D002BD3
:104F880006D01A6807490A401A60436D826D5A6054
:104F980025230122C254013B0022C2540020D2E73B
:104FA8000120D0E7FFFEFFFF0000024070B5252377
:104FB800C35C022B03D00423C363012070BD0268C5
:104FC80013680E218B43136001680A6801239A4312
:104FD8000A60416C0A68134C22400A60124C6268ED
:104FE8001C21056C29408B4013436360836CC26CA1
:104FF8005A60036D002B06D01A680A490A401A60E5
:10500800436D826D5A6025230122C254013B002260
:10501800C254836B002B02D098470020CEE70020B3
:10502800CCE7C046FFFEFFFF0000024010B5104A63
:10503800136810490B400343136080239B00984278
:1050480001D0002010BD0C4B1B685800C018400050
:105058000A49FBF763F80130054B5B695B0503D52B
:10506800002803D00138F7E70020EBE70320E9E741
:1050780000700040FFF9FFFF0C00002040420F00C5
:1050880070B5002811DB8308134EC0339B009D596F
:1050980003242040C000FF2214008440A543890156
:1050A8000A4082402A439A5170BD0F230340083BAF
:1050B8009B0806339B00094A944663445C680322B4
:1050C8001040C000FC3215008540AC4389010A40FD
:1050D800824022435A60E7E700E100E000ED00E08B
:1050E800002805DB1F2318401E3B8340014A13603C
:1050F8007047C04600E100E0BFF34F8F034B044AFE
:10510800DA60BFF34F8FC046FDE7C04600ED00E010
:105118000400FA05013880235B0498420FD2094A3B
:1051280050600948036A1B021B0AC02109060B4389
:105138000362002393600733136000207047012047
:10514800FCE7C04610E000E000ED00E010B5040008
:10515800114B1978002901D1012010BDFA208000D7
:10516800FAF7DCFF01000D4B1868FAF7D7FFFFF7D5
:10517800D1FF00280DD1032C01D90120EDE7013022
:10518800002221004042FFF77BFF054B1C600020F6
:10519800E3E70120E1E7C046040000200C000020FE
:1051A8000800002010B5084A116880235B000B43F3
:1051B80013600020FFF7CAFF041E02D0012420005C
:1051C80010BDFEF7F1FEFAE700200240034B1B7802
:1051D800034A11685B1813607047C046040000203A
:1051E80078170020014B18687047C04678170020D0
:1051F80070B50400FFF7F6FF0500631C02D0044BEE
:105208001B78E418FFF7EEFF401BA042FAD370BDED
:1052180004000020034A136803490B40034313604A
:105228007047C04600000140FFF9FFFF30B5EFF3BB
:105238001084012282F3108801680B68124D2B40FC
:105248000B6084F31088EFF3108182F310880268F2
:1052580093680E4C2340936081F31088C36E012B32
:1052680006D08C232022C2500023C366436730BD7A
:10527800EFF3108183F31088026813681024A343A6
:10528800136081F31088ECE7DFFEFFFFFEFFFFEFFE
:10529800704710B5EFF31081012383F3108802687B
:1052A80013684024A343136081F3108888232022C5
:1052B800C25000238367FFF7EBFF10BD704710B59E
:1052C800806A00235E228352083A8352FFF7F6FF72
:1052D80010BD7047F8B504000268D3691068956876
:1052E800BD491E000E400B4205D1990603D5810623
:1052F8002CD4E9002AD4002E07D0B8492E000E403D
:105308000D4229D1B649084226D1E16E012900D1C2
:10531800AAE0D90202D5690200D543E11A0605D5EB
:10532800020600D545E12A0200D542E15A0602D517
:10533800420600D544E11A0202D5420000D543E1F5
:10534800DB0102D5002800DA42E1F8BD636F002BCB
:10535800FBD020009847F8E7D90707D5C10505D540
:1053680001271762902162583A4362509A0709D57B
:10537800EA0707D52268022111628E316258042794
:105388003A4362505A0709D5EA0707D5226804212B
:1053980011628C31625802273A4362501A070AD5C3
:1053A800820601D4002E06D02268082616629021B3
:1053B8006258324362501A050AD5420108D522685C
:1053C80080210901116290216258202632436250DF
:1053D8009022A258002AB8D09B0608D5830601D48B
:1053E800EB0004D5636F002B01D020009847902371
:1053F800E25823689B685B0602D4282313422CD00A
:105408002000FFF713FF23689B685B0621D5EFF3A5
:105418001081012383F31088226893684020834316
:10542800936081F310888023E358002B0DD06D4AD8
:105438009A638023E058FFF7B9FD002800D184E77C
:105448008023E058836B98477FE72000FFF736FFFB
:105458007BE72000FFF732FF77E72000FFF72EFFFA
:1054680090230022E25070E7D90600D451E7C10624
:1054780000D44EE71023136223689B685B0655D55A
:105488008023E25813685B689BB2002B00D15CE76D
:105498005C21615A994200D857E75E21635213682C
:1054A8001B689B060BD5022323675A33E15A023344
:1054B800E35AC91A89B22000FFF70BFF45E7EFF35B
:1054C8001080012383F3108821680A68464D2A401A
:1054D8000A6080F31088EFF3108083F31088216846
:1054E8008A689A438A6080F31088EFF3108083F308
:1054F800108821688A684235FF35AA438A6080F39C
:1055080010888C222021A1500022E266EFF310813E
:1055180083F310882268136810208343136081F393
:1055280010888023E058FFF701FDBCE75C23E15AAF
:105538000233E25A891A89B2E35A9BB2002B00D18E
:1055480003E7002900D100E7EFF31085012383F377
:10555800108820680268254E3240026085F3108862
:10556800EFF3108583F3108820688268204E32405C
:10557800826085F310888C222020A0500022E266E9
:105588006267EFF3108083F3108822681368102590
:10559800AB43136080F31088022323672000FFF7D2
:1055A80098FED2E680235B031362200000F056FECB
:1055B800CBE6A36F002B00D1C7E620009847C4E6CE
:1055C8002000FFF766FEC0E6200000F049FEBCE6BA
:1055D800200000F044FEB8E60F08000001000010AB
:1055E80020010004C7520008FFFEFFFFDFFEFFFF97
:1055F800FEFFFFEF10B56023C35A8C228258222A7F
:1056080005D00268936908210B43936110BD0268B5
:10561800526ADBB21340826D1370836D0133836568
:105628005E22835A013B9BB28352835A9BB2002B62
:10563800ECD1EFF3108C5D3A82F3108801680B68A7
:10564800194C23400B608CF31088EFF3108C82F315
:10565800108801688B6893438B608CF310888C23C7
:105668001F32C250002343670367C36E012B17D153
:105678000023C366EFF31084013383F310880168B5
:105688000B68103A93430B6084F310880368D96958
:105698000A4200D01A625C23C15AFFF71AFEB5E726
:1056A800FAF734FFB2E7C046DFFEFFFF10B560230C
:1056B800C25A2C33C358222B05D00268936908219B
:1056C8000B43936110BD03685B6A1340826D1380BE
:1056D800836D023383655E22835A013B9BB28352FA
:1056E800835A9BB2002BEDD1EFF3108C5D3A82F315
:1056F800108801680B68194C23400B608CF31088E4
:10570800EFF3108C82F3108801688B6893438B60E9
:105718008CF310888C231F32C25000234367036721
:10572800C36E012B17D10023C366EFF31084013336
:1057380083F3108801680B68103A93430B6084F375
:1057480010880368D9690A4200D01A625C23C15ADA
:10575800FFF7BFFDB6E7FAF7D9FEB3E7DFFEFFFFB5
:10576800F0B5CE46474680B583B004006023C35ADF
:1057780001930368DD691A6890469A6891468C22FD
:105788008258222A08D09A6908210A439A6103B0EC
:10579800C0BCB946B046F0BD6823C65A40E0902365
:1057A800E358002B79D15E23E35A9BB2002B37D103
:1057B800EFF31080012282F3108821680B684F4FA5
:1057C8003B400B6080F31088EFF3108182F3108860
:1057D800226893684A480340936081F310888C23B9
:1057E8002022E250002363672367E36E012B5BD11D
:1057F8000023E366EFF31080013383F310882168F8
:105808000B68103A93430B6080F310882368D969BA
:105818000A4200D01A625C23E15A2000FFF759FDC2
:10582800002E45D0AB0643D523685B6A6A461279D9
:105838001340A26D1370A36D0133A3655E22A35AB2
:10584800013B9BB2A3522368DD696A07ABD0EA0724
:1058580008D54246D20505D5012119629022A358E0
:105868000B43A350AB070AD54B46DB0707D5236884
:1058780002221A628E32A35804210B43A3506B07ED
:105888008DD54B46DB078AD5236804221A628C32F1
:10589800A35802210B43A35081E72000FFF70EFD18
:1058A80090230022E2507EE72000FAF72FFEB7E7A8
:1058B8005E23E35A9BB2002B00D168E76822A25A04
:1058C8009A4200D863E7EFF31080012282F3108830
:1058D80021688B680B4D2B408B6080F310880A4B36
:1058E8006367EFF3108182F3108822681368202021
:1058F8000343136081F3108849E7C046FFFEFFFFAA
:10590800FEFFFFEFFFFFFFEFFD550008F8B5DE468D
:1059180057464E464546E0B504006023C55A03681D
:10592800DF691A6890469A6891468C228258222A22
:1059380009D09A6908210A439A61F0BCBB46B2466D
:10594800A946A046F8BD6823C65A43E09023E35809
:10595800002B7AD15E23E35A9BB2002B3AD1EFF3A6
:10596800108001339B4683F3108821680B689A46A0
:105978004E4B52461A400A6080F31088EFF31081AC
:105988008BF310882268936849480340936081F339
:1059980010888C232022E250002363672367E36E7C
:1059A800012B59D10023E366EFF31080013383F311
:1059B800108821680B68103A93430B6080F31088B5
:1059C8002368D9690A4200D01A625C23E15A200090
:1059D800FFF77FFC002E43D0BB0641D523685B6AE6
:1059E8002B40A26D1380A36D0233A3655E22A35AD8
:1059F800013B9BB2A3522368DF697A07AAD0FA0752
:105A080008D54246D20505D5012119629022A3582E
:105A18000B43A350BB070AD54B46DB0707D52368C2
:105A280002221A628E32A35804210B43A3507B072B
:105A38008CD54B46DB0789D5236804221A628C3241
:105A4800A35802210B43A35080E72000FFF736FC40
:105A580090230022E2507DE72000FAF757FDB9E7CE
:105A68005E23E35A9BB2002B00D166E76822A25A54
:105A78009A4200D861E7EFF31080012282F3108880
:105A880021688B680B4D2B408B6080F310880A4B84
:105A98006367EFF3108182F310882268136820206F
:105AA8000343136081F3108847E7C046FFFEFFFFFA
:105AB800FEFFFFEFFFFFFFEFB556000810B504002B
:105AC80083680269134342691343C2691343016837
